{
	"FundMe.sol": {
		"FundMe": {
			"abi": [
				{
					"inputs": [
						{
							"internalType": "uint256",
							"name": "_lockTime",
							"type": "uint256"
						}
					],
					"stateMutability": "nonpayable",
					"type": "constructor"
				},
				{
					"inputs": [],
					"name": "fund",
					"outputs": [],
					"stateMutability": "payable",
					"type": "function"
				},
				{
					"inputs": [
						{
							"internalType": "address",
							"name": "",
							"type": "address"
						}
					],
					"name": "funderToAmount",
					"outputs": [
						{
							"internalType": "uint256",
							"name": "",
							"type": "uint256"
						}
					],
					"stateMutability": "view",
					"type": "function"
				},
				{
					"inputs": [],
					"name": "getChainlinkDataFeekLatestAnswer",
					"outputs": [
						{
							"internalType": "int256",
							"name": "",
							"type": "int256"
						}
					],
					"stateMutability": "view",
					"type": "function"
				},
				{
					"inputs": [],
					"name": "getFund",
					"outputs": [],
					"stateMutability": "nonpayable",
					"type": "function"
				},
				{
					"inputs": [],
					"name": "owner",
					"outputs": [
						{
							"internalType": "address",
							"name": "",
							"type": "address"
						}
					],
					"stateMutability": "view",
					"type": "function"
				},
				{
					"inputs": [],
					"name": "refund",
					"outputs": [],
					"stateMutability": "nonpayable",
					"type": "function"
				},
				{
					"inputs": [
						{
							"internalType": "address",
							"name": "newOwner",
							"type": "address"
						}
					],
					"name": "transferOwnership",
					"outputs": [],
					"stateMutability": "nonpayable",
					"type": "function"
				}
			],
			"devdoc": {
				"kind": "dev",
				"methods": {},
				"version": 1
			},
			"evm": {
				"assembly": "    /* \"FundMe.sol\":360:4856  contract FundMe {... */\n  mstore(0x40, 0x80)\n    /* \"FundMe.sol\":814:1134  constructor(uint256 _lockTime){... */\n  callvalue\n  dup1\n  iszero\n  tag_1\n  jumpi\n  0x00\n  dup1\n  revert\ntag_1:\n  pop\n  mload(0x40)\n  sub(codesize, bytecodeSize)\n  dup1\n  bytecodeSize\n  dup4\n  codecopy\n  dup2\n  dup2\n  add\n  0x40\n  mstore\n  dup2\n  add\n  swap1\n  tag_2\n  swap2\n  swap1\n  tag_3\n  jump\t// in\ntag_2:\n    /* \"FundMe.sol\":914:956  0x694AA1769357215DE4FAC081bf1f309aDC325306 */\n  0x694aa1769357215de4fac081bf1f309adc325306\n    /* \"FundMe.sol\":881:889  dataFeed */\n  0x01\n  0x00\n    /* \"FundMe.sol\":881:957  dataFeed = AggregatorV3Interface(0x694AA1769357215DE4FAC081bf1f309aDC325306) */\n  0x0100\n  exp\n  dup2\n  sload\n  dup2\n  0xffffffffffffffffffffffffffffffffffffffff\n  mul\n  not\n  and\n  swap1\n  dup4\n  0xffffffffffffffffffffffffffffffffffffffff\n  and\n  mul\n  or\n  swap1\n  sstore\n  pop\n    /* \"FundMe.sol\":1001:1011  msg.sender */\n  caller\n    /* \"FundMe.sol\":993:998  owner */\n  0x02\n  0x00\n    /* \"FundMe.sol\":993:1011  owner = msg.sender */\n  0x0100\n  exp\n  dup2\n  sload\n  dup2\n  0xffffffffffffffffffffffffffffffffffffffff\n  mul\n  not\n  and\n  swap1\n  dup4\n  0xffffffffffffffffffffffffffffffffffffffff\n  and\n  mul\n  or\n  swap1\n  sstore\n  pop\n    /* \"FundMe.sol\":1044:1059  block.timestamp */\n  timestamp\n    /* \"FundMe.sol\":1022:1041  deploymentTimestamp */\n  0x03\n    /* \"FundMe.sol\":1022:1059  deploymentTimestamp = block.timestamp */\n  dup2\n  swap1\n  sstore\n  pop\n    /* \"FundMe.sol\":1117:1126  _lockTime */\n  dup1\n    /* \"FundMe.sol\":1106:1114  lockTime */\n  0x04\n    /* \"FundMe.sol\":1106:1126  lockTime = _lockTime */\n  dup2\n  swap1\n  sstore\n  pop\n    /* \"FundMe.sol\":814:1134  constructor(uint256 _lockTime){... */\n  pop\n    /* \"FundMe.sol\":360:4856  contract FundMe {... */\n  jump(tag_6)\n    /* \"#utility.yul\":88:205   */\ntag_8:\n    /* \"#utility.yul\":197:198   */\n  0x00\n    /* \"#utility.yul\":194:195   */\n  dup1\n    /* \"#utility.yul\":187:199   */\n  revert\n    /* \"#utility.yul\":334:411   */\ntag_10:\n    /* \"#utility.yul\":371:378   */\n  0x00\n    /* \"#utility.yul\":400:405   */\n  dup2\n    /* \"#utility.yul\":389:405   */\n  swap1\n  pop\n    /* \"#utility.yul\":334:411   */\n  swap2\n  swap1\n  pop\n  jump\t// out\n    /* \"#utility.yul\":417:539   */\ntag_11:\n    /* \"#utility.yul\":490:514   */\n  tag_19\n    /* \"#utility.yul\":508:513   */\n  dup2\n    /* \"#utility.yul\":490:514   */\n  tag_10\n  jump\t// in\ntag_19:\n    /* \"#utility.yul\":483:488   */\n  dup2\n    /* \"#utility.yul\":480:515   */\n  eq\n    /* \"#utility.yul\":470:533   */\n  tag_20\n  jumpi\n    /* \"#utility.yul\":529:530   */\n  0x00\n    /* \"#utility.yul\":526:527   */\n  dup1\n    /* \"#utility.yul\":519:531   */\n  revert\n    /* \"#utility.yul\":470:533   */\ntag_20:\n    /* \"#utility.yul\":417:539   */\n  pop\n  jump\t// out\n    /* \"#utility.yul\":545:688   */\ntag_12:\n    /* \"#utility.yul\":602:607   */\n  0x00\n    /* \"#utility.yul\":633:639   */\n  dup2\n    /* \"#utility.yul\":627:640   */\n  mload\n    /* \"#utility.yul\":618:640   */\n  swap1\n  pop\n    /* \"#utility.yul\":649:682   */\n  tag_22\n    /* \"#utility.yul\":676:681   */\n  dup2\n    /* \"#utility.yul\":649:682   */\n  tag_11\n  jump\t// in\ntag_22:\n    /* \"#utility.yul\":545:688   */\n  swap3\n  swap2\n  pop\n  pop\n  jump\t// out\n    /* \"#utility.yul\":694:1045   */\ntag_3:\n    /* \"#utility.yul\":764:770   */\n  0x00\n    /* \"#utility.yul\":813:815   */\n  0x20\n    /* \"#utility.yul\":801:810   */\n  dup3\n    /* \"#utility.yul\":792:799   */\n  dup5\n    /* \"#utility.yul\":788:811   */\n  sub\n    /* \"#utility.yul\":784:816   */\n  slt\n    /* \"#utility.yul\":781:900   */\n  iszero\n  tag_24\n  jumpi\n    /* \"#utility.yul\":819:898   */\n  tag_25\n  tag_8\n  jump\t// in\ntag_25:\n    /* \"#utility.yul\":781:900   */\ntag_24:\n    /* \"#utility.yul\":939:940   */\n  0x00\n    /* \"#utility.yul\":964:1028   */\n  tag_26\n    /* \"#utility.yul\":1020:1027   */\n  dup5\n    /* \"#utility.yul\":1011:1017   */\n  dup3\n    /* \"#utility.yul\":1000:1009   */\n  dup6\n    /* \"#utility.yul\":996:1018   */\n  add\n    /* \"#utility.yul\":964:1028   */\n  tag_12\n  jump\t// in\ntag_26:\n    /* \"#utility.yul\":954:1028   */\n  swap2\n  pop\n    /* \"#utility.yul\":910:1038   */\n  pop\n    /* \"#utility.yul\":694:1045   */\n  swap3\n  swap2\n  pop\n  pop\n  jump\t// out\n    /* \"FundMe.sol\":360:4856  contract FundMe {... */\ntag_6:\n  dataSize(sub_0)\n  dup1\n  dataOffset(sub_0)\n  0x00\n  codecopy\n  0x00\n  return\nstop\n\nsub_0: assembly {\n        /* \"FundMe.sol\":360:4856  contract FundMe {... */\n      mstore(0x40, 0x80)\n      jumpi(tag_1, lt(calldatasize, 0x04))\n      shr(0xe0, calldataload(0x00))\n      dup1\n      0x8da5cb5b\n      gt\n      tag_9\n      jumpi\n      dup1\n      0x8da5cb5b\n      eq\n      tag_5\n      jumpi\n      dup1\n      0x8edd6eb6\n      eq\n      tag_6\n      jumpi\n      dup1\n      0xb60d4288\n      eq\n      tag_7\n      jumpi\n      dup1\n      0xf2fde38b\n      eq\n      tag_8\n      jumpi\n      jump(tag_1)\n    tag_9:\n      dup1\n      0x4407e1e8\n      eq\n      tag_2\n      jumpi\n      dup1\n      0x57edc0a5\n      eq\n      tag_3\n      jumpi\n      dup1\n      0x590e1ae3\n      eq\n      tag_4\n      jumpi\n    tag_1:\n      0x00\n      dup1\n      revert\n        /* \"FundMe.sol\":383:433  mapping (address => uint256) public funderToAmount */\n    tag_2:\n      callvalue\n      dup1\n      iszero\n      tag_10\n      jumpi\n      0x00\n      dup1\n      revert\n    tag_10:\n      pop\n      tag_11\n      0x04\n      dup1\n      calldatasize\n      sub\n      dup2\n      add\n      swap1\n      tag_12\n      swap2\n      swap1\n      tag_13\n      jump\t// in\n    tag_12:\n      tag_14\n      jump\t// in\n    tag_11:\n      mload(0x40)\n      tag_15\n      swap2\n      swap1\n      tag_16\n      jump\t// in\n    tag_15:\n      mload(0x40)\n      dup1\n      swap2\n      sub\n      swap1\n      return\n        /* \"FundMe.sol\":2090:2409  function getChainlinkDataFeekLatestAnswer() public view returns (int){... */\n    tag_3:\n      callvalue\n      dup1\n      iszero\n      tag_17\n      jumpi\n      0x00\n      dup1\n      revert\n    tag_17:\n      pop\n      tag_18\n      tag_19\n      jump\t// in\n    tag_18:\n      mload(0x40)\n      tag_20\n      swap2\n      swap1\n      tag_21\n      jump\t// in\n    tag_20:\n      mload(0x40)\n      dup1\n      swap2\n      sub\n      swap1\n      return\n        /* \"FundMe.sol\":3935:4518  function refund() external windowClosed {... */\n    tag_4:\n      callvalue\n      dup1\n      iszero\n      tag_22\n      jumpi\n      0x00\n      dup1\n      revert\n    tag_22:\n      pop\n      tag_23\n      tag_24\n      jump\t// in\n    tag_23:\n      stop\n        /* \"FundMe.sol\":630:650  address public owner */\n    tag_5:\n      callvalue\n      dup1\n      iszero\n      tag_25\n      jumpi\n      0x00\n      dup1\n      revert\n    tag_25:\n      pop\n      tag_26\n      tag_27\n      jump\t// in\n    tag_26:\n      mload(0x40)\n      tag_28\n      swap2\n      swap1\n      tag_29\n      jump\t// in\n    tag_28:\n      mload(0x40)\n      dup1\n      swap2\n      sub\n      swap1\n      return\n        /* \"FundMe.sol\":2958:3861  function getFund() external windowClosed onlyOwner {... */\n    tag_6:\n      callvalue\n      dup1\n      iszero\n      tag_30\n      jumpi\n      0x00\n      dup1\n      revert\n    tag_30:\n      pop\n      tag_31\n      tag_32\n      jump\t// in\n    tag_31:\n      stop\n        /* \"FundMe.sol\":1780:2084  function fund() external payable {... */\n    tag_7:\n      tag_33\n      tag_34\n      jump\t// in\n    tag_33:\n      stop\n        /* \"FundMe.sol\":1168:1348  function transferOwnership(address newOwner) public onlyOwner {... */\n    tag_8:\n      callvalue\n      dup1\n      iszero\n      tag_35\n      jumpi\n      0x00\n      dup1\n      revert\n    tag_35:\n      pop\n      tag_36\n      0x04\n      dup1\n      calldatasize\n      sub\n      dup2\n      add\n      swap1\n      tag_37\n      swap2\n      swap1\n      tag_13\n      jump\t// in\n    tag_37:\n      tag_38\n      jump\t// in\n    tag_36:\n      stop\n        /* \"FundMe.sol\":383:433  mapping (address => uint256) public funderToAmount */\n    tag_14:\n      mstore(0x20, 0x00)\n      dup1\n      0x00\n      mstore\n      keccak256(0x00, 0x40)\n      0x00\n      swap2\n      pop\n      swap1\n      pop\n      sload\n      dup2\n      jump\t// out\n        /* \"FundMe.sol\":2090:2409  function getChainlinkDataFeekLatestAnswer() public view returns (int){... */\n    tag_19:\n        /* \"FundMe.sol\":2155:2158  int */\n      0x00\n        /* \"FundMe.sol\":2217:2230  int256 answer */\n      dup1\n        /* \"FundMe.sol\":2353:2361  dataFeed */\n      0x01\n      0x00\n      swap1\n      sload\n      swap1\n      0x0100\n      exp\n      swap1\n      div\n      0xffffffffffffffffffffffffffffffffffffffff\n      and\n        /* \"FundMe.sol\":2353:2377  dataFeed.latestRoundData */\n      0xffffffffffffffffffffffffffffffffffffffff\n      and\n      0xfeaf968c\n        /* \"FundMe.sol\":2353:2379  dataFeed.latestRoundData() */\n      mload(0x40)\n      dup2\n      0xffffffff\n      and\n      0xe0\n      shl\n      dup2\n      mstore\n      0x04\n      add\n      0xa0\n      mload(0x40)\n      dup1\n      dup4\n      sub\n      dup2\n      dup7\n      gas\n      staticcall\n      iszero\n      dup1\n      iszero\n      tag_41\n      jumpi\n      returndatasize\n      0x00\n      dup1\n      returndatacopy\n      revert(0x00, returndatasize)\n    tag_41:\n      pop\n      pop\n      pop\n      pop\n      mload(0x40)\n      returndatasize\n      not(0x1f)\n      0x1f\n      dup3\n      add\n      and\n      dup3\n      add\n      dup1\n      0x40\n      mstore\n      pop\n      dup2\n      add\n      swap1\n      tag_42\n      swap2\n      swap1\n      tag_43\n      jump\t// in\n    tag_42:\n        /* \"FundMe.sol\":2169:2379  (... */\n      pop\n      pop\n      pop\n      swap2\n      pop\n      pop\n        /* \"FundMe.sol\":2396:2402  answer */\n      dup1\n        /* \"FundMe.sol\":2389:2402  return answer */\n      swap2\n      pop\n      pop\n        /* \"FundMe.sol\":2090:2409  function getChainlinkDataFeekLatestAnswer() public view returns (int){... */\n      swap1\n      jump\t// out\n        /* \"FundMe.sol\":3935:4518  function refund() external windowClosed {... */\n    tag_24:\n        /* \"FundMe.sol\":4607:4615  lockTime */\n      sload(0x04)\n        /* \"FundMe.sol\":4585:4604  deploymentTimestamp */\n      sload(0x03)\n        /* \"FundMe.sol\":4585:4615  deploymentTimestamp + lockTime */\n      tag_45\n      swap2\n      swap1\n      tag_46\n      jump\t// in\n    tag_45:\n        /* \"FundMe.sol\":4566:4581  block.timestamp */\n      timestamp\n        /* \"FundMe.sol\":4566:4615  block.timestamp >= deploymentTimestamp + lockTime */\n      lt\n      iszero\n        /* \"FundMe.sol\":4558:4639  require(block.timestamp >= deploymentTimestamp + lockTime,\"window is not closed\") */\n      tag_47\n      jumpi\n      mload(0x40)\n      0x08c379a000000000000000000000000000000000000000000000000000000000\n      dup2\n      mstore\n      0x04\n      add\n      tag_48\n      swap1\n      tag_49\n      jump\t// in\n    tag_48:\n      mload(0x40)\n      dup1\n      swap2\n      sub\n      swap1\n      revert\n    tag_47:\n        /* \"FundMe.sol\":597:612  1000 * 10 ** 18 */\n      0x3635c9adc5dea00000\n        /* \"FundMe.sol\":3993:4031  convertEthToUsd(address(this).balance) */\n      tag_51\n        /* \"FundMe.sol\":4009:4030  address(this).balance */\n      selfbalance\n        /* \"FundMe.sol\":3993:4008  convertEthToUsd */\n      tag_52\n        /* \"FundMe.sol\":3993:4031  convertEthToUsd(address(this).balance) */\n      jump\t// in\n    tag_51:\n        /* \"FundMe.sol\":3993:4040  convertEthToUsd(address(this).balance) < TARGET */\n      lt\n        /* \"FundMe.sol\":3985:4062  require(convertEthToUsd(address(this).balance) < TARGET, \"Target is reached\") */\n      tag_53\n      jumpi\n      mload(0x40)\n      0x08c379a000000000000000000000000000000000000000000000000000000000\n      dup2\n      mstore\n      0x04\n      add\n      tag_54\n      swap1\n      tag_55\n      jump\t// in\n    tag_54:\n      mload(0x40)\n      dup1\n      swap2\n      sub\n      swap1\n      revert\n    tag_53:\n        /* \"FundMe.sol\":4159:4173  uint256 amount */\n      0x00\n        /* \"FundMe.sol\":4177:4191  funderToAmount */\n      dup1\n        /* \"FundMe.sol\":4177:4203  funderToAmount[msg.sender] */\n      0x00\n        /* \"FundMe.sol\":4192:4202  msg.sender */\n      caller\n        /* \"FundMe.sol\":4177:4203  funderToAmount[msg.sender] */\n      0xffffffffffffffffffffffffffffffffffffffff\n      and\n      0xffffffffffffffffffffffffffffffffffffffff\n      and\n      dup2\n      mstore\n      0x20\n      add\n      swap1\n      dup2\n      mstore\n      0x20\n      add\n      0x00\n      keccak256\n      sload\n        /* \"FundMe.sol\":4159:4203  uint256 amount =  funderToAmount[msg.sender] */\n      swap1\n      pop\n        /* \"FundMe.sol\":4231:4232  0 */\n      0x00\n        /* \"FundMe.sol\":4221:4227  amount */\n      dup2\n        /* \"FundMe.sol\":4221:4232  amount != 0 */\n      sub\n        /* \"FundMe.sol\":4213:4261  require(amount != 0, \"there is no fund for you\") */\n      tag_56\n      jumpi\n      mload(0x40)\n      0x08c379a000000000000000000000000000000000000000000000000000000000\n      dup2\n      mstore\n      0x04\n      add\n      tag_57\n      swap1\n      tag_58\n      jump\t// in\n    tag_57:\n      mload(0x40)\n      dup1\n      swap2\n      sub\n      swap1\n      revert\n    tag_56:\n        /* \"FundMe.sol\":4338:4347  bool succ */\n      0x00\n        /* \"FundMe.sol\":4376:4386  msg.sender */\n      caller\n        /* \"FundMe.sol\":4368:4392  payable(msg.sender).call */\n      0xffffffffffffffffffffffffffffffffffffffff\n      and\n        /* \"FundMe.sol\":4400:4421  address(this).balance */\n      selfbalance\n        /* \"FundMe.sol\":4368:4426  payable(msg.sender).call{value: address(this).balance}(\"\") */\n      mload(0x40)\n      tag_59\n      swap1\n      tag_60\n      jump\t// in\n    tag_59:\n      0x00\n      mload(0x40)\n      dup1\n      dup4\n      sub\n      dup2\n      dup6\n      dup8\n      gas\n      call\n      swap3\n      pop\n      pop\n      pop\n      returndatasize\n      dup1\n      0x00\n      dup2\n      eq\n      tag_63\n      jumpi\n      mload(0x40)\n      swap2\n      pop\n      and(add(returndatasize, 0x3f), not(0x1f))\n      dup3\n      add\n      0x40\n      mstore\n      returndatasize\n      dup3\n      mstore\n      returndatasize\n      0x00\n      0x20\n      dup5\n      add\n      returndatacopy\n      jump(tag_62)\n    tag_63:\n      0x60\n      swap2\n      pop\n    tag_62:\n      pop\n        /* \"FundMe.sol\":4357:4426  (succ, ) = payable(msg.sender).call{value: address(this).balance}(\"\") */\n      pop\n      dup1\n      swap2\n      pop\n      pop\n        /* \"FundMe.sol\":4444:4448  succ */\n      dup1\n        /* \"FundMe.sol\":4436:4471  require(succ, \"transfer tx failed\") */\n      tag_64\n      jumpi\n      mload(0x40)\n      0x08c379a000000000000000000000000000000000000000000000000000000000\n      dup2\n      mstore\n      0x04\n      add\n      tag_65\n      swap1\n      tag_66\n      jump\t// in\n    tag_65:\n      mload(0x40)\n      dup1\n      swap2\n      sub\n      swap1\n      revert\n    tag_64:\n        /* \"FundMe.sol\":4510:4511  0 */\n      0x00\n        /* \"FundMe.sol\":4481:4495  funderToAmount */\n      dup1\n        /* \"FundMe.sol\":4481:4507  funderToAmount[msg.sender] */\n      0x00\n        /* \"FundMe.sol\":4496:4506  msg.sender */\n      caller\n        /* \"FundMe.sol\":4481:4507  funderToAmount[msg.sender] */\n      0xffffffffffffffffffffffffffffffffffffffff\n      and\n      0xffffffffffffffffffffffffffffffffffffffff\n      and\n      dup2\n      mstore\n      0x20\n      add\n      swap1\n      dup2\n      mstore\n      0x20\n      add\n      0x00\n      keccak256\n        /* \"FundMe.sol\":4481:4511  funderToAmount[msg.sender] = 0 */\n      dup2\n      swap1\n      sstore\n      pop\n        /* \"FundMe.sol\":3975:4518  {... */\n      pop\n      pop\n        /* \"FundMe.sol\":3935:4518  function refund() external windowClosed {... */\n      jump\t// out\n        /* \"FundMe.sol\":630:650  address public owner */\n    tag_27:\n      0x02\n      0x00\n      swap1\n      sload\n      swap1\n      0x0100\n      exp\n      swap1\n      div\n      0xffffffffffffffffffffffffffffffffffffffff\n      and\n      dup2\n      jump\t// out\n        /* \"FundMe.sol\":2958:3861  function getFund() external windowClosed onlyOwner {... */\n    tag_32:\n        /* \"FundMe.sol\":4607:4615  lockTime */\n      sload(0x04)\n        /* \"FundMe.sol\":4585:4604  deploymentTimestamp */\n      sload(0x03)\n        /* \"FundMe.sol\":4585:4615  deploymentTimestamp + lockTime */\n      tag_68\n      swap2\n      swap1\n      tag_46\n      jump\t// in\n    tag_68:\n        /* \"FundMe.sol\":4566:4581  block.timestamp */\n      timestamp\n        /* \"FundMe.sol\":4566:4615  block.timestamp >= deploymentTimestamp + lockTime */\n      lt\n      iszero\n        /* \"FundMe.sol\":4558:4639  require(block.timestamp >= deploymentTimestamp + lockTime,\"window is not closed\") */\n      tag_69\n      jumpi\n      mload(0x40)\n      0x08c379a000000000000000000000000000000000000000000000000000000000\n      dup2\n      mstore\n      0x04\n      add\n      tag_70\n      swap1\n      tag_49\n      jump\t// in\n    tag_70:\n      mload(0x40)\n      dup1\n      swap2\n      sub\n      swap1\n      revert\n    tag_69:\n        /* \"FundMe.sol\":4786:4791  owner */\n      0x02\n      0x00\n      swap1\n      sload\n      swap1\n      0x0100\n      exp\n      swap1\n      div\n      0xffffffffffffffffffffffffffffffffffffffff\n      and\n        /* \"FundMe.sol\":4772:4791  msg.sender == owner */\n      0xffffffffffffffffffffffffffffffffffffffff\n      and\n        /* \"FundMe.sol\":4772:4782  msg.sender */\n      caller\n        /* \"FundMe.sol\":4772:4791  msg.sender == owner */\n      0xffffffffffffffffffffffffffffffffffffffff\n      and\n      eq\n        /* \"FundMe.sol\":4764:4836  require(msg.sender == owner,\"this function can only be called by owner\") */\n      tag_72\n      jumpi\n      mload(0x40)\n      0x08c379a000000000000000000000000000000000000000000000000000000000\n      dup2\n      mstore\n      0x04\n      add\n      tag_73\n      swap1\n      tag_74\n      jump\t// in\n    tag_73:\n      mload(0x40)\n      dup1\n      swap2\n      sub\n      swap1\n      revert\n    tag_72:\n        /* \"FundMe.sol\":597:612  1000 * 10 ** 18 */\n      0x3635c9adc5dea00000\n        /* \"FundMe.sol\":3083:3121  convertEthToUsd(address(this).balance) */\n      tag_76\n        /* \"FundMe.sol\":3099:3120  address(this).balance */\n      selfbalance\n        /* \"FundMe.sol\":3083:3098  convertEthToUsd */\n      tag_52\n        /* \"FundMe.sol\":3083:3121  convertEthToUsd(address(this).balance) */\n      jump\t// in\n    tag_76:\n        /* \"FundMe.sol\":3083:3131  convertEthToUsd(address(this).balance) >= TARGET */\n      lt\n      iszero\n        /* \"FundMe.sol\":3075:3156  require(convertEthToUsd(address(this).balance) >= TARGET,\"Target is not reached\") */\n      tag_77\n      jumpi\n      mload(0x40)\n      0x08c379a000000000000000000000000000000000000000000000000000000000\n      dup2\n      mstore\n      0x04\n      add\n      tag_78\n      swap1\n      tag_79\n      jump\t// in\n    tag_78:\n      mload(0x40)\n      dup1\n      swap2\n      sub\n      swap1\n      revert\n    tag_77:\n        /* \"FundMe.sol\":3414:3424  msg.sender */\n      caller\n        /* \"FundMe.sol\":3406:3434  payable(msg.sender).transfer */\n      0xffffffffffffffffffffffffffffffffffffffff\n      and\n        /* \"FundMe.sol\":3406:3457  payable(msg.sender).transfer(address(this).balance) */\n      0x08fc\n        /* \"FundMe.sol\":3435:3456  address(this).balance */\n      selfbalance\n        /* \"FundMe.sol\":3406:3457  payable(msg.sender).transfer(address(this).balance) */\n      swap1\n      dup2\n      iszero\n      mul\n      swap1\n      mload(0x40)\n      0x00\n      mload(0x40)\n      dup1\n      dup4\n      sub\n      dup2\n      dup6\n      dup9\n      dup9\n      call\n      swap4\n      pop\n      pop\n      pop\n      pop\n      iszero\n      dup1\n      iszero\n      tag_81\n      jumpi\n      returndatasize\n      0x00\n      dup1\n      returndatacopy\n      revert(0x00, returndatasize)\n    tag_81:\n      pop\n        /* \"FundMe.sol\":3853:3854  0 */\n      0x00\n        /* \"FundMe.sol\":3824:3838  funderToAmount */\n      dup1\n        /* \"FundMe.sol\":3824:3850  funderToAmount[msg.sender] */\n      0x00\n        /* \"FundMe.sol\":3839:3849  msg.sender */\n      caller\n        /* \"FundMe.sol\":3824:3850  funderToAmount[msg.sender] */\n      0xffffffffffffffffffffffffffffffffffffffff\n      and\n      0xffffffffffffffffffffffffffffffffffffffff\n      and\n      dup2\n      mstore\n      0x20\n      add\n      swap1\n      dup2\n      mstore\n      0x20\n      add\n      0x00\n      keccak256\n        /* \"FundMe.sol\":3824:3854  funderToAmount[msg.sender] = 0 */\n      dup2\n      swap1\n      sstore\n      pop\n        /* \"FundMe.sol\":2958:3861  function getFund() external windowClosed onlyOwner {... */\n      jump\t// out\n        /* \"FundMe.sol\":1780:2084  function fund() external payable {... */\n    tag_34:\n        /* \"FundMe.sol\":1891:1899  lockTime */\n      sload(0x04)\n        /* \"FundMe.sol\":1869:1888  deploymentTimestamp */\n      sload(0x03)\n        /* \"FundMe.sol\":1869:1899  deploymentTimestamp + lockTime */\n      tag_83\n      swap2\n      swap1\n      tag_46\n      jump\t// in\n    tag_83:\n        /* \"FundMe.sol\":1851:1866  block.timestamp */\n      timestamp\n        /* \"FundMe.sol\":1851:1899  block.timestamp < deploymentTimestamp + lockTime */\n      lt\n        /* \"FundMe.sol\":1843:1920  require(block.timestamp < deploymentTimestamp + lockTime, \"window is closed\") */\n      tag_84\n      jumpi\n      mload(0x40)\n      0x08c379a000000000000000000000000000000000000000000000000000000000\n      dup2\n      mstore\n      0x04\n      add\n      tag_85\n      swap1\n      tag_86\n      jump\t// in\n    tag_85:\n      mload(0x40)\n      dup1\n      swap2\n      sub\n      swap1\n      revert\n    tag_84:\n        /* \"FundMe.sol\":473:487  100 * 10 ** 18 */\n      0x056bc75e2d63100000\n        /* \"FundMe.sol\":1961:1987  convertEthToUsd(msg.value) */\n      tag_87\n        /* \"FundMe.sol\":1977:1986  msg.value */\n      callvalue\n        /* \"FundMe.sol\":1961:1976  convertEthToUsd */\n      tag_52\n        /* \"FundMe.sol\":1961:1987  convertEthToUsd(msg.value) */\n      jump\t// in\n    tag_87:\n        /* \"FundMe.sol\":1961:2004  convertEthToUsd(msg.value) >= MINIMUM_VALUE */\n      lt\n      iszero\n        /* \"FundMe.sol\":1953:2022  require(convertEthToUsd(msg.value) >= MINIMUM_VALUE, \"Send more ETH\") */\n      tag_88\n      jumpi\n      mload(0x40)\n      0x08c379a000000000000000000000000000000000000000000000000000000000\n      dup2\n      mstore\n      0x04\n      add\n      tag_89\n      swap1\n      tag_90\n      jump\t// in\n    tag_89:\n      mload(0x40)\n      dup1\n      swap2\n      sub\n      swap1\n      revert\n    tag_88:\n        /* \"FundMe.sol\":2061:2070  msg.value */\n      callvalue\n        /* \"FundMe.sol\":2032:2046  funderToAmount */\n      0x00\n        /* \"FundMe.sol\":2032:2058  funderToAmount[msg.sender] */\n      dup1\n        /* \"FundMe.sol\":2047:2057  msg.sender */\n      caller\n        /* \"FundMe.sol\":2032:2058  funderToAmount[msg.sender] */\n      0xffffffffffffffffffffffffffffffffffffffff\n      and\n      0xffffffffffffffffffffffffffffffffffffffff\n      and\n      dup2\n      mstore\n      0x20\n      add\n      swap1\n      dup2\n      mstore\n      0x20\n      add\n      0x00\n      keccak256\n        /* \"FundMe.sol\":2032:2070  funderToAmount[msg.sender] = msg.value */\n      dup2\n      swap1\n      sstore\n      pop\n        /* \"FundMe.sol\":1780:2084  function fund() external payable {... */\n      jump\t// out\n        /* \"FundMe.sol\":1168:1348  function transferOwnership(address newOwner) public onlyOwner {... */\n    tag_38:\n        /* \"FundMe.sol\":4786:4791  owner */\n      0x02\n      0x00\n      swap1\n      sload\n      swap1\n      0x0100\n      exp\n      swap1\n      div\n      0xffffffffffffffffffffffffffffffffffffffff\n      and\n        /* \"FundMe.sol\":4772:4791  msg.sender == owner */\n      0xffffffffffffffffffffffffffffffffffffffff\n      and\n        /* \"FundMe.sol\":4772:4782  msg.sender */\n      caller\n        /* \"FundMe.sol\":4772:4791  msg.sender == owner */\n      0xffffffffffffffffffffffffffffffffffffffff\n      and\n      eq\n        /* \"FundMe.sol\":4764:4836  require(msg.sender == owner,\"this function can only be called by owner\") */\n      tag_92\n      jumpi\n      mload(0x40)\n      0x08c379a000000000000000000000000000000000000000000000000000000000\n      dup2\n      mstore\n      0x04\n      add\n      tag_93\n      swap1\n      tag_74\n      jump\t// in\n    tag_93:\n      mload(0x40)\n      dup1\n      swap2\n      sub\n      swap1\n      revert\n    tag_92:\n        /* \"FundMe.sol\":1333:1341  newOwner */\n      dup1\n        /* \"FundMe.sol\":1325:1330  owner */\n      0x02\n      0x00\n        /* \"FundMe.sol\":1325:1341  owner = newOwner */\n      0x0100\n      exp\n      dup2\n      sload\n      dup2\n      0xffffffffffffffffffffffffffffffffffffffff\n      mul\n      not\n      and\n      swap1\n      dup4\n      0xffffffffffffffffffffffffffffffffffffffff\n      and\n      mul\n      or\n      swap1\n      sstore\n      pop\n        /* \"FundMe.sol\":1168:1348  function transferOwnership(address newOwner) public onlyOwner {... */\n      pop\n      jump\t// out\n        /* \"FundMe.sol\":2441:2854  function convertEthToUsd(uint256 ethAmount) internal view returns(uint256) {... */\n    tag_52:\n        /* \"FundMe.sol\":2507:2514  uint256 */\n      0x00\n        /* \"FundMe.sol\":2526:2542  uint256 ethPrice */\n      dup1\n        /* \"FundMe.sol\":2550:2584  getChainlinkDataFeekLatestAnswer() */\n      tag_96\n        /* \"FundMe.sol\":2550:2582  getChainlinkDataFeekLatestAnswer */\n      tag_19\n        /* \"FundMe.sol\":2550:2584  getChainlinkDataFeekLatestAnswer() */\n      jump\t// in\n    tag_96:\n        /* \"FundMe.sol\":2526:2585  uint256 ethPrice = uint(getChainlinkDataFeekLatestAnswer()) */\n      swap1\n      pop\n        /* \"FundMe.sol\":2626:2631  10**8 */\n      0x05f5e100\n        /* \"FundMe.sol\":2614:2622  ethPrice */\n      dup2\n        /* \"FundMe.sol\":2602:2611  ethAmount */\n      dup5\n        /* \"FundMe.sol\":2602:2622  ethAmount * ethPrice */\n      tag_97\n      swap2\n      swap1\n      tag_98\n      jump\t// in\n    tag_97:\n        /* \"FundMe.sol\":2602:2632  ethAmount * ethPrice / (10**8) */\n      tag_99\n      swap2\n      swap1\n      tag_100\n      jump\t// in\n    tag_99:\n        /* \"FundMe.sol\":2595:2632  return ethAmount * ethPrice / (10**8) */\n      swap2\n      pop\n      pop\n        /* \"FundMe.sol\":2441:2854  function convertEthToUsd(uint256 ethAmount) internal view returns(uint256) {... */\n      swap2\n      swap1\n      pop\n      jump\t// out\n        /* \"#utility.yul\":88:205   */\n    tag_102:\n        /* \"#utility.yul\":197:198   */\n      0x00\n        /* \"#utility.yul\":194:195   */\n      dup1\n        /* \"#utility.yul\":187:199   */\n      revert\n        /* \"#utility.yul\":334:460   */\n    tag_104:\n        /* \"#utility.yul\":371:378   */\n      0x00\n        /* \"#utility.yul\":411:453   */\n      0xffffffffffffffffffffffffffffffffffffffff\n        /* \"#utility.yul\":404:409   */\n      dup3\n        /* \"#utility.yul\":400:454   */\n      and\n        /* \"#utility.yul\":389:454   */\n      swap1\n      pop\n        /* \"#utility.yul\":334:460   */\n      swap2\n      swap1\n      pop\n      jump\t// out\n        /* \"#utility.yul\":466:562   */\n    tag_105:\n        /* \"#utility.yul\":503:510   */\n      0x00\n        /* \"#utility.yul\":532:556   */\n      tag_148\n        /* \"#utility.yul\":550:555   */\n      dup3\n        /* \"#utility.yul\":532:556   */\n      tag_104\n      jump\t// in\n    tag_148:\n        /* \"#utility.yul\":521:556   */\n      swap1\n      pop\n        /* \"#utility.yul\":466:562   */\n      swap2\n      swap1\n      pop\n      jump\t// out\n        /* \"#utility.yul\":568:690   */\n    tag_106:\n        /* \"#utility.yul\":641:665   */\n      tag_150\n        /* \"#utility.yul\":659:664   */\n      dup2\n        /* \"#utility.yul\":641:665   */\n      tag_105\n      jump\t// in\n    tag_150:\n        /* \"#utility.yul\":634:639   */\n      dup2\n        /* \"#utility.yul\":631:666   */\n      eq\n        /* \"#utility.yul\":621:684   */\n      tag_151\n      jumpi\n        /* \"#utility.yul\":680:681   */\n      0x00\n        /* \"#utility.yul\":677:678   */\n      dup1\n        /* \"#utility.yul\":670:682   */\n      revert\n        /* \"#utility.yul\":621:684   */\n    tag_151:\n        /* \"#utility.yul\":568:690   */\n      pop\n      jump\t// out\n        /* \"#utility.yul\":696:835   */\n    tag_107:\n        /* \"#utility.yul\":742:747   */\n      0x00\n        /* \"#utility.yul\":780:786   */\n      dup2\n        /* \"#utility.yul\":767:787   */\n      calldataload\n        /* \"#utility.yul\":758:787   */\n      swap1\n      pop\n        /* \"#utility.yul\":796:829   */\n      tag_153\n        /* \"#utility.yul\":823:828   */\n      dup2\n        /* \"#utility.yul\":796:829   */\n      tag_106\n      jump\t// in\n    tag_153:\n        /* \"#utility.yul\":696:835   */\n      swap3\n      swap2\n      pop\n      pop\n      jump\t// out\n        /* \"#utility.yul\":841:1170   */\n    tag_13:\n        /* \"#utility.yul\":900:906   */\n      0x00\n        /* \"#utility.yul\":949:951   */\n      0x20\n        /* \"#utility.yul\":937:946   */\n      dup3\n        /* \"#utility.yul\":928:935   */\n      dup5\n        /* \"#utility.yul\":924:947   */\n      sub\n        /* \"#utility.yul\":920:952   */\n      slt\n        /* \"#utility.yul\":917:1036   */\n      iszero\n      tag_155\n      jumpi\n        /* \"#utility.yul\":955:1034   */\n      tag_156\n      tag_102\n      jump\t// in\n    tag_156:\n        /* \"#utility.yul\":917:1036   */\n    tag_155:\n        /* \"#utility.yul\":1075:1076   */\n      0x00\n        /* \"#utility.yul\":1100:1153   */\n      tag_157\n        /* \"#utility.yul\":1145:1152   */\n      dup5\n        /* \"#utility.yul\":1136:1142   */\n      dup3\n        /* \"#utility.yul\":1125:1134   */\n      dup6\n        /* \"#utility.yul\":1121:1143   */\n      add\n        /* \"#utility.yul\":1100:1153   */\n      tag_107\n      jump\t// in\n    tag_157:\n        /* \"#utility.yul\":1090:1153   */\n      swap2\n      pop\n        /* \"#utility.yul\":1046:1163   */\n      pop\n        /* \"#utility.yul\":841:1170   */\n      swap3\n      swap2\n      pop\n      pop\n      jump\t// out\n        /* \"#utility.yul\":1176:1253   */\n    tag_108:\n        /* \"#utility.yul\":1213:1220   */\n      0x00\n        /* \"#utility.yul\":1242:1247   */\n      dup2\n        /* \"#utility.yul\":1231:1247   */\n      swap1\n      pop\n        /* \"#utility.yul\":1176:1253   */\n      swap2\n      swap1\n      pop\n      jump\t// out\n        /* \"#utility.yul\":1259:1377   */\n    tag_109:\n        /* \"#utility.yul\":1346:1370   */\n      tag_160\n        /* \"#utility.yul\":1364:1369   */\n      dup2\n        /* \"#utility.yul\":1346:1370   */\n      tag_108\n      jump\t// in\n    tag_160:\n        /* \"#utility.yul\":1341:1344   */\n      dup3\n        /* \"#utility.yul\":1334:1371   */\n      mstore\n        /* \"#utility.yul\":1259:1377   */\n      pop\n      pop\n      jump\t// out\n        /* \"#utility.yul\":1383:1605   */\n    tag_16:\n        /* \"#utility.yul\":1476:1480   */\n      0x00\n        /* \"#utility.yul\":1514:1516   */\n      0x20\n        /* \"#utility.yul\":1503:1512   */\n      dup3\n        /* \"#utility.yul\":1499:1517   */\n      add\n        /* \"#utility.yul\":1491:1517   */\n      swap1\n      pop\n        /* \"#utility.yul\":1527:1598   */\n      tag_162\n        /* \"#utility.yul\":1595:1596   */\n      0x00\n        /* \"#utility.yul\":1584:1593   */\n      dup4\n        /* \"#utility.yul\":1580:1597   */\n      add\n        /* \"#utility.yul\":1571:1577   */\n      dup5\n        /* \"#utility.yul\":1527:1598   */\n      tag_109\n      jump\t// in\n    tag_162:\n        /* \"#utility.yul\":1383:1605   */\n      swap3\n      swap2\n      pop\n      pop\n      jump\t// out\n        /* \"#utility.yul\":1611:1687   */\n    tag_110:\n        /* \"#utility.yul\":1647:1654   */\n      0x00\n        /* \"#utility.yul\":1676:1681   */\n      dup2\n        /* \"#utility.yul\":1665:1681   */\n      swap1\n      pop\n        /* \"#utility.yul\":1611:1687   */\n      swap2\n      swap1\n      pop\n      jump\t// out\n        /* \"#utility.yul\":1693:1808   */\n    tag_111:\n        /* \"#utility.yul\":1778:1801   */\n      tag_165\n        /* \"#utility.yul\":1795:1800   */\n      dup2\n        /* \"#utility.yul\":1778:1801   */\n      tag_110\n      jump\t// in\n    tag_165:\n        /* \"#utility.yul\":1773:1776   */\n      dup3\n        /* \"#utility.yul\":1766:1802   */\n      mstore\n        /* \"#utility.yul\":1693:1808   */\n      pop\n      pop\n      jump\t// out\n        /* \"#utility.yul\":1814:2032   */\n    tag_21:\n        /* \"#utility.yul\":1905:1909   */\n      0x00\n        /* \"#utility.yul\":1943:1945   */\n      0x20\n        /* \"#utility.yul\":1932:1941   */\n      dup3\n        /* \"#utility.yul\":1928:1946   */\n      add\n        /* \"#utility.yul\":1920:1946   */\n      swap1\n      pop\n        /* \"#utility.yul\":1956:2025   */\n      tag_167\n        /* \"#utility.yul\":2022:2023   */\n      0x00\n        /* \"#utility.yul\":2011:2020   */\n      dup4\n        /* \"#utility.yul\":2007:2024   */\n      add\n        /* \"#utility.yul\":1998:2004   */\n      dup5\n        /* \"#utility.yul\":1956:2025   */\n      tag_111\n      jump\t// in\n    tag_167:\n        /* \"#utility.yul\":1814:2032   */\n      swap3\n      swap2\n      pop\n      pop\n      jump\t// out\n        /* \"#utility.yul\":2038:2156   */\n    tag_112:\n        /* \"#utility.yul\":2125:2149   */\n      tag_169\n        /* \"#utility.yul\":2143:2148   */\n      dup2\n        /* \"#utility.yul\":2125:2149   */\n      tag_105\n      jump\t// in\n    tag_169:\n        /* \"#utility.yul\":2120:2123   */\n      dup3\n        /* \"#utility.yul\":2113:2150   */\n      mstore\n        /* \"#utility.yul\":2038:2156   */\n      pop\n      pop\n      jump\t// out\n        /* \"#utility.yul\":2162:2384   */\n    tag_29:\n        /* \"#utility.yul\":2255:2259   */\n      0x00\n        /* \"#utility.yul\":2293:2295   */\n      0x20\n        /* \"#utility.yul\":2282:2291   */\n      dup3\n        /* \"#utility.yul\":2278:2296   */\n      add\n        /* \"#utility.yul\":2270:2296   */\n      swap1\n      pop\n        /* \"#utility.yul\":2306:2377   */\n      tag_171\n        /* \"#utility.yul\":2374:2375   */\n      0x00\n        /* \"#utility.yul\":2363:2372   */\n      dup4\n        /* \"#utility.yul\":2359:2376   */\n      add\n        /* \"#utility.yul\":2350:2356   */\n      dup5\n        /* \"#utility.yul\":2306:2377   */\n      tag_112\n      jump\t// in\n    tag_171:\n        /* \"#utility.yul\":2162:2384   */\n      swap3\n      swap2\n      pop\n      pop\n      jump\t// out\n        /* \"#utility.yul\":2390:2495   */\n    tag_113:\n        /* \"#utility.yul\":2426:2433   */\n      0x00\n        /* \"#utility.yul\":2466:2488   */\n      0xffffffffffffffffffff\n        /* \"#utility.yul\":2459:2464   */\n      dup3\n        /* \"#utility.yul\":2455:2489   */\n      and\n        /* \"#utility.yul\":2444:2489   */\n      swap1\n      pop\n        /* \"#utility.yul\":2390:2495   */\n      swap2\n      swap1\n      pop\n      jump\t// out\n        /* \"#utility.yul\":2501:2621   */\n    tag_114:\n        /* \"#utility.yul\":2573:2596   */\n      tag_174\n        /* \"#utility.yul\":2590:2595   */\n      dup2\n        /* \"#utility.yul\":2573:2596   */\n      tag_113\n      jump\t// in\n    tag_174:\n        /* \"#utility.yul\":2566:2571   */\n      dup2\n        /* \"#utility.yul\":2563:2597   */\n      eq\n        /* \"#utility.yul\":2553:2615   */\n      tag_175\n      jumpi\n        /* \"#utility.yul\":2611:2612   */\n      0x00\n        /* \"#utility.yul\":2608:2609   */\n      dup1\n        /* \"#utility.yul\":2601:2613   */\n      revert\n        /* \"#utility.yul\":2553:2615   */\n    tag_175:\n        /* \"#utility.yul\":2501:2621   */\n      pop\n      jump\t// out\n        /* \"#utility.yul\":2627:2768   */\n    tag_115:\n        /* \"#utility.yul\":2683:2688   */\n      0x00\n        /* \"#utility.yul\":2714:2720   */\n      dup2\n        /* \"#utility.yul\":2708:2721   */\n      mload\n        /* \"#utility.yul\":2699:2721   */\n      swap1\n      pop\n        /* \"#utility.yul\":2730:2762   */\n      tag_177\n        /* \"#utility.yul\":2756:2761   */\n      dup2\n        /* \"#utility.yul\":2730:2762   */\n      tag_114\n      jump\t// in\n    tag_177:\n        /* \"#utility.yul\":2627:2768   */\n      swap3\n      swap2\n      pop\n      pop\n      jump\t// out\n        /* \"#utility.yul\":2774:2894   */\n    tag_116:\n        /* \"#utility.yul\":2846:2869   */\n      tag_179\n        /* \"#utility.yul\":2863:2868   */\n      dup2\n        /* \"#utility.yul\":2846:2869   */\n      tag_110\n      jump\t// in\n    tag_179:\n        /* \"#utility.yul\":2839:2844   */\n      dup2\n        /* \"#utility.yul\":2836:2870   */\n      eq\n        /* \"#utility.yul\":2826:2888   */\n      tag_180\n      jumpi\n        /* \"#utility.yul\":2884:2885   */\n      0x00\n        /* \"#utility.yul\":2881:2882   */\n      dup1\n        /* \"#utility.yul\":2874:2886   */\n      revert\n        /* \"#utility.yul\":2826:2888   */\n    tag_180:\n        /* \"#utility.yul\":2774:2894   */\n      pop\n      jump\t// out\n        /* \"#utility.yul\":2900:3041   */\n    tag_117:\n        /* \"#utility.yul\":2956:2961   */\n      0x00\n        /* \"#utility.yul\":2987:2993   */\n      dup2\n        /* \"#utility.yul\":2981:2994   */\n      mload\n        /* \"#utility.yul\":2972:2994   */\n      swap1\n      pop\n        /* \"#utility.yul\":3003:3035   */\n      tag_182\n        /* \"#utility.yul\":3029:3034   */\n      dup2\n        /* \"#utility.yul\":3003:3035   */\n      tag_116\n      jump\t// in\n    tag_182:\n        /* \"#utility.yul\":2900:3041   */\n      swap3\n      swap2\n      pop\n      pop\n      jump\t// out\n        /* \"#utility.yul\":3047:3169   */\n    tag_118:\n        /* \"#utility.yul\":3120:3144   */\n      tag_184\n        /* \"#utility.yul\":3138:3143   */\n      dup2\n        /* \"#utility.yul\":3120:3144   */\n      tag_108\n      jump\t// in\n    tag_184:\n        /* \"#utility.yul\":3113:3118   */\n      dup2\n        /* \"#utility.yul\":3110:3145   */\n      eq\n        /* \"#utility.yul\":3100:3163   */\n      tag_185\n      jumpi\n        /* \"#utility.yul\":3159:3160   */\n      0x00\n        /* \"#utility.yul\":3156:3157   */\n      dup1\n        /* \"#utility.yul\":3149:3161   */\n      revert\n        /* \"#utility.yul\":3100:3163   */\n    tag_185:\n        /* \"#utility.yul\":3047:3169   */\n      pop\n      jump\t// out\n        /* \"#utility.yul\":3175:3318   */\n    tag_119:\n        /* \"#utility.yul\":3232:3237   */\n      0x00\n        /* \"#utility.yul\":3263:3269   */\n      dup2\n        /* \"#utility.yul\":3257:3270   */\n      mload\n        /* \"#utility.yul\":3248:3270   */\n      swap1\n      pop\n        /* \"#utility.yul\":3279:3312   */\n      tag_187\n        /* \"#utility.yul\":3306:3311   */\n      dup2\n        /* \"#utility.yul\":3279:3312   */\n      tag_118\n      jump\t// in\n    tag_187:\n        /* \"#utility.yul\":3175:3318   */\n      swap3\n      swap2\n      pop\n      pop\n      jump\t// out\n        /* \"#utility.yul\":3324:4295   */\n    tag_43:\n        /* \"#utility.yul\":3427:3433   */\n      0x00\n        /* \"#utility.yul\":3435:3441   */\n      dup1\n        /* \"#utility.yul\":3443:3449   */\n      0x00\n        /* \"#utility.yul\":3451:3457   */\n      dup1\n        /* \"#utility.yul\":3459:3465   */\n      0x00\n        /* \"#utility.yul\":3508:3511   */\n      0xa0\n        /* \"#utility.yul\":3496:3505   */\n      dup7\n        /* \"#utility.yul\":3487:3494   */\n      dup9\n        /* \"#utility.yul\":3483:3506   */\n      sub\n        /* \"#utility.yul\":3479:3512   */\n      slt\n        /* \"#utility.yul\":3476:3596   */\n      iszero\n      tag_189\n      jumpi\n        /* \"#utility.yul\":3515:3594   */\n      tag_190\n      tag_102\n      jump\t// in\n    tag_190:\n        /* \"#utility.yul\":3476:3596   */\n    tag_189:\n        /* \"#utility.yul\":3635:3636   */\n      0x00\n        /* \"#utility.yul\":3660:3723   */\n      tag_191\n        /* \"#utility.yul\":3715:3722   */\n      dup9\n        /* \"#utility.yul\":3706:3712   */\n      dup3\n        /* \"#utility.yul\":3695:3704   */\n      dup10\n        /* \"#utility.yul\":3691:3713   */\n      add\n        /* \"#utility.yul\":3660:3723   */\n      tag_115\n      jump\t// in\n    tag_191:\n        /* \"#utility.yul\":3650:3723   */\n      swap6\n      pop\n        /* \"#utility.yul\":3606:3733   */\n      pop\n        /* \"#utility.yul\":3772:3774   */\n      0x20\n        /* \"#utility.yul\":3798:3861   */\n      tag_192\n        /* \"#utility.yul\":3853:3860   */\n      dup9\n        /* \"#utility.yul\":3844:3850   */\n      dup3\n        /* \"#utility.yul\":3833:3842   */\n      dup10\n        /* \"#utility.yul\":3829:3851   */\n      add\n        /* \"#utility.yul\":3798:3861   */\n      tag_117\n      jump\t// in\n    tag_192:\n        /* \"#utility.yul\":3788:3861   */\n      swap5\n      pop\n        /* \"#utility.yul\":3743:3871   */\n      pop\n        /* \"#utility.yul\":3910:3912   */\n      0x40\n        /* \"#utility.yul\":3936:4000   */\n      tag_193\n        /* \"#utility.yul\":3992:3999   */\n      dup9\n        /* \"#utility.yul\":3983:3989   */\n      dup3\n        /* \"#utility.yul\":3972:3981   */\n      dup10\n        /* \"#utility.yul\":3968:3990   */\n      add\n        /* \"#utility.yul\":3936:4000   */\n      tag_119\n      jump\t// in\n    tag_193:\n        /* \"#utility.yul\":3926:4000   */\n      swap4\n      pop\n        /* \"#utility.yul\":3881:4010   */\n      pop\n        /* \"#utility.yul\":4049:4051   */\n      0x60\n        /* \"#utility.yul\":4075:4139   */\n      tag_194\n        /* \"#utility.yul\":4131:4138   */\n      dup9\n        /* \"#utility.yul\":4122:4128   */\n      dup3\n        /* \"#utility.yul\":4111:4120   */\n      dup10\n        /* \"#utility.yul\":4107:4129   */\n      add\n        /* \"#utility.yul\":4075:4139   */\n      tag_119\n      jump\t// in\n    tag_194:\n        /* \"#utility.yul\":4065:4139   */\n      swap3\n      pop\n        /* \"#utility.yul\":4020:4149   */\n      pop\n        /* \"#utility.yul\":4188:4191   */\n      0x80\n        /* \"#utility.yul\":4215:4278   */\n      tag_195\n        /* \"#utility.yul\":4270:4277   */\n      dup9\n        /* \"#utility.yul\":4261:4267   */\n      dup3\n        /* \"#utility.yul\":4250:4259   */\n      dup10\n        /* \"#utility.yul\":4246:4268   */\n      add\n        /* \"#utility.yul\":4215:4278   */\n      tag_115\n      jump\t// in\n    tag_195:\n        /* \"#utility.yul\":4205:4278   */\n      swap2\n      pop\n        /* \"#utility.yul\":4159:4288   */\n      pop\n        /* \"#utility.yul\":3324:4295   */\n      swap3\n      swap6\n      pop\n      swap3\n      swap6\n      swap1\n      swap4\n      pop\n      jump\t// out\n        /* \"#utility.yul\":4301:4481   */\n    tag_120:\n        /* \"#utility.yul\":4349:4426   */\n      0x4e487b7100000000000000000000000000000000000000000000000000000000\n        /* \"#utility.yul\":4346:4347   */\n      0x00\n        /* \"#utility.yul\":4339:4427   */\n      mstore\n        /* \"#utility.yul\":4446:4450   */\n      0x11\n        /* \"#utility.yul\":4443:4444   */\n      0x04\n        /* \"#utility.yul\":4436:4451   */\n      mstore\n        /* \"#utility.yul\":4470:4474   */\n      0x24\n        /* \"#utility.yul\":4467:4468   */\n      0x00\n        /* \"#utility.yul\":4460:4475   */\n      revert\n        /* \"#utility.yul\":4487:4678   */\n    tag_46:\n        /* \"#utility.yul\":4527:4530   */\n      0x00\n        /* \"#utility.yul\":4546:4566   */\n      tag_198\n        /* \"#utility.yul\":4564:4565   */\n      dup3\n        /* \"#utility.yul\":4546:4566   */\n      tag_108\n      jump\t// in\n    tag_198:\n        /* \"#utility.yul\":4541:4566   */\n      swap2\n      pop\n        /* \"#utility.yul\":4580:4600   */\n      tag_199\n        /* \"#utility.yul\":4598:4599   */\n      dup4\n        /* \"#utility.yul\":4580:4600   */\n      tag_108\n      jump\t// in\n    tag_199:\n        /* \"#utility.yul\":4575:4600   */\n      swap3\n      pop\n        /* \"#utility.yul\":4623:4624   */\n      dup3\n        /* \"#utility.yul\":4620:4621   */\n      dup3\n        /* \"#utility.yul\":4616:4625   */\n      add\n        /* \"#utility.yul\":4609:4625   */\n      swap1\n      pop\n        /* \"#utility.yul\":4644:4647   */\n      dup1\n        /* \"#utility.yul\":4641:4642   */\n      dup3\n        /* \"#utility.yul\":4638:4648   */\n      gt\n        /* \"#utility.yul\":4635:4671   */\n      iszero\n      tag_200\n      jumpi\n        /* \"#utility.yul\":4651:4669   */\n      tag_201\n      tag_120\n      jump\t// in\n    tag_201:\n        /* \"#utility.yul\":4635:4671   */\n    tag_200:\n        /* \"#utility.yul\":4487:4678   */\n      swap3\n      swap2\n      pop\n      pop\n      jump\t// out\n        /* \"#utility.yul\":4684:4853   */\n    tag_121:\n        /* \"#utility.yul\":4768:4779   */\n      0x00\n        /* \"#utility.yul\":4802:4808   */\n      dup3\n        /* \"#utility.yul\":4797:4800   */\n      dup3\n        /* \"#utility.yul\":4790:4809   */\n      mstore\n        /* \"#utility.yul\":4842:4846   */\n      0x20\n        /* \"#utility.yul\":4837:4840   */\n      dup3\n        /* \"#utility.yul\":4833:4847   */\n      add\n        /* \"#utility.yul\":4818:4847   */\n      swap1\n      pop\n        /* \"#utility.yul\":4684:4853   */\n      swap3\n      swap2\n      pop\n      pop\n      jump\t// out\n        /* \"#utility.yul\":4859:5029   */\n    tag_122:\n        /* \"#utility.yul\":4999:5021   */\n      0x77696e646f77206973206e6f7420636c6f736564000000000000000000000000\n        /* \"#utility.yul\":4995:4996   */\n      0x00\n        /* \"#utility.yul\":4987:4993   */\n      dup3\n        /* \"#utility.yul\":4983:4997   */\n      add\n        /* \"#utility.yul\":4976:5022   */\n      mstore\n        /* \"#utility.yul\":4859:5029   */\n      pop\n      jump\t// out\n        /* \"#utility.yul\":5035:5401   */\n    tag_123:\n        /* \"#utility.yul\":5177:5180   */\n      0x00\n        /* \"#utility.yul\":5198:5265   */\n      tag_205\n        /* \"#utility.yul\":5262:5264   */\n      0x14\n        /* \"#utility.yul\":5257:5260   */\n      dup4\n        /* \"#utility.yul\":5198:5265   */\n      tag_121\n      jump\t// in\n    tag_205:\n        /* \"#utility.yul\":5191:5265   */\n      swap2\n      pop\n        /* \"#utility.yul\":5274:5367   */\n      tag_206\n        /* \"#utility.yul\":5363:5366   */\n      dup3\n        /* \"#utility.yul\":5274:5367   */\n      tag_122\n      jump\t// in\n    tag_206:\n        /* \"#utility.yul\":5392:5394   */\n      0x20\n        /* \"#utility.yul\":5387:5390   */\n      dup3\n        /* \"#utility.yul\":5383:5395   */\n      add\n        /* \"#utility.yul\":5376:5395   */\n      swap1\n      pop\n        /* \"#utility.yul\":5035:5401   */\n      swap2\n      swap1\n      pop\n      jump\t// out\n        /* \"#utility.yul\":5407:5826   */\n    tag_49:\n        /* \"#utility.yul\":5573:5577   */\n      0x00\n        /* \"#utility.yul\":5611:5613   */\n      0x20\n        /* \"#utility.yul\":5600:5609   */\n      dup3\n        /* \"#utility.yul\":5596:5614   */\n      add\n        /* \"#utility.yul\":5588:5614   */\n      swap1\n      pop\n        /* \"#utility.yul\":5660:5669   */\n      dup2\n        /* \"#utility.yul\":5654:5658   */\n      dup2\n        /* \"#utility.yul\":5650:5670   */\n      sub\n        /* \"#utility.yul\":5646:5647   */\n      0x00\n        /* \"#utility.yul\":5635:5644   */\n      dup4\n        /* \"#utility.yul\":5631:5648   */\n      add\n        /* \"#utility.yul\":5624:5671   */\n      mstore\n        /* \"#utility.yul\":5688:5819   */\n      tag_208\n        /* \"#utility.yul\":5814:5818   */\n      dup2\n        /* \"#utility.yul\":5688:5819   */\n      tag_123\n      jump\t// in\n    tag_208:\n        /* \"#utility.yul\":5680:5819   */\n      swap1\n      pop\n        /* \"#utility.yul\":5407:5826   */\n      swap2\n      swap1\n      pop\n      jump\t// out\n        /* \"#utility.yul\":5832:5999   */\n    tag_124:\n        /* \"#utility.yul\":5972:5991   */\n      0x5461726765742069732072656163686564000000000000000000000000000000\n        /* \"#utility.yul\":5968:5969   */\n      0x00\n        /* \"#utility.yul\":5960:5966   */\n      dup3\n        /* \"#utility.yul\":5956:5970   */\n      add\n        /* \"#utility.yul\":5949:5992   */\n      mstore\n        /* \"#utility.yul\":5832:5999   */\n      pop\n      jump\t// out\n        /* \"#utility.yul\":6005:6371   */\n    tag_125:\n        /* \"#utility.yul\":6147:6150   */\n      0x00\n        /* \"#utility.yul\":6168:6235   */\n      tag_211\n        /* \"#utility.yul\":6232:6234   */\n      0x11\n        /* \"#utility.yul\":6227:6230   */\n      dup4\n        /* \"#utility.yul\":6168:6235   */\n      tag_121\n      jump\t// in\n    tag_211:\n        /* \"#utility.yul\":6161:6235   */\n      swap2\n      pop\n        /* \"#utility.yul\":6244:6337   */\n      tag_212\n        /* \"#utility.yul\":6333:6336   */\n      dup3\n        /* \"#utility.yul\":6244:6337   */\n      tag_124\n      jump\t// in\n    tag_212:\n        /* \"#utility.yul\":6362:6364   */\n      0x20\n        /* \"#utility.yul\":6357:6360   */\n      dup3\n        /* \"#utility.yul\":6353:6365   */\n      add\n        /* \"#utility.yul\":6346:6365   */\n      swap1\n      pop\n        /* \"#utility.yul\":6005:6371   */\n      swap2\n      swap1\n      pop\n      jump\t// out\n        /* \"#utility.yul\":6377:6796   */\n    tag_55:\n        /* \"#utility.yul\":6543:6547   */\n      0x00\n        /* \"#utility.yul\":6581:6583   */\n      0x20\n        /* \"#utility.yul\":6570:6579   */\n      dup3\n        /* \"#utility.yul\":6566:6584   */\n      add\n        /* \"#utility.yul\":6558:6584   */\n      swap1\n      pop\n        /* \"#utility.yul\":6630:6639   */\n      dup2\n        /* \"#utility.yul\":6624:6628   */\n      dup2\n        /* \"#utility.yul\":6620:6640   */\n      sub\n        /* \"#utility.yul\":6616:6617   */\n      0x00\n        /* \"#utility.yul\":6605:6614   */\n      dup4\n        /* \"#utility.yul\":6601:6618   */\n      add\n        /* \"#utility.yul\":6594:6641   */\n      mstore\n        /* \"#utility.yul\":6658:6789   */\n      tag_214\n        /* \"#utility.yul\":6784:6788   */\n      dup2\n        /* \"#utility.yul\":6658:6789   */\n      tag_125\n      jump\t// in\n    tag_214:\n        /* \"#utility.yul\":6650:6789   */\n      swap1\n      pop\n        /* \"#utility.yul\":6377:6796   */\n      swap2\n      swap1\n      pop\n      jump\t// out\n        /* \"#utility.yul\":6802:6976   */\n    tag_126:\n        /* \"#utility.yul\":6942:6968   */\n      0x7468657265206973206e6f2066756e6420666f7220796f750000000000000000\n        /* \"#utility.yul\":6938:6939   */\n      0x00\n        /* \"#utility.yul\":6930:6936   */\n      dup3\n        /* \"#utility.yul\":6926:6940   */\n      add\n        /* \"#utility.yul\":6919:6969   */\n      mstore\n        /* \"#utility.yul\":6802:6976   */\n      pop\n      jump\t// out\n        /* \"#utility.yul\":6982:7348   */\n    tag_127:\n        /* \"#utility.yul\":7124:7127   */\n      0x00\n        /* \"#utility.yul\":7145:7212   */\n      tag_217\n        /* \"#utility.yul\":7209:7211   */\n      0x18\n        /* \"#utility.yul\":7204:7207   */\n      dup4\n        /* \"#utility.yul\":7145:7212   */\n      tag_121\n      jump\t// in\n    tag_217:\n        /* \"#utility.yul\":7138:7212   */\n      swap2\n      pop\n        /* \"#utility.yul\":7221:7314   */\n      tag_218\n        /* \"#utility.yul\":7310:7313   */\n      dup3\n        /* \"#utility.yul\":7221:7314   */\n      tag_126\n      jump\t// in\n    tag_218:\n        /* \"#utility.yul\":7339:7341   */\n      0x20\n        /* \"#utility.yul\":7334:7337   */\n      dup3\n        /* \"#utility.yul\":7330:7342   */\n      add\n        /* \"#utility.yul\":7323:7342   */\n      swap1\n      pop\n        /* \"#utility.yul\":6982:7348   */\n      swap2\n      swap1\n      pop\n      jump\t// out\n        /* \"#utility.yul\":7354:7773   */\n    tag_58:\n        /* \"#utility.yul\":7520:7524   */\n      0x00\n        /* \"#utility.yul\":7558:7560   */\n      0x20\n        /* \"#utility.yul\":7547:7556   */\n      dup3\n        /* \"#utility.yul\":7543:7561   */\n      add\n        /* \"#utility.yul\":7535:7561   */\n      swap1\n      pop\n        /* \"#utility.yul\":7607:7616   */\n      dup2\n        /* \"#utility.yul\":7601:7605   */\n      dup2\n        /* \"#utility.yul\":7597:7617   */\n      sub\n        /* \"#utility.yul\":7593:7594   */\n      0x00\n        /* \"#utility.yul\":7582:7591   */\n      dup4\n        /* \"#utility.yul\":7578:7595   */\n      add\n        /* \"#utility.yul\":7571:7618   */\n      mstore\n        /* \"#utility.yul\":7635:7766   */\n      tag_220\n        /* \"#utility.yul\":7761:7765   */\n      dup2\n        /* \"#utility.yul\":7635:7766   */\n      tag_127\n      jump\t// in\n    tag_220:\n        /* \"#utility.yul\":7627:7766   */\n      swap1\n      pop\n        /* \"#utility.yul\":7354:7773   */\n      swap2\n      swap1\n      pop\n      jump\t// out\n        /* \"#utility.yul\":7779:7926   */\n    tag_128:\n        /* \"#utility.yul\":7880:7891   */\n      0x00\n        /* \"#utility.yul\":7917:7920   */\n      dup2\n        /* \"#utility.yul\":7902:7920   */\n      swap1\n      pop\n        /* \"#utility.yul\":7779:7926   */\n      swap3\n      swap2\n      pop\n      pop\n      jump\t// out\n        /* \"#utility.yul\":7932:8046   */\n    tag_129:\n      pop\n      jump\t// out\n        /* \"#utility.yul\":8052:8450   */\n    tag_130:\n        /* \"#utility.yul\":8211:8214   */\n      0x00\n        /* \"#utility.yul\":8232:8315   */\n      tag_224\n        /* \"#utility.yul\":8313:8314   */\n      0x00\n        /* \"#utility.yul\":8308:8311   */\n      dup4\n        /* \"#utility.yul\":8232:8315   */\n      tag_128\n      jump\t// in\n    tag_224:\n        /* \"#utility.yul\":8225:8315   */\n      swap2\n      pop\n        /* \"#utility.yul\":8324:8417   */\n      tag_225\n        /* \"#utility.yul\":8413:8416   */\n      dup3\n        /* \"#utility.yul\":8324:8417   */\n      tag_129\n      jump\t// in\n    tag_225:\n        /* \"#utility.yul\":8442:8443   */\n      0x00\n        /* \"#utility.yul\":8437:8440   */\n      dup3\n        /* \"#utility.yul\":8433:8444   */\n      add\n        /* \"#utility.yul\":8426:8444   */\n      swap1\n      pop\n        /* \"#utility.yul\":8052:8450   */\n      swap2\n      swap1\n      pop\n      jump\t// out\n        /* \"#utility.yul\":8456:8835   */\n    tag_60:\n        /* \"#utility.yul\":8640:8643   */\n      0x00\n        /* \"#utility.yul\":8662:8809   */\n      tag_227\n        /* \"#utility.yul\":8805:8808   */\n      dup3\n        /* \"#utility.yul\":8662:8809   */\n      tag_130\n      jump\t// in\n    tag_227:\n        /* \"#utility.yul\":8655:8809   */\n      swap2\n      pop\n        /* \"#utility.yul\":8826:8829   */\n      dup2\n        /* \"#utility.yul\":8819:8829   */\n      swap1\n      pop\n        /* \"#utility.yul\":8456:8835   */\n      swap2\n      swap1\n      pop\n      jump\t// out\n        /* \"#utility.yul\":8841:9009   */\n    tag_131:\n        /* \"#utility.yul\":8981:9001   */\n      0x7472616e73666572207478206661696c65640000000000000000000000000000\n        /* \"#utility.yul\":8977:8978   */\n      0x00\n        /* \"#utility.yul\":8969:8975   */\n      dup3\n        /* \"#utility.yul\":8965:8979   */\n      add\n        /* \"#utility.yul\":8958:9002   */\n      mstore\n        /* \"#utility.yul\":8841:9009   */\n      pop\n      jump\t// out\n        /* \"#utility.yul\":9015:9381   */\n    tag_132:\n        /* \"#utility.yul\":9157:9160   */\n      0x00\n        /* \"#utility.yul\":9178:9245   */\n      tag_230\n        /* \"#utility.yul\":9242:9244   */\n      0x12\n        /* \"#utility.yul\":9237:9240   */\n      dup4\n        /* \"#utility.yul\":9178:9245   */\n      tag_121\n      jump\t// in\n    tag_230:\n        /* \"#utility.yul\":9171:9245   */\n      swap2\n      pop\n        /* \"#utility.yul\":9254:9347   */\n      tag_231\n        /* \"#utility.yul\":9343:9346   */\n      dup3\n        /* \"#utility.yul\":9254:9347   */\n      tag_131\n      jump\t// in\n    tag_231:\n        /* \"#utility.yul\":9372:9374   */\n      0x20\n        /* \"#utility.yul\":9367:9370   */\n      dup3\n        /* \"#utility.yul\":9363:9375   */\n      add\n        /* \"#utility.yul\":9356:9375   */\n      swap1\n      pop\n        /* \"#utility.yul\":9015:9381   */\n      swap2\n      swap1\n      pop\n      jump\t// out\n        /* \"#utility.yul\":9387:9806   */\n    tag_66:\n        /* \"#utility.yul\":9553:9557   */\n      0x00\n        /* \"#utility.yul\":9591:9593   */\n      0x20\n        /* \"#utility.yul\":9580:9589   */\n      dup3\n        /* \"#utility.yul\":9576:9594   */\n      add\n        /* \"#utility.yul\":9568:9594   */\n      swap1\n      pop\n        /* \"#utility.yul\":9640:9649   */\n      dup2\n        /* \"#utility.yul\":9634:9638   */\n      dup2\n        /* \"#utility.yul\":9630:9650   */\n      sub\n        /* \"#utility.yul\":9626:9627   */\n      0x00\n        /* \"#utility.yul\":9615:9624   */\n      dup4\n        /* \"#utility.yul\":9611:9628   */\n      add\n        /* \"#utility.yul\":9604:9651   */\n      mstore\n        /* \"#utility.yul\":9668:9799   */\n      tag_233\n        /* \"#utility.yul\":9794:9798   */\n      dup2\n        /* \"#utility.yul\":9668:9799   */\n      tag_132\n      jump\t// in\n    tag_233:\n        /* \"#utility.yul\":9660:9799   */\n      swap1\n      pop\n        /* \"#utility.yul\":9387:9806   */\n      swap2\n      swap1\n      pop\n      jump\t// out\n        /* \"#utility.yul\":9812:10040   */\n    tag_133:\n        /* \"#utility.yul\":9952:9986   */\n      0x746869732066756e6374696f6e2063616e206f6e6c792062652063616c6c6564\n        /* \"#utility.yul\":9948:9949   */\n      0x00\n        /* \"#utility.yul\":9940:9946   */\n      dup3\n        /* \"#utility.yul\":9936:9950   */\n      add\n        /* \"#utility.yul\":9929:9987   */\n      mstore\n        /* \"#utility.yul\":10021:10032   */\n      0x206279206f776e65720000000000000000000000000000000000000000000000\n        /* \"#utility.yul\":10016:10018   */\n      0x20\n        /* \"#utility.yul\":10008:10014   */\n      dup3\n        /* \"#utility.yul\":10004:10019   */\n      add\n        /* \"#utility.yul\":9997:10033   */\n      mstore\n        /* \"#utility.yul\":9812:10040   */\n      pop\n      jump\t// out\n        /* \"#utility.yul\":10046:10412   */\n    tag_134:\n        /* \"#utility.yul\":10188:10191   */\n      0x00\n        /* \"#utility.yul\":10209:10276   */\n      tag_236\n        /* \"#utility.yul\":10273:10275   */\n      0x29\n        /* \"#utility.yul\":10268:10271   */\n      dup4\n        /* \"#utility.yul\":10209:10276   */\n      tag_121\n      jump\t// in\n    tag_236:\n        /* \"#utility.yul\":10202:10276   */\n      swap2\n      pop\n        /* \"#utility.yul\":10285:10378   */\n      tag_237\n        /* \"#utility.yul\":10374:10377   */\n      dup3\n        /* \"#utility.yul\":10285:10378   */\n      tag_133\n      jump\t// in\n    tag_237:\n        /* \"#utility.yul\":10403:10405   */\n      0x40\n        /* \"#utility.yul\":10398:10401   */\n      dup3\n        /* \"#utility.yul\":10394:10406   */\n      add\n        /* \"#utility.yul\":10387:10406   */\n      swap1\n      pop\n        /* \"#utility.yul\":10046:10412   */\n      swap2\n      swap1\n      pop\n      jump\t// out\n        /* \"#utility.yul\":10418:10837   */\n    tag_74:\n        /* \"#utility.yul\":10584:10588   */\n      0x00\n        /* \"#utility.yul\":10622:10624   */\n      0x20\n        /* \"#utility.yul\":10611:10620   */\n      dup3\n        /* \"#utility.yul\":10607:10625   */\n      add\n        /* \"#utility.yul\":10599:10625   */\n      swap1\n      pop\n        /* \"#utility.yul\":10671:10680   */\n      dup2\n        /* \"#utility.yul\":10665:10669   */\n      dup2\n        /* \"#utility.yul\":10661:10681   */\n      sub\n        /* \"#utility.yul\":10657:10658   */\n      0x00\n        /* \"#utility.yul\":10646:10655   */\n      dup4\n        /* \"#utility.yul\":10642:10659   */\n      add\n        /* \"#utility.yul\":10635:10682   */\n      mstore\n        /* \"#utility.yul\":10699:10830   */\n      tag_239\n        /* \"#utility.yul\":10825:10829   */\n      dup2\n        /* \"#utility.yul\":10699:10830   */\n      tag_134\n      jump\t// in\n    tag_239:\n        /* \"#utility.yul\":10691:10830   */\n      swap1\n      pop\n        /* \"#utility.yul\":10418:10837   */\n      swap2\n      swap1\n      pop\n      jump\t// out\n        /* \"#utility.yul\":10843:11014   */\n    tag_135:\n        /* \"#utility.yul\":10983:11006   */\n      0x546172676574206973206e6f7420726561636865640000000000000000000000\n        /* \"#utility.yul\":10979:10980   */\n      0x00\n        /* \"#utility.yul\":10971:10977   */\n      dup3\n        /* \"#utility.yul\":10967:10981   */\n      add\n        /* \"#utility.yul\":10960:11007   */\n      mstore\n        /* \"#utility.yul\":10843:11014   */\n      pop\n      jump\t// out\n        /* \"#utility.yul\":11020:11386   */\n    tag_136:\n        /* \"#utility.yul\":11162:11165   */\n      0x00\n        /* \"#utility.yul\":11183:11250   */\n      tag_242\n        /* \"#utility.yul\":11247:11249   */\n      0x15\n        /* \"#utility.yul\":11242:11245   */\n      dup4\n        /* \"#utility.yul\":11183:11250   */\n      tag_121\n      jump\t// in\n    tag_242:\n        /* \"#utility.yul\":11176:11250   */\n      swap2\n      pop\n        /* \"#utility.yul\":11259:11352   */\n      tag_243\n        /* \"#utility.yul\":11348:11351   */\n      dup3\n        /* \"#utility.yul\":11259:11352   */\n      tag_135\n      jump\t// in\n    tag_243:\n        /* \"#utility.yul\":11377:11379   */\n      0x20\n        /* \"#utility.yul\":11372:11375   */\n      dup3\n        /* \"#utility.yul\":11368:11380   */\n      add\n        /* \"#utility.yul\":11361:11380   */\n      swap1\n      pop\n        /* \"#utility.yul\":11020:11386   */\n      swap2\n      swap1\n      pop\n      jump\t// out\n        /* \"#utility.yul\":11392:11811   */\n    tag_79:\n        /* \"#utility.yul\":11558:11562   */\n      0x00\n        /* \"#utility.yul\":11596:11598   */\n      0x20\n        /* \"#utility.yul\":11585:11594   */\n      dup3\n        /* \"#utility.yul\":11581:11599   */\n      add\n        /* \"#utility.yul\":11573:11599   */\n      swap1\n      pop\n        /* \"#utility.yul\":11645:11654   */\n      dup2\n        /* \"#utility.yul\":11639:11643   */\n      dup2\n        /* \"#utility.yul\":11635:11655   */\n      sub\n        /* \"#utility.yul\":11631:11632   */\n      0x00\n        /* \"#utility.yul\":11620:11629   */\n      dup4\n        /* \"#utility.yul\":11616:11633   */\n      add\n        /* \"#utility.yul\":11609:11656   */\n      mstore\n        /* \"#utility.yul\":11673:11804   */\n      tag_245\n        /* \"#utility.yul\":11799:11803   */\n      dup2\n        /* \"#utility.yul\":11673:11804   */\n      tag_136\n      jump\t// in\n    tag_245:\n        /* \"#utility.yul\":11665:11804   */\n      swap1\n      pop\n        /* \"#utility.yul\":11392:11811   */\n      swap2\n      swap1\n      pop\n      jump\t// out\n        /* \"#utility.yul\":11817:11983   */\n    tag_137:\n        /* \"#utility.yul\":11957:11975   */\n      0x77696e646f7720697320636c6f73656400000000000000000000000000000000\n        /* \"#utility.yul\":11953:11954   */\n      0x00\n        /* \"#utility.yul\":11945:11951   */\n      dup3\n        /* \"#utility.yul\":11941:11955   */\n      add\n        /* \"#utility.yul\":11934:11976   */\n      mstore\n        /* \"#utility.yul\":11817:11983   */\n      pop\n      jump\t// out\n        /* \"#utility.yul\":11989:12355   */\n    tag_138:\n        /* \"#utility.yul\":12131:12134   */\n      0x00\n        /* \"#utility.yul\":12152:12219   */\n      tag_248\n        /* \"#utility.yul\":12216:12218   */\n      0x10\n        /* \"#utility.yul\":12211:12214   */\n      dup4\n        /* \"#utility.yul\":12152:12219   */\n      tag_121\n      jump\t// in\n    tag_248:\n        /* \"#utility.yul\":12145:12219   */\n      swap2\n      pop\n        /* \"#utility.yul\":12228:12321   */\n      tag_249\n        /* \"#utility.yul\":12317:12320   */\n      dup3\n        /* \"#utility.yul\":12228:12321   */\n      tag_137\n      jump\t// in\n    tag_249:\n        /* \"#utility.yul\":12346:12348   */\n      0x20\n        /* \"#utility.yul\":12341:12344   */\n      dup3\n        /* \"#utility.yul\":12337:12349   */\n      add\n        /* \"#utility.yul\":12330:12349   */\n      swap1\n      pop\n        /* \"#utility.yul\":11989:12355   */\n      swap2\n      swap1\n      pop\n      jump\t// out\n        /* \"#utility.yul\":12361:12780   */\n    tag_86:\n        /* \"#utility.yul\":12527:12531   */\n      0x00\n        /* \"#utility.yul\":12565:12567   */\n      0x20\n        /* \"#utility.yul\":12554:12563   */\n      dup3\n        /* \"#utility.yul\":12550:12568   */\n      add\n        /* \"#utility.yul\":12542:12568   */\n      swap1\n      pop\n        /* \"#utility.yul\":12614:12623   */\n      dup2\n        /* \"#utility.yul\":12608:12612   */\n      dup2\n        /* \"#utility.yul\":12604:12624   */\n      sub\n        /* \"#utility.yul\":12600:12601   */\n      0x00\n        /* \"#utility.yul\":12589:12598   */\n      dup4\n        /* \"#utility.yul\":12585:12602   */\n      add\n        /* \"#utility.yul\":12578:12625   */\n      mstore\n        /* \"#utility.yul\":12642:12773   */\n      tag_251\n        /* \"#utility.yul\":12768:12772   */\n      dup2\n        /* \"#utility.yul\":12642:12773   */\n      tag_138\n      jump\t// in\n    tag_251:\n        /* \"#utility.yul\":12634:12773   */\n      swap1\n      pop\n        /* \"#utility.yul\":12361:12780   */\n      swap2\n      swap1\n      pop\n      jump\t// out\n        /* \"#utility.yul\":12786:12949   */\n    tag_139:\n        /* \"#utility.yul\":12926:12941   */\n      0x53656e64206d6f72652045544800000000000000000000000000000000000000\n        /* \"#utility.yul\":12922:12923   */\n      0x00\n        /* \"#utility.yul\":12914:12920   */\n      dup3\n        /* \"#utility.yul\":12910:12924   */\n      add\n        /* \"#utility.yul\":12903:12942   */\n      mstore\n        /* \"#utility.yul\":12786:12949   */\n      pop\n      jump\t// out\n        /* \"#utility.yul\":12955:13321   */\n    tag_140:\n        /* \"#utility.yul\":13097:13100   */\n      0x00\n        /* \"#utility.yul\":13118:13185   */\n      tag_254\n        /* \"#utility.yul\":13182:13184   */\n      0x0d\n        /* \"#utility.yul\":13177:13180   */\n      dup4\n        /* \"#utility.yul\":13118:13185   */\n      tag_121\n      jump\t// in\n    tag_254:\n        /* \"#utility.yul\":13111:13185   */\n      swap2\n      pop\n        /* \"#utility.yul\":13194:13287   */\n      tag_255\n        /* \"#utility.yul\":13283:13286   */\n      dup3\n        /* \"#utility.yul\":13194:13287   */\n      tag_139\n      jump\t// in\n    tag_255:\n        /* \"#utility.yul\":13312:13314   */\n      0x20\n        /* \"#utility.yul\":13307:13310   */\n      dup3\n        /* \"#utility.yul\":13303:13315   */\n      add\n        /* \"#utility.yul\":13296:13315   */\n      swap1\n      pop\n        /* \"#utility.yul\":12955:13321   */\n      swap2\n      swap1\n      pop\n      jump\t// out\n        /* \"#utility.yul\":13327:13746   */\n    tag_90:\n        /* \"#utility.yul\":13493:13497   */\n      0x00\n        /* \"#utility.yul\":13531:13533   */\n      0x20\n        /* \"#utility.yul\":13520:13529   */\n      dup3\n        /* \"#utility.yul\":13516:13534   */\n      add\n        /* \"#utility.yul\":13508:13534   */\n      swap1\n      pop\n        /* \"#utility.yul\":13580:13589   */\n      dup2\n        /* \"#utility.yul\":13574:13578   */\n      dup2\n        /* \"#utility.yul\":13570:13590   */\n      sub\n        /* \"#utility.yul\":13566:13567   */\n      0x00\n        /* \"#utility.yul\":13555:13564   */\n      dup4\n        /* \"#utility.yul\":13551:13568   */\n      add\n        /* \"#utility.yul\":13544:13591   */\n      mstore\n        /* \"#utility.yul\":13608:13739   */\n      tag_257\n        /* \"#utility.yul\":13734:13738   */\n      dup2\n        /* \"#utility.yul\":13608:13739   */\n      tag_140\n      jump\t// in\n    tag_257:\n        /* \"#utility.yul\":13600:13739   */\n      swap1\n      pop\n        /* \"#utility.yul\":13327:13746   */\n      swap2\n      swap1\n      pop\n      jump\t// out\n        /* \"#utility.yul\":13752:14162   */\n    tag_98:\n        /* \"#utility.yul\":13792:13799   */\n      0x00\n        /* \"#utility.yul\":13815:13835   */\n      tag_259\n        /* \"#utility.yul\":13833:13834   */\n      dup3\n        /* \"#utility.yul\":13815:13835   */\n      tag_108\n      jump\t// in\n    tag_259:\n        /* \"#utility.yul\":13810:13835   */\n      swap2\n      pop\n        /* \"#utility.yul\":13849:13869   */\n      tag_260\n        /* \"#utility.yul\":13867:13868   */\n      dup4\n        /* \"#utility.yul\":13849:13869   */\n      tag_108\n      jump\t// in\n    tag_260:\n        /* \"#utility.yul\":13844:13869   */\n      swap3\n      pop\n        /* \"#utility.yul\":13904:13905   */\n      dup3\n        /* \"#utility.yul\":13901:13902   */\n      dup3\n        /* \"#utility.yul\":13897:13906   */\n      mul\n        /* \"#utility.yul\":13926:13956   */\n      tag_261\n        /* \"#utility.yul\":13944:13955   */\n      dup2\n        /* \"#utility.yul\":13926:13956   */\n      tag_108\n      jump\t// in\n    tag_261:\n        /* \"#utility.yul\":13915:13956   */\n      swap2\n      pop\n        /* \"#utility.yul\":14105:14106   */\n      dup3\n        /* \"#utility.yul\":14096:14103   */\n      dup3\n        /* \"#utility.yul\":14092:14107   */\n      div\n        /* \"#utility.yul\":14089:14090   */\n      dup5\n        /* \"#utility.yul\":14086:14108   */\n      eq\n        /* \"#utility.yul\":14066:14067   */\n      dup4\n        /* \"#utility.yul\":14059:14068   */\n      iszero\n        /* \"#utility.yul\":14039:14122   */\n      or\n        /* \"#utility.yul\":14016:14155   */\n      tag_262\n      jumpi\n        /* \"#utility.yul\":14135:14153   */\n      tag_263\n      tag_120\n      jump\t// in\n    tag_263:\n        /* \"#utility.yul\":14016:14155   */\n    tag_262:\n        /* \"#utility.yul\":13800:14162   */\n      pop\n        /* \"#utility.yul\":13752:14162   */\n      swap3\n      swap2\n      pop\n      pop\n      jump\t// out\n        /* \"#utility.yul\":14168:14348   */\n    tag_141:\n        /* \"#utility.yul\":14216:14293   */\n      0x4e487b7100000000000000000000000000000000000000000000000000000000\n        /* \"#utility.yul\":14213:14214   */\n      0x00\n        /* \"#utility.yul\":14206:14294   */\n      mstore\n        /* \"#utility.yul\":14313:14317   */\n      0x12\n        /* \"#utility.yul\":14310:14311   */\n      0x04\n        /* \"#utility.yul\":14303:14318   */\n      mstore\n        /* \"#utility.yul\":14337:14341   */\n      0x24\n        /* \"#utility.yul\":14334:14335   */\n      0x00\n        /* \"#utility.yul\":14327:14342   */\n      revert\n        /* \"#utility.yul\":14354:14539   */\n    tag_100:\n        /* \"#utility.yul\":14394:14395   */\n      0x00\n        /* \"#utility.yul\":14411:14431   */\n      tag_266\n        /* \"#utility.yul\":14429:14430   */\n      dup3\n        /* \"#utility.yul\":14411:14431   */\n      tag_108\n      jump\t// in\n    tag_266:\n        /* \"#utility.yul\":14406:14431   */\n      swap2\n      pop\n        /* \"#utility.yul\":14445:14465   */\n      tag_267\n        /* \"#utility.yul\":14463:14464   */\n      dup4\n        /* \"#utility.yul\":14445:14465   */\n      tag_108\n      jump\t// in\n    tag_267:\n        /* \"#utility.yul\":14440:14465   */\n      swap3\n      pop\n        /* \"#utility.yul\":14484:14485   */\n      dup3\n        /* \"#utility.yul\":14474:14509   */\n      tag_268\n      jumpi\n        /* \"#utility.yul\":14489:14507   */\n      tag_269\n      tag_141\n      jump\t// in\n    tag_269:\n        /* \"#utility.yul\":14474:14509   */\n    tag_268:\n        /* \"#utility.yul\":14531:14532   */\n      dup3\n        /* \"#utility.yul\":14528:14529   */\n      dup3\n        /* \"#utility.yul\":14524:14533   */\n      div\n        /* \"#utility.yul\":14519:14533   */\n      swap1\n      pop\n        /* \"#utility.yul\":14354:14539   */\n      swap3\n      swap2\n      pop\n      pop\n      jump\t// out\n\n    auxdata: 0xa26469706673582212204fec358cbdcfca2a87b85349e5de9973e753617adedef8d7d3904345f1b8f9bb64736f6c634300081a0033\n}\n",
				"bytecode": {
					"linkReferences": {},
					"object": "608060405234801561000f575f80fd5b5060405161104238038061104283398181016040528101906100319190610110565b73694aa1769357215de4fac081bf1f309adc32530660015f6101000a81548173ffffffffffffffffffffffffffffffffffffffff021916908373ffffffffffffffffffffffffffffffffffffffff1602179055503360025f6101000a81548173ffffffffffffffffffffffffffffffffffffffff021916908373ffffffffffffffffffffffffffffffffffffffff16021790555042600381905550806004819055505061013b565b5f80fd5b5f819050919050565b6100ef816100dd565b81146100f9575f80fd5b50565b5f8151905061010a816100e6565b92915050565b5f60208284031215610125576101246100d9565b5b5f610132848285016100fc565b91505092915050565b610efa806101485f395ff3fe60806040526004361061006f575f3560e01c80638da5cb5b1161004d5780638da5cb5b146100ef5780638edd6eb614610119578063b60d42881461012f578063f2fde38b146101395761006f565b80634407e1e81461007357806357edc0a5146100af578063590e1ae3146100d9575b5f80fd5b34801561007e575f80fd5b5061009960048036038101906100949190610850565b610161565b6040516100a69190610893565b60405180910390f35b3480156100ba575f80fd5b506100c3610175565b6040516100d091906108c4565b60405180910390f35b3480156100e4575f80fd5b506100ed610212565b005b3480156100fa575f80fd5b50610103610428565b60405161011091906108ec565b60405180910390f35b348015610124575f80fd5b5061012d61044d565b005b610137610609565b005b348015610144575f80fd5b5061015f600480360381019061015a9190610850565b6106f1565b005b5f602052805f5260405f205f915090505481565b5f8060015f9054906101000a900473ffffffffffffffffffffffffffffffffffffffff1673ffffffffffffffffffffffffffffffffffffffff1663feaf968c6040518163ffffffff1660e01b815260040160a060405180830381865afa1580156101e1573d5f803e3d5ffd5b505050506040513d601f19601f820116820180604052508101906102059190610998565b5050509150508091505090565b6004546003546102229190610a3c565b421015610264576040517f08c379a000000000000000000000000000000000000000000000000000000000815260040161025b90610ac9565b60405180910390fd5b683635c9adc5dea00000610277476107c3565b106102b7576040517f08c379a00000000000000000000000000000000000000000000000000000000081526004016102ae90610b31565b60405180910390fd5b5f805f3373ffffffffffffffffffffffffffffffffffffffff1673ffffffffffffffffffffffffffffffffffffffff1681526020019081526020015f205490505f8103610339576040517f08c379a000000000000000000000000000000000000000000000000000000000815260040161033090610b99565b60405180910390fd5b5f3373ffffffffffffffffffffffffffffffffffffffff164760405161035e90610be4565b5f6040518083038185875af1925050503d805f8114610398576040519150601f19603f3d011682016040523d82523d5f602084013e61039d565b606091505b505080915050806103e3576040517f08c379a00000000000000000000000000000000000000000000000000000000081526004016103da90610c42565b60405180910390fd5b5f805f3373ffffffffffffffffffffffffffffffffffffffff1673ffffffffffffffffffffffffffffffffffffffff1681526020019081526020015f20819055505050565b60025f9054906101000a900473ffffffffffffffffffffffffffffffffffffffff1681565b60045460035461045d9190610a3c565b42101561049f576040517f08c379a000000000000000000000000000000000000000000000000000000000815260040161049690610ac9565b60405180910390fd5b60025f9054906101000a900473ffffffffffffffffffffffffffffffffffffffff1673ffffffffffffffffffffffffffffffffffffffff163373ffffffffffffffffffffffffffffffffffffffff161461052e576040517f08c379a000000000000000000000000000000000000000000000000000000000815260040161052590610cd0565b60405180910390fd5b683635c9adc5dea00000610541476107c3565b1015610582576040517f08c379a000000000000000000000000000000000000000000000000000000000815260040161057990610d38565b60405180910390fd5b3373ffffffffffffffffffffffffffffffffffffffff166108fc4790811502906040515f60405180830381858888f193505050501580156105c5573d5f803e3d5ffd5b505f805f3373ffffffffffffffffffffffffffffffffffffffff1673ffffffffffffffffffffffffffffffffffffffff1681526020019081526020015f2081905550565b6004546003546106199190610a3c565b421061065a576040517f08c379a000000000000000000000000000000000000000000000000000000000815260040161065190610da0565b60405180910390fd5b68056bc75e2d6310000061066d346107c3565b10156106ae576040517f08c379a00000000000000000000000000000000000000000000000000000000081526004016106a590610e08565b60405180910390fd5b345f803373ffffffffffffffffffffffffffffffffffffffff1673ffffffffffffffffffffffffffffffffffffffff1681526020019081526020015f2081905550565b60025f9054906101000a900473ffffffffffffffffffffffffffffffffffffffff1673ffffffffffffffffffffffffffffffffffffffff163373ffffffffffffffffffffffffffffffffffffffff1614610780576040517f08c379a000000000000000000000000000000000000000000000000000000000815260040161077790610cd0565b60405180910390fd5b8060025f6101000a81548173ffffffffffffffffffffffffffffffffffffffff021916908373ffffffffffffffffffffffffffffffffffffffff16021790555050565b5f806107cd610175565b90506305f5e10081846107e09190610e26565b6107ea9190610e94565b915050919050565b5f80fd5b5f73ffffffffffffffffffffffffffffffffffffffff82169050919050565b5f61081f826107f6565b9050919050565b61082f81610815565b8114610839575f80fd5b50565b5f8135905061084a81610826565b92915050565b5f60208284031215610865576108646107f2565b5b5f6108728482850161083c565b91505092915050565b5f819050919050565b61088d8161087b565b82525050565b5f6020820190506108a65f830184610884565b92915050565b5f819050919050565b6108be816108ac565b82525050565b5f6020820190506108d75f8301846108b5565b92915050565b6108e681610815565b82525050565b5f6020820190506108ff5f8301846108dd565b92915050565b5f69ffffffffffffffffffff82169050919050565b61092381610905565b811461092d575f80fd5b50565b5f8151905061093e8161091a565b92915050565b61094d816108ac565b8114610957575f80fd5b50565b5f8151905061096881610944565b92915050565b6109778161087b565b8114610981575f80fd5b50565b5f815190506109928161096e565b92915050565b5f805f805f60a086880312156109b1576109b06107f2565b5b5f6109be88828901610930565b95505060206109cf8882890161095a565b94505060406109e088828901610984565b93505060606109f188828901610984565b9250506080610a0288828901610930565b9150509295509295909350565b7f4e487b71000000000000000000000000000000000000000000000000000000005f52601160045260245ffd5b5f610a468261087b565b9150610a518361087b565b9250828201905080821115610a6957610a68610a0f565b5b92915050565b5f82825260208201905092915050565b7f77696e646f77206973206e6f7420636c6f7365640000000000000000000000005f82015250565b5f610ab3601483610a6f565b9150610abe82610a7f565b602082019050919050565b5f6020820190508181035f830152610ae081610aa7565b9050919050565b7f54617267657420697320726561636865640000000000000000000000000000005f82015250565b5f610b1b601183610a6f565b9150610b2682610ae7565b602082019050919050565b5f6020820190508181035f830152610b4881610b0f565b9050919050565b7f7468657265206973206e6f2066756e6420666f7220796f7500000000000000005f82015250565b5f610b83601883610a6f565b9150610b8e82610b4f565b602082019050919050565b5f6020820190508181035f830152610bb081610b77565b9050919050565b5f81905092915050565b50565b5f610bcf5f83610bb7565b9150610bda82610bc1565b5f82019050919050565b5f610bee82610bc4565b9150819050919050565b7f7472616e73666572207478206661696c656400000000000000000000000000005f82015250565b5f610c2c601283610a6f565b9150610c3782610bf8565b602082019050919050565b5f6020820190508181035f830152610c5981610c20565b9050919050565b7f746869732066756e6374696f6e2063616e206f6e6c792062652063616c6c65645f8201527f206279206f776e65720000000000000000000000000000000000000000000000602082015250565b5f610cba602983610a6f565b9150610cc582610c60565b604082019050919050565b5f6020820190508181035f830152610ce781610cae565b9050919050565b7f546172676574206973206e6f74207265616368656400000000000000000000005f82015250565b5f610d22601583610a6f565b9150610d2d82610cee565b602082019050919050565b5f6020820190508181035f830152610d4f81610d16565b9050919050565b7f77696e646f7720697320636c6f736564000000000000000000000000000000005f82015250565b5f610d8a601083610a6f565b9150610d9582610d56565b602082019050919050565b5f6020820190508181035f830152610db781610d7e565b9050919050565b7f53656e64206d6f726520455448000000000000000000000000000000000000005f82015250565b5f610df2600d83610a6f565b9150610dfd82610dbe565b602082019050919050565b5f6020820190508181035f830152610e1f81610de6565b9050919050565b5f610e308261087b565b9150610e3b8361087b565b9250828202610e498161087b565b91508282048414831517610e6057610e5f610a0f565b5b5092915050565b7f4e487b71000000000000000000000000000000000000000000000000000000005f52601260045260245ffd5b5f610e9e8261087b565b9150610ea98361087b565b925082610eb957610eb8610e67565b5b82820490509291505056fea26469706673582212204fec358cbdcfca2a87b85349e5de9973e753617adedef8d7d3904345f1b8f9bb64736f6c634300081a0033",
					"opcodes": "PUSH1 0x80 PUSH1 0x40 MSTORE CALLVALUE DUP1 ISZERO PUSH2 0xF JUMPI PUSH0 DUP1 REVERT JUMPDEST POP PUSH1 0x40 MLOAD PUSH2 0x1042 CODESIZE SUB DUP1 PUSH2 0x1042 DUP4 CODECOPY DUP2 DUP2 ADD PUSH1 0x40 MSTORE DUP2 ADD SWAP1 PUSH2 0x31 SWAP2 SWAP1 PUSH2 0x110 JUMP JUMPDEST PUSH20 0x694AA1769357215DE4FAC081BF1F309ADC325306 PUSH1 0x1 PUSH0 PUSH2 0x100 EXP DUP2 SLOAD DUP2 PUSH20 0xFFFFFFFFFFFFFFFFFFFFFFFFFFFFFFFFFFFFFFFF MUL NOT AND SWAP1 DUP4 PUSH20 0xFFFFFFFFFFFFFFFFFFFFFFFFFFFFFFFFFFFFFFFF AND MUL OR SWAP1 SSTORE POP CALLER PUSH1 0x2 PUSH0 PUSH2 0x100 EXP DUP2 SLOAD DUP2 PUSH20 0xFFFFFFFFFFFFFFFFFFFFFFFFFFFFFFFFFFFFFFFF MUL NOT AND SWAP1 DUP4 PUSH20 0xFFFFFFFFFFFFFFFFFFFFFFFFFFFFFFFFFFFFFFFF AND MUL OR SWAP1 SSTORE POP TIMESTAMP PUSH1 0x3 DUP2 SWAP1 SSTORE POP DUP1 PUSH1 0x4 DUP2 SWAP1 SSTORE POP POP PUSH2 0x13B JUMP JUMPDEST PUSH0 DUP1 REVERT JUMPDEST PUSH0 DUP2 SWAP1 POP SWAP2 SWAP1 POP JUMP JUMPDEST PUSH2 0xEF DUP2 PUSH2 0xDD JUMP JUMPDEST DUP2 EQ PUSH2 0xF9 JUMPI PUSH0 DUP1 REVERT JUMPDEST POP JUMP JUMPDEST PUSH0 DUP2 MLOAD SWAP1 POP PUSH2 0x10A DUP2 PUSH2 0xE6 JUMP JUMPDEST SWAP3 SWAP2 POP POP JUMP JUMPDEST PUSH0 PUSH1 0x20 DUP3 DUP5 SUB SLT ISZERO PUSH2 0x125 JUMPI PUSH2 0x124 PUSH2 0xD9 JUMP JUMPDEST JUMPDEST PUSH0 PUSH2 0x132 DUP5 DUP3 DUP6 ADD PUSH2 0xFC JUMP JUMPDEST SWAP2 POP POP SWAP3 SWAP2 POP POP JUMP JUMPDEST PUSH2 0xEFA DUP1 PUSH2 0x148 PUSH0 CODECOPY PUSH0 RETURN INVALID PUSH1 0x80 PUSH1 0x40 MSTORE PUSH1 0x4 CALLDATASIZE LT PUSH2 0x6F JUMPI PUSH0 CALLDATALOAD PUSH1 0xE0 SHR DUP1 PUSH4 0x8DA5CB5B GT PUSH2 0x4D JUMPI DUP1 PUSH4 0x8DA5CB5B EQ PUSH2 0xEF JUMPI DUP1 PUSH4 0x8EDD6EB6 EQ PUSH2 0x119 JUMPI DUP1 PUSH4 0xB60D4288 EQ PUSH2 0x12F JUMPI DUP1 PUSH4 0xF2FDE38B EQ PUSH2 0x139 JUMPI PUSH2 0x6F JUMP JUMPDEST DUP1 PUSH4 0x4407E1E8 EQ PUSH2 0x73 JUMPI DUP1 PUSH4 0x57EDC0A5 EQ PUSH2 0xAF JUMPI DUP1 PUSH4 0x590E1AE3 EQ PUSH2 0xD9 JUMPI JUMPDEST PUSH0 DUP1 REVERT JUMPDEST CALLVALUE DUP1 ISZERO PUSH2 0x7E JUMPI PUSH0 DUP1 REVERT JUMPDEST POP PUSH2 0x99 PUSH1 0x4 DUP1 CALLDATASIZE SUB DUP2 ADD SWAP1 PUSH2 0x94 SWAP2 SWAP1 PUSH2 0x850 JUMP JUMPDEST PUSH2 0x161 JUMP JUMPDEST PUSH1 0x40 MLOAD PUSH2 0xA6 SWAP2 SWAP1 PUSH2 0x893 JUMP JUMPDEST PUSH1 0x40 MLOAD DUP1 SWAP2 SUB SWAP1 RETURN JUMPDEST CALLVALUE DUP1 ISZERO PUSH2 0xBA JUMPI PUSH0 DUP1 REVERT JUMPDEST POP PUSH2 0xC3 PUSH2 0x175 JUMP JUMPDEST PUSH1 0x40 MLOAD PUSH2 0xD0 SWAP2 SWAP1 PUSH2 0x8C4 JUMP JUMPDEST PUSH1 0x40 MLOAD DUP1 SWAP2 SUB SWAP1 RETURN JUMPDEST CALLVALUE DUP1 ISZERO PUSH2 0xE4 JUMPI PUSH0 DUP1 REVERT JUMPDEST POP PUSH2 0xED PUSH2 0x212 JUMP JUMPDEST STOP JUMPDEST CALLVALUE DUP1 ISZERO PUSH2 0xFA JUMPI PUSH0 DUP1 REVERT JUMPDEST POP PUSH2 0x103 PUSH2 0x428 JUMP JUMPDEST PUSH1 0x40 MLOAD PUSH2 0x110 SWAP2 SWAP1 PUSH2 0x8EC JUMP JUMPDEST PUSH1 0x40 MLOAD DUP1 SWAP2 SUB SWAP1 RETURN JUMPDEST CALLVALUE DUP1 ISZERO PUSH2 0x124 JUMPI PUSH0 DUP1 REVERT JUMPDEST POP PUSH2 0x12D PUSH2 0x44D JUMP JUMPDEST STOP JUMPDEST PUSH2 0x137 PUSH2 0x609 JUMP JUMPDEST STOP JUMPDEST CALLVALUE DUP1 ISZERO PUSH2 0x144 JUMPI PUSH0 DUP1 REVERT JUMPDEST POP PUSH2 0x15F PUSH1 0x4 DUP1 CALLDATASIZE SUB DUP2 ADD SWAP1 PUSH2 0x15A SWAP2 SWAP1 PUSH2 0x850 JUMP JUMPDEST PUSH2 0x6F1 JUMP JUMPDEST STOP JUMPDEST PUSH0 PUSH1 0x20 MSTORE DUP1 PUSH0 MSTORE PUSH1 0x40 PUSH0 KECCAK256 PUSH0 SWAP2 POP SWAP1 POP SLOAD DUP2 JUMP JUMPDEST PUSH0 DUP1 PUSH1 0x1 PUSH0 SWAP1 SLOAD SWAP1 PUSH2 0x100 EXP SWAP1 DIV PUSH20 0xFFFFFFFFFFFFFFFFFFFFFFFFFFFFFFFFFFFFFFFF AND PUSH20 0xFFFFFFFFFFFFFFFFFFFFFFFFFFFFFFFFFFFFFFFF AND PUSH4 0xFEAF968C PUSH1 0x40 MLOAD DUP2 PUSH4 0xFFFFFFFF AND PUSH1 0xE0 SHL DUP2 MSTORE PUSH1 0x4 ADD PUSH1 0xA0 PUSH1 0x40 MLOAD DUP1 DUP4 SUB DUP2 DUP7 GAS STATICCALL ISZERO DUP1 ISZERO PUSH2 0x1E1 JUMPI RETURNDATASIZE PUSH0 DUP1 RETURNDATACOPY RETURNDATASIZE PUSH0 REVERT JUMPDEST POP POP POP POP PUSH1 0x40 MLOAD RETURNDATASIZE PUSH1 0x1F NOT PUSH1 0x1F DUP3 ADD AND DUP3 ADD DUP1 PUSH1 0x40 MSTORE POP DUP2 ADD SWAP1 PUSH2 0x205 SWAP2 SWAP1 PUSH2 0x998 JUMP JUMPDEST POP POP POP SWAP2 POP POP DUP1 SWAP2 POP POP SWAP1 JUMP JUMPDEST PUSH1 0x4 SLOAD PUSH1 0x3 SLOAD PUSH2 0x222 SWAP2 SWAP1 PUSH2 0xA3C JUMP JUMPDEST TIMESTAMP LT ISZERO PUSH2 0x264 JUMPI PUSH1 0x40 MLOAD PUSH32 0x8C379A000000000000000000000000000000000000000000000000000000000 DUP2 MSTORE PUSH1 0x4 ADD PUSH2 0x25B SWAP1 PUSH2 0xAC9 JUMP JUMPDEST PUSH1 0x40 MLOAD DUP1 SWAP2 SUB SWAP1 REVERT JUMPDEST PUSH9 0x3635C9ADC5DEA00000 PUSH2 0x277 SELFBALANCE PUSH2 0x7C3 JUMP JUMPDEST LT PUSH2 0x2B7 JUMPI PUSH1 0x40 MLOAD PUSH32 0x8C379A000000000000000000000000000000000000000000000000000000000 DUP2 MSTORE PUSH1 0x4 ADD PUSH2 0x2AE SWAP1 PUSH2 0xB31 JUMP JUMPDEST PUSH1 0x40 MLOAD DUP1 SWAP2 SUB SWAP1 REVERT JUMPDEST PUSH0 DUP1 PUSH0 CALLER PUSH20 0xFFFFFFFFFFFFFFFFFFFFFFFFFFFFFFFFFFFFFFFF AND PUSH20 0xFFFFFFFFFFFFFFFFFFFFFFFFFFFFFFFFFFFFFFFF AND DUP2 MSTORE PUSH1 0x20 ADD SWAP1 DUP2 MSTORE PUSH1 0x20 ADD PUSH0 KECCAK256 SLOAD SWAP1 POP PUSH0 DUP2 SUB PUSH2 0x339 JUMPI PUSH1 0x40 MLOAD PUSH32 0x8C379A000000000000000000000000000000000000000000000000000000000 DUP2 MSTORE PUSH1 0x4 ADD PUSH2 0x330 SWAP1 PUSH2 0xB99 JUMP JUMPDEST PUSH1 0x40 MLOAD DUP1 SWAP2 SUB SWAP1 REVERT JUMPDEST PUSH0 CALLER PUSH20 0xFFFFFFFFFFFFFFFFFFFFFFFFFFFFFFFFFFFFFFFF AND SELFBALANCE PUSH1 0x40 MLOAD PUSH2 0x35E SWAP1 PUSH2 0xBE4 JUMP JUMPDEST PUSH0 PUSH1 0x40 MLOAD DUP1 DUP4 SUB DUP2 DUP6 DUP8 GAS CALL SWAP3 POP POP POP RETURNDATASIZE DUP1 PUSH0 DUP2 EQ PUSH2 0x398 JUMPI PUSH1 0x40 MLOAD SWAP2 POP PUSH1 0x1F NOT PUSH1 0x3F RETURNDATASIZE ADD AND DUP3 ADD PUSH1 0x40 MSTORE RETURNDATASIZE DUP3 MSTORE RETURNDATASIZE PUSH0 PUSH1 0x20 DUP5 ADD RETURNDATACOPY PUSH2 0x39D JUMP JUMPDEST PUSH1 0x60 SWAP2 POP JUMPDEST POP POP DUP1 SWAP2 POP POP DUP1 PUSH2 0x3E3 JUMPI PUSH1 0x40 MLOAD PUSH32 0x8C379A000000000000000000000000000000000000000000000000000000000 DUP2 MSTORE PUSH1 0x4 ADD PUSH2 0x3DA SWAP1 PUSH2 0xC42 JUMP JUMPDEST PUSH1 0x40 MLOAD DUP1 SWAP2 SUB SWAP1 REVERT JUMPDEST PUSH0 DUP1 PUSH0 CALLER PUSH20 0xFFFFFFFFFFFFFFFFFFFFFFFFFFFFFFFFFFFFFFFF AND PUSH20 0xFFFFFFFFFFFFFFFFFFFFFFFFFFFFFFFFFFFFFFFF AND DUP2 MSTORE PUSH1 0x20 ADD SWAP1 DUP2 MSTORE PUSH1 0x20 ADD PUSH0 KECCAK256 DUP2 SWAP1 SSTORE POP POP POP JUMP JUMPDEST PUSH1 0x2 PUSH0 SWAP1 SLOAD SWAP1 PUSH2 0x100 EXP SWAP1 DIV PUSH20 0xFFFFFFFFFFFFFFFFFFFFFFFFFFFFFFFFFFFFFFFF AND DUP2 JUMP JUMPDEST PUSH1 0x4 SLOAD PUSH1 0x3 SLOAD PUSH2 0x45D SWAP2 SWAP1 PUSH2 0xA3C JUMP JUMPDEST TIMESTAMP LT ISZERO PUSH2 0x49F JUMPI PUSH1 0x40 MLOAD PUSH32 0x8C379A000000000000000000000000000000000000000000000000000000000 DUP2 MSTORE PUSH1 0x4 ADD PUSH2 0x496 SWAP1 PUSH2 0xAC9 JUMP JUMPDEST PUSH1 0x40 MLOAD DUP1 SWAP2 SUB SWAP1 REVERT JUMPDEST PUSH1 0x2 PUSH0 SWAP1 SLOAD SWAP1 PUSH2 0x100 EXP SWAP1 DIV PUSH20 0xFFFFFFFFFFFFFFFFFFFFFFFFFFFFFFFFFFFFFFFF AND PUSH20 0xFFFFFFFFFFFFFFFFFFFFFFFFFFFFFFFFFFFFFFFF AND CALLER PUSH20 0xFFFFFFFFFFFFFFFFFFFFFFFFFFFFFFFFFFFFFFFF AND EQ PUSH2 0x52E JUMPI PUSH1 0x40 MLOAD PUSH32 0x8C379A000000000000000000000000000000000000000000000000000000000 DUP2 MSTORE PUSH1 0x4 ADD PUSH2 0x525 SWAP1 PUSH2 0xCD0 JUMP JUMPDEST PUSH1 0x40 MLOAD DUP1 SWAP2 SUB SWAP1 REVERT JUMPDEST PUSH9 0x3635C9ADC5DEA00000 PUSH2 0x541 SELFBALANCE PUSH2 0x7C3 JUMP JUMPDEST LT ISZERO PUSH2 0x582 JUMPI PUSH1 0x40 MLOAD PUSH32 0x8C379A000000000000000000000000000000000000000000000000000000000 DUP2 MSTORE PUSH1 0x4 ADD PUSH2 0x579 SWAP1 PUSH2 0xD38 JUMP JUMPDEST PUSH1 0x40 MLOAD DUP1 SWAP2 SUB SWAP1 REVERT JUMPDEST CALLER PUSH20 0xFFFFFFFFFFFFFFFFFFFFFFFFFFFFFFFFFFFFFFFF AND PUSH2 0x8FC SELFBALANCE SWAP1 DUP2 ISZERO MUL SWAP1 PUSH1 0x40 MLOAD PUSH0 PUSH1 0x40 MLOAD DUP1 DUP4 SUB DUP2 DUP6 DUP9 DUP9 CALL SWAP4 POP POP POP POP ISZERO DUP1 ISZERO PUSH2 0x5C5 JUMPI RETURNDATASIZE PUSH0 DUP1 RETURNDATACOPY RETURNDATASIZE PUSH0 REVERT JUMPDEST POP PUSH0 DUP1 PUSH0 CALLER PUSH20 0xFFFFFFFFFFFFFFFFFFFFFFFFFFFFFFFFFFFFFFFF AND PUSH20 0xFFFFFFFFFFFFFFFFFFFFFFFFFFFFFFFFFFFFFFFF AND DUP2 MSTORE PUSH1 0x20 ADD SWAP1 DUP2 MSTORE PUSH1 0x20 ADD PUSH0 KECCAK256 DUP2 SWAP1 SSTORE POP JUMP JUMPDEST PUSH1 0x4 SLOAD PUSH1 0x3 SLOAD PUSH2 0x619 SWAP2 SWAP1 PUSH2 0xA3C JUMP JUMPDEST TIMESTAMP LT PUSH2 0x65A JUMPI PUSH1 0x40 MLOAD PUSH32 0x8C379A000000000000000000000000000000000000000000000000000000000 DUP2 MSTORE PUSH1 0x4 ADD PUSH2 0x651 SWAP1 PUSH2 0xDA0 JUMP JUMPDEST PUSH1 0x40 MLOAD DUP1 SWAP2 SUB SWAP1 REVERT JUMPDEST PUSH9 0x56BC75E2D63100000 PUSH2 0x66D CALLVALUE PUSH2 0x7C3 JUMP JUMPDEST LT ISZERO PUSH2 0x6AE JUMPI PUSH1 0x40 MLOAD PUSH32 0x8C379A000000000000000000000000000000000000000000000000000000000 DUP2 MSTORE PUSH1 0x4 ADD PUSH2 0x6A5 SWAP1 PUSH2 0xE08 JUMP JUMPDEST PUSH1 0x40 MLOAD DUP1 SWAP2 SUB SWAP1 REVERT JUMPDEST CALLVALUE PUSH0 DUP1 CALLER PUSH20 0xFFFFFFFFFFFFFFFFFFFFFFFFFFFFFFFFFFFFFFFF AND PUSH20 0xFFFFFFFFFFFFFFFFFFFFFFFFFFFFFFFFFFFFFFFF AND DUP2 MSTORE PUSH1 0x20 ADD SWAP1 DUP2 MSTORE PUSH1 0x20 ADD PUSH0 KECCAK256 DUP2 SWAP1 SSTORE POP JUMP JUMPDEST PUSH1 0x2 PUSH0 SWAP1 SLOAD SWAP1 PUSH2 0x100 EXP SWAP1 DIV PUSH20 0xFFFFFFFFFFFFFFFFFFFFFFFFFFFFFFFFFFFFFFFF AND PUSH20 0xFFFFFFFFFFFFFFFFFFFFFFFFFFFFFFFFFFFFFFFF AND CALLER PUSH20 0xFFFFFFFFFFFFFFFFFFFFFFFFFFFFFFFFFFFFFFFF AND EQ PUSH2 0x780 JUMPI PUSH1 0x40 MLOAD PUSH32 0x8C379A000000000000000000000000000000000000000000000000000000000 DUP2 MSTORE PUSH1 0x4 ADD PUSH2 0x777 SWAP1 PUSH2 0xCD0 JUMP JUMPDEST PUSH1 0x40 MLOAD DUP1 SWAP2 SUB SWAP1 REVERT JUMPDEST DUP1 PUSH1 0x2 PUSH0 PUSH2 0x100 EXP DUP2 SLOAD DUP2 PUSH20 0xFFFFFFFFFFFFFFFFFFFFFFFFFFFFFFFFFFFFFFFF MUL NOT AND SWAP1 DUP4 PUSH20 0xFFFFFFFFFFFFFFFFFFFFFFFFFFFFFFFFFFFFFFFF AND MUL OR SWAP1 SSTORE POP POP JUMP JUMPDEST PUSH0 DUP1 PUSH2 0x7CD PUSH2 0x175 JUMP JUMPDEST SWAP1 POP PUSH4 0x5F5E100 DUP2 DUP5 PUSH2 0x7E0 SWAP2 SWAP1 PUSH2 0xE26 JUMP JUMPDEST PUSH2 0x7EA SWAP2 SWAP1 PUSH2 0xE94 JUMP JUMPDEST SWAP2 POP POP SWAP2 SWAP1 POP JUMP JUMPDEST PUSH0 DUP1 REVERT JUMPDEST PUSH0 PUSH20 0xFFFFFFFFFFFFFFFFFFFFFFFFFFFFFFFFFFFFFFFF DUP3 AND SWAP1 POP SWAP2 SWAP1 POP JUMP JUMPDEST PUSH0 PUSH2 0x81F DUP3 PUSH2 0x7F6 JUMP JUMPDEST SWAP1 POP SWAP2 SWAP1 POP JUMP JUMPDEST PUSH2 0x82F DUP2 PUSH2 0x815 JUMP JUMPDEST DUP2 EQ PUSH2 0x839 JUMPI PUSH0 DUP1 REVERT JUMPDEST POP JUMP JUMPDEST PUSH0 DUP2 CALLDATALOAD SWAP1 POP PUSH2 0x84A DUP2 PUSH2 0x826 JUMP JUMPDEST SWAP3 SWAP2 POP POP JUMP JUMPDEST PUSH0 PUSH1 0x20 DUP3 DUP5 SUB SLT ISZERO PUSH2 0x865 JUMPI PUSH2 0x864 PUSH2 0x7F2 JUMP JUMPDEST JUMPDEST PUSH0 PUSH2 0x872 DUP5 DUP3 DUP6 ADD PUSH2 0x83C JUMP JUMPDEST SWAP2 POP POP SWAP3 SWAP2 POP POP JUMP JUMPDEST PUSH0 DUP2 SWAP1 POP SWAP2 SWAP1 POP JUMP JUMPDEST PUSH2 0x88D DUP2 PUSH2 0x87B JUMP JUMPDEST DUP3 MSTORE POP POP JUMP JUMPDEST PUSH0 PUSH1 0x20 DUP3 ADD SWAP1 POP PUSH2 0x8A6 PUSH0 DUP4 ADD DUP5 PUSH2 0x884 JUMP JUMPDEST SWAP3 SWAP2 POP POP JUMP JUMPDEST PUSH0 DUP2 SWAP1 POP SWAP2 SWAP1 POP JUMP JUMPDEST PUSH2 0x8BE DUP2 PUSH2 0x8AC JUMP JUMPDEST DUP3 MSTORE POP POP JUMP JUMPDEST PUSH0 PUSH1 0x20 DUP3 ADD SWAP1 POP PUSH2 0x8D7 PUSH0 DUP4 ADD DUP5 PUSH2 0x8B5 JUMP JUMPDEST SWAP3 SWAP2 POP POP JUMP JUMPDEST PUSH2 0x8E6 DUP2 PUSH2 0x815 JUMP JUMPDEST DUP3 MSTORE POP POP JUMP JUMPDEST PUSH0 PUSH1 0x20 DUP3 ADD SWAP1 POP PUSH2 0x8FF PUSH0 DUP4 ADD DUP5 PUSH2 0x8DD JUMP JUMPDEST SWAP3 SWAP2 POP POP JUMP JUMPDEST PUSH0 PUSH10 0xFFFFFFFFFFFFFFFFFFFF DUP3 AND SWAP1 POP SWAP2 SWAP1 POP JUMP JUMPDEST PUSH2 0x923 DUP2 PUSH2 0x905 JUMP JUMPDEST DUP2 EQ PUSH2 0x92D JUMPI PUSH0 DUP1 REVERT JUMPDEST POP JUMP JUMPDEST PUSH0 DUP2 MLOAD SWAP1 POP PUSH2 0x93E DUP2 PUSH2 0x91A JUMP JUMPDEST SWAP3 SWAP2 POP POP JUMP JUMPDEST PUSH2 0x94D DUP2 PUSH2 0x8AC JUMP JUMPDEST DUP2 EQ PUSH2 0x957 JUMPI PUSH0 DUP1 REVERT JUMPDEST POP JUMP JUMPDEST PUSH0 DUP2 MLOAD SWAP1 POP PUSH2 0x968 DUP2 PUSH2 0x944 JUMP JUMPDEST SWAP3 SWAP2 POP POP JUMP JUMPDEST PUSH2 0x977 DUP2 PUSH2 0x87B JUMP JUMPDEST DUP2 EQ PUSH2 0x981 JUMPI PUSH0 DUP1 REVERT JUMPDEST POP JUMP JUMPDEST PUSH0 DUP2 MLOAD SWAP1 POP PUSH2 0x992 DUP2 PUSH2 0x96E JUMP JUMPDEST SWAP3 SWAP2 POP POP JUMP JUMPDEST PUSH0 DUP1 PUSH0 DUP1 PUSH0 PUSH1 0xA0 DUP7 DUP9 SUB SLT ISZERO PUSH2 0x9B1 JUMPI PUSH2 0x9B0 PUSH2 0x7F2 JUMP JUMPDEST JUMPDEST PUSH0 PUSH2 0x9BE DUP9 DUP3 DUP10 ADD PUSH2 0x930 JUMP JUMPDEST SWAP6 POP POP PUSH1 0x20 PUSH2 0x9CF DUP9 DUP3 DUP10 ADD PUSH2 0x95A JUMP JUMPDEST SWAP5 POP POP PUSH1 0x40 PUSH2 0x9E0 DUP9 DUP3 DUP10 ADD PUSH2 0x984 JUMP JUMPDEST SWAP4 POP POP PUSH1 0x60 PUSH2 0x9F1 DUP9 DUP3 DUP10 ADD PUSH2 0x984 JUMP JUMPDEST SWAP3 POP POP PUSH1 0x80 PUSH2 0xA02 DUP9 DUP3 DUP10 ADD PUSH2 0x930 JUMP JUMPDEST SWAP2 POP POP SWAP3 SWAP6 POP SWAP3 SWAP6 SWAP1 SWAP4 POP JUMP JUMPDEST PUSH32 0x4E487B7100000000000000000000000000000000000000000000000000000000 PUSH0 MSTORE PUSH1 0x11 PUSH1 0x4 MSTORE PUSH1 0x24 PUSH0 REVERT JUMPDEST PUSH0 PUSH2 0xA46 DUP3 PUSH2 0x87B JUMP JUMPDEST SWAP2 POP PUSH2 0xA51 DUP4 PUSH2 0x87B JUMP JUMPDEST SWAP3 POP DUP3 DUP3 ADD SWAP1 POP DUP1 DUP3 GT ISZERO PUSH2 0xA69 JUMPI PUSH2 0xA68 PUSH2 0xA0F JUMP JUMPDEST JUMPDEST SWAP3 SWAP2 POP POP JUMP JUMPDEST PUSH0 DUP3 DUP3 MSTORE PUSH1 0x20 DUP3 ADD SWAP1 POP SWAP3 SWAP2 POP POP JUMP JUMPDEST PUSH32 0x77696E646F77206973206E6F7420636C6F736564000000000000000000000000 PUSH0 DUP3 ADD MSTORE POP JUMP JUMPDEST PUSH0 PUSH2 0xAB3 PUSH1 0x14 DUP4 PUSH2 0xA6F JUMP JUMPDEST SWAP2 POP PUSH2 0xABE DUP3 PUSH2 0xA7F JUMP JUMPDEST PUSH1 0x20 DUP3 ADD SWAP1 POP SWAP2 SWAP1 POP JUMP JUMPDEST PUSH0 PUSH1 0x20 DUP3 ADD SWAP1 POP DUP2 DUP2 SUB PUSH0 DUP4 ADD MSTORE PUSH2 0xAE0 DUP2 PUSH2 0xAA7 JUMP JUMPDEST SWAP1 POP SWAP2 SWAP1 POP JUMP JUMPDEST PUSH32 0x5461726765742069732072656163686564000000000000000000000000000000 PUSH0 DUP3 ADD MSTORE POP JUMP JUMPDEST PUSH0 PUSH2 0xB1B PUSH1 0x11 DUP4 PUSH2 0xA6F JUMP JUMPDEST SWAP2 POP PUSH2 0xB26 DUP3 PUSH2 0xAE7 JUMP JUMPDEST PUSH1 0x20 DUP3 ADD SWAP1 POP SWAP2 SWAP1 POP JUMP JUMPDEST PUSH0 PUSH1 0x20 DUP3 ADD SWAP1 POP DUP2 DUP2 SUB PUSH0 DUP4 ADD MSTORE PUSH2 0xB48 DUP2 PUSH2 0xB0F JUMP JUMPDEST SWAP1 POP SWAP2 SWAP1 POP JUMP JUMPDEST PUSH32 0x7468657265206973206E6F2066756E6420666F7220796F750000000000000000 PUSH0 DUP3 ADD MSTORE POP JUMP JUMPDEST PUSH0 PUSH2 0xB83 PUSH1 0x18 DUP4 PUSH2 0xA6F JUMP JUMPDEST SWAP2 POP PUSH2 0xB8E DUP3 PUSH2 0xB4F JUMP JUMPDEST PUSH1 0x20 DUP3 ADD SWAP1 POP SWAP2 SWAP1 POP JUMP JUMPDEST PUSH0 PUSH1 0x20 DUP3 ADD SWAP1 POP DUP2 DUP2 SUB PUSH0 DUP4 ADD MSTORE PUSH2 0xBB0 DUP2 PUSH2 0xB77 JUMP JUMPDEST SWAP1 POP SWAP2 SWAP1 POP JUMP JUMPDEST PUSH0 DUP2 SWAP1 POP SWAP3 SWAP2 POP POP JUMP JUMPDEST POP JUMP JUMPDEST PUSH0 PUSH2 0xBCF PUSH0 DUP4 PUSH2 0xBB7 JUMP JUMPDEST SWAP2 POP PUSH2 0xBDA DUP3 PUSH2 0xBC1 JUMP JUMPDEST PUSH0 DUP3 ADD SWAP1 POP SWAP2 SWAP1 POP JUMP JUMPDEST PUSH0 PUSH2 0xBEE DUP3 PUSH2 0xBC4 JUMP JUMPDEST SWAP2 POP DUP2 SWAP1 POP SWAP2 SWAP1 POP JUMP JUMPDEST PUSH32 0x7472616E73666572207478206661696C65640000000000000000000000000000 PUSH0 DUP3 ADD MSTORE POP JUMP JUMPDEST PUSH0 PUSH2 0xC2C PUSH1 0x12 DUP4 PUSH2 0xA6F JUMP JUMPDEST SWAP2 POP PUSH2 0xC37 DUP3 PUSH2 0xBF8 JUMP JUMPDEST PUSH1 0x20 DUP3 ADD SWAP1 POP SWAP2 SWAP1 POP JUMP JUMPDEST PUSH0 PUSH1 0x20 DUP3 ADD SWAP1 POP DUP2 DUP2 SUB PUSH0 DUP4 ADD MSTORE PUSH2 0xC59 DUP2 PUSH2 0xC20 JUMP JUMPDEST SWAP1 POP SWAP2 SWAP1 POP JUMP JUMPDEST PUSH32 0x746869732066756E6374696F6E2063616E206F6E6C792062652063616C6C6564 PUSH0 DUP3 ADD MSTORE PUSH32 0x206279206F776E65720000000000000000000000000000000000000000000000 PUSH1 0x20 DUP3 ADD MSTORE POP JUMP JUMPDEST PUSH0 PUSH2 0xCBA PUSH1 0x29 DUP4 PUSH2 0xA6F JUMP JUMPDEST SWAP2 POP PUSH2 0xCC5 DUP3 PUSH2 0xC60 JUMP JUMPDEST PUSH1 0x40 DUP3 ADD SWAP1 POP SWAP2 SWAP1 POP JUMP JUMPDEST PUSH0 PUSH1 0x20 DUP3 ADD SWAP1 POP DUP2 DUP2 SUB PUSH0 DUP4 ADD MSTORE PUSH2 0xCE7 DUP2 PUSH2 0xCAE JUMP JUMPDEST SWAP1 POP SWAP2 SWAP1 POP JUMP JUMPDEST PUSH32 0x546172676574206973206E6F7420726561636865640000000000000000000000 PUSH0 DUP3 ADD MSTORE POP JUMP JUMPDEST PUSH0 PUSH2 0xD22 PUSH1 0x15 DUP4 PUSH2 0xA6F JUMP JUMPDEST SWAP2 POP PUSH2 0xD2D DUP3 PUSH2 0xCEE JUMP JUMPDEST PUSH1 0x20 DUP3 ADD SWAP1 POP SWAP2 SWAP1 POP JUMP JUMPDEST PUSH0 PUSH1 0x20 DUP3 ADD SWAP1 POP DUP2 DUP2 SUB PUSH0 DUP4 ADD MSTORE PUSH2 0xD4F DUP2 PUSH2 0xD16 JUMP JUMPDEST SWAP1 POP SWAP2 SWAP1 POP JUMP JUMPDEST PUSH32 0x77696E646F7720697320636C6F73656400000000000000000000000000000000 PUSH0 DUP3 ADD MSTORE POP JUMP JUMPDEST PUSH0 PUSH2 0xD8A PUSH1 0x10 DUP4 PUSH2 0xA6F JUMP JUMPDEST SWAP2 POP PUSH2 0xD95 DUP3 PUSH2 0xD56 JUMP JUMPDEST PUSH1 0x20 DUP3 ADD SWAP1 POP SWAP2 SWAP1 POP JUMP JUMPDEST PUSH0 PUSH1 0x20 DUP3 ADD SWAP1 POP DUP2 DUP2 SUB PUSH0 DUP4 ADD MSTORE PUSH2 0xDB7 DUP2 PUSH2 0xD7E JUMP JUMPDEST SWAP1 POP SWAP2 SWAP1 POP JUMP JUMPDEST PUSH32 0x53656E64206D6F72652045544800000000000000000000000000000000000000 PUSH0 DUP3 ADD MSTORE POP JUMP JUMPDEST PUSH0 PUSH2 0xDF2 PUSH1 0xD DUP4 PUSH2 0xA6F JUMP JUMPDEST SWAP2 POP PUSH2 0xDFD DUP3 PUSH2 0xDBE JUMP JUMPDEST PUSH1 0x20 DUP3 ADD SWAP1 POP SWAP2 SWAP1 POP JUMP JUMPDEST PUSH0 PUSH1 0x20 DUP3 ADD SWAP1 POP DUP2 DUP2 SUB PUSH0 DUP4 ADD MSTORE PUSH2 0xE1F DUP2 PUSH2 0xDE6 JUMP JUMPDEST SWAP1 POP SWAP2 SWAP1 POP JUMP JUMPDEST PUSH0 PUSH2 0xE30 DUP3 PUSH2 0x87B JUMP JUMPDEST SWAP2 POP PUSH2 0xE3B DUP4 PUSH2 0x87B JUMP JUMPDEST SWAP3 POP DUP3 DUP3 MUL PUSH2 0xE49 DUP2 PUSH2 0x87B JUMP JUMPDEST SWAP2 POP DUP3 DUP3 DIV DUP5 EQ DUP4 ISZERO OR PUSH2 0xE60 JUMPI PUSH2 0xE5F PUSH2 0xA0F JUMP JUMPDEST JUMPDEST POP SWAP3 SWAP2 POP POP JUMP JUMPDEST PUSH32 0x4E487B7100000000000000000000000000000000000000000000000000000000 PUSH0 MSTORE PUSH1 0x12 PUSH1 0x4 MSTORE PUSH1 0x24 PUSH0 REVERT JUMPDEST PUSH0 PUSH2 0xE9E DUP3 PUSH2 0x87B JUMP JUMPDEST SWAP2 POP PUSH2 0xEA9 DUP4 PUSH2 0x87B JUMP JUMPDEST SWAP3 POP DUP3 PUSH2 0xEB9 JUMPI PUSH2 0xEB8 PUSH2 0xE67 JUMP JUMPDEST JUMPDEST DUP3 DUP3 DIV SWAP1 POP SWAP3 SWAP2 POP POP JUMP INVALID LOG2 PUSH5 0x6970667358 0x22 SLT KECCAK256 0x4F 0xEC CALLDATALOAD DUP13 0xBD 0xCF 0xCA 0x2A DUP8 0xB8 MSTORE8 BLOBHASH 0xE5 0xDE SWAP10 PUSH20 0xE753617ADEDEF8D7D3904345F1B8F9BB64736F6C PUSH4 0x4300081A STOP CALLER "
				},
				"gasEstimates": {
					"creation": {
						"codeDepositCost": "766800",
						"executionCost": "infinite",
						"totalCost": "infinite"
					},
					"external": {
						"fund()": "infinite",
						"funderToAmount(address)": "2802",
						"getChainlinkDataFeekLatestAnswer()": "infinite",
						"getFund()": "infinite",
						"owner()": "2508",
						"refund()": "infinite",
						"transferOwnership(address)": "26950"
					},
					"internal": {
						"convertEthToUsd(uint256)": "infinite"
					}
				},
				"methodIdentifiers": {
					"fund()": "b60d4288",
					"funderToAmount(address)": "4407e1e8",
					"getChainlinkDataFeekLatestAnswer()": "57edc0a5",
					"getFund()": "8edd6eb6",
					"owner()": "8da5cb5b",
					"refund()": "590e1ae3",
					"transferOwnership(address)": "f2fde38b"
				}
			},
			"storageLayout": {
				"storage": [
					{
						"astId": 53,
						"contract": "FundMe.sol:FundMe",
						"label": "funderToAmount",
						"offset": 0,
						"slot": "0",
						"type": "t_mapping(t_address,t_uint256)"
					},
					{
						"astId": 63,
						"contract": "FundMe.sol:FundMe",
						"label": "dataFeed",
						"offset": 0,
						"slot": "1",
						"type": "t_contract(AggregatorV3Interface)45"
					},
					{
						"astId": 72,
						"contract": "FundMe.sol:FundMe",
						"label": "owner",
						"offset": 0,
						"slot": "2",
						"type": "t_address"
					},
					{
						"astId": 74,
						"contract": "FundMe.sol:FundMe",
						"label": "deploymentTimestamp",
						"offset": 0,
						"slot": "3",
						"type": "t_uint256"
					},
					{
						"astId": 76,
						"contract": "FundMe.sol:FundMe",
						"label": "lockTime",
						"offset": 0,
						"slot": "4",
						"type": "t_uint256"
					}
				],
				"types": {
					"t_address": {
						"encoding": "inplace",
						"label": "address",
						"numberOfBytes": "20"
					},
					"t_contract(AggregatorV3Interface)45": {
						"encoding": "inplace",
						"label": "contract AggregatorV3Interface",
						"numberOfBytes": "20"
					},
					"t_mapping(t_address,t_uint256)": {
						"encoding": "mapping",
						"key": "t_address",
						"label": "mapping(address => uint256)",
						"numberOfBytes": "32",
						"value": "t_uint256"
					},
					"t_uint256": {
						"encoding": "inplace",
						"label": "uint256",
						"numberOfBytes": "32"
					}
				}
			},
			"userdoc": {
				"kind": "user",
				"methods": {},
				"version": 1
			}
		}
	}
}