{
	"FundTokenERC20_flattened.sol": {
		"FundTokenERC20": {
			"abi": [
				{
					"inputs": [
						{
							"internalType": "address",
							"name": "fundMeAddr",
							"type": "address"
						}
					],
					"stateMutability": "nonpayable",
					"type": "constructor"
				},
				{
					"inputs": [
						{
							"internalType": "address",
							"name": "spender",
							"type": "address"
						},
						{
							"internalType": "uint256",
							"name": "allowance",
							"type": "uint256"
						},
						{
							"internalType": "uint256",
							"name": "needed",
							"type": "uint256"
						}
					],
					"name": "ERC20InsufficientAllowance",
					"type": "error"
				},
				{
					"inputs": [
						{
							"internalType": "address",
							"name": "sender",
							"type": "address"
						},
						{
							"internalType": "uint256",
							"name": "balance",
							"type": "uint256"
						},
						{
							"internalType": "uint256",
							"name": "needed",
							"type": "uint256"
						}
					],
					"name": "ERC20InsufficientBalance",
					"type": "error"
				},
				{
					"inputs": [
						{
							"internalType": "address",
							"name": "approver",
							"type": "address"
						}
					],
					"name": "ERC20InvalidApprover",
					"type": "error"
				},
				{
					"inputs": [
						{
							"internalType": "address",
							"name": "receiver",
							"type": "address"
						}
					],
					"name": "ERC20InvalidReceiver",
					"type": "error"
				},
				{
					"inputs": [
						{
							"internalType": "address",
							"name": "sender",
							"type": "address"
						}
					],
					"name": "ERC20InvalidSender",
					"type": "error"
				},
				{
					"inputs": [
						{
							"internalType": "address",
							"name": "spender",
							"type": "address"
						}
					],
					"name": "ERC20InvalidSpender",
					"type": "error"
				},
				{
					"anonymous": false,
					"inputs": [
						{
							"indexed": true,
							"internalType": "address",
							"name": "owner",
							"type": "address"
						},
						{
							"indexed": true,
							"internalType": "address",
							"name": "spender",
							"type": "address"
						},
						{
							"indexed": false,
							"internalType": "uint256",
							"name": "value",
							"type": "uint256"
						}
					],
					"name": "Approval",
					"type": "event"
				},
				{
					"anonymous": false,
					"inputs": [
						{
							"indexed": true,
							"internalType": "address",
							"name": "from",
							"type": "address"
						},
						{
							"indexed": true,
							"internalType": "address",
							"name": "to",
							"type": "address"
						},
						{
							"indexed": false,
							"internalType": "uint256",
							"name": "value",
							"type": "uint256"
						}
					],
					"name": "Transfer",
					"type": "event"
				},
				{
					"inputs": [
						{
							"internalType": "address",
							"name": "owner",
							"type": "address"
						},
						{
							"internalType": "address",
							"name": "spender",
							"type": "address"
						}
					],
					"name": "allowance",
					"outputs": [
						{
							"internalType": "uint256",
							"name": "",
							"type": "uint256"
						}
					],
					"stateMutability": "view",
					"type": "function"
				},
				{
					"inputs": [
						{
							"internalType": "address",
							"name": "spender",
							"type": "address"
						},
						{
							"internalType": "uint256",
							"name": "value",
							"type": "uint256"
						}
					],
					"name": "approve",
					"outputs": [
						{
							"internalType": "bool",
							"name": "",
							"type": "bool"
						}
					],
					"stateMutability": "nonpayable",
					"type": "function"
				},
				{
					"inputs": [
						{
							"internalType": "address",
							"name": "account",
							"type": "address"
						}
					],
					"name": "balanceOf",
					"outputs": [
						{
							"internalType": "uint256",
							"name": "",
							"type": "uint256"
						}
					],
					"stateMutability": "view",
					"type": "function"
				},
				{
					"inputs": [
						{
							"internalType": "uint256",
							"name": "amountToClaim",
							"type": "uint256"
						}
					],
					"name": "claim",
					"outputs": [],
					"stateMutability": "nonpayable",
					"type": "function"
				},
				{
					"inputs": [],
					"name": "decimals",
					"outputs": [
						{
							"internalType": "uint8",
							"name": "",
							"type": "uint8"
						}
					],
					"stateMutability": "view",
					"type": "function"
				},
				{
					"inputs": [
						{
							"internalType": "uint256",
							"name": "amountToMint",
							"type": "uint256"
						}
					],
					"name": "mint",
					"outputs": [],
					"stateMutability": "nonpayable",
					"type": "function"
				},
				{
					"inputs": [],
					"name": "name",
					"outputs": [
						{
							"internalType": "string",
							"name": "",
							"type": "string"
						}
					],
					"stateMutability": "view",
					"type": "function"
				},
				{
					"inputs": [],
					"name": "symbol",
					"outputs": [
						{
							"internalType": "string",
							"name": "",
							"type": "string"
						}
					],
					"stateMutability": "view",
					"type": "function"
				},
				{
					"inputs": [],
					"name": "totalSupply",
					"outputs": [
						{
							"internalType": "uint256",
							"name": "",
							"type": "uint256"
						}
					],
					"stateMutability": "view",
					"type": "function"
				},
				{
					"inputs": [
						{
							"internalType": "address",
							"name": "to",
							"type": "address"
						},
						{
							"internalType": "uint256",
							"name": "value",
							"type": "uint256"
						}
					],
					"name": "transfer",
					"outputs": [
						{
							"internalType": "bool",
							"name": "",
							"type": "bool"
						}
					],
					"stateMutability": "nonpayable",
					"type": "function"
				},
				{
					"inputs": [
						{
							"internalType": "address",
							"name": "from",
							"type": "address"
						},
						{
							"internalType": "address",
							"name": "to",
							"type": "address"
						},
						{
							"internalType": "uint256",
							"name": "value",
							"type": "uint256"
						}
					],
					"name": "transferFrom",
					"outputs": [
						{
							"internalType": "bool",
							"name": "",
							"type": "bool"
						}
					],
					"stateMutability": "nonpayable",
					"type": "function"
				}
			],
			"devdoc": {
				"errors": {
					"ERC20InsufficientAllowance(address,uint256,uint256)": [
						{
							"details": "Indicates a failure with the `spender`’s `allowance`. Used in transfers.",
							"params": {
								"allowance": "Amount of tokens a `spender` is allowed to operate with.",
								"needed": "Minimum amount required to perform a transfer.",
								"spender": "Address that may be allowed to operate on tokens without being their owner."
							}
						}
					],
					"ERC20InsufficientBalance(address,uint256,uint256)": [
						{
							"details": "Indicates an error related to the current `balance` of a `sender`. Used in transfers.",
							"params": {
								"balance": "Current balance for the interacting account.",
								"needed": "Minimum amount required to perform a transfer.",
								"sender": "Address whose tokens are being transferred."
							}
						}
					],
					"ERC20InvalidApprover(address)": [
						{
							"details": "Indicates a failure with the `approver` of a token to be approved. Used in approvals.",
							"params": {
								"approver": "Address initiating an approval operation."
							}
						}
					],
					"ERC20InvalidReceiver(address)": [
						{
							"details": "Indicates a failure with the token `receiver`. Used in transfers.",
							"params": {
								"receiver": "Address to which tokens are being transferred."
							}
						}
					],
					"ERC20InvalidSender(address)": [
						{
							"details": "Indicates a failure with the token `sender`. Used in transfers.",
							"params": {
								"sender": "Address whose tokens are being transferred."
							}
						}
					],
					"ERC20InvalidSpender(address)": [
						{
							"details": "Indicates a failure with the `spender` to be approved. Used in approvals.",
							"params": {
								"spender": "Address that may be allowed to operate on tokens without being their owner."
							}
						}
					]
				},
				"events": {
					"Approval(address,address,uint256)": {
						"details": "Emitted when the allowance of a `spender` for an `owner` is set by a call to {approve}. `value` is the new allowance."
					},
					"Transfer(address,address,uint256)": {
						"details": "Emitted when `value` tokens are moved from one account (`from`) to another (`to`). Note that `value` may be zero."
					}
				},
				"kind": "dev",
				"methods": {
					"allowance(address,address)": {
						"details": "See {IERC20-allowance}."
					},
					"approve(address,uint256)": {
						"details": "See {IERC20-approve}. NOTE: If `value` is the maximum `uint256`, the allowance is not updated on `transferFrom`. This is semantically equivalent to an infinite approval. Requirements: - `spender` cannot be the zero address."
					},
					"balanceOf(address)": {
						"details": "See {IERC20-balanceOf}."
					},
					"decimals()": {
						"details": "Returns the number of decimals used to get its user representation. For example, if `decimals` equals `2`, a balance of `505` tokens should be displayed to a user as `5.05` (`505 / 10 ** 2`). Tokens usually opt for a value of 18, imitating the relationship between Ether and Wei. This is the default value returned by this function, unless it's overridden. NOTE: This information is only used for _display_ purposes: it in no way affects any of the arithmetic of the contract, including {IERC20-balanceOf} and {IERC20-transfer}."
					},
					"name()": {
						"details": "Returns the name of the token."
					},
					"symbol()": {
						"details": "Returns the symbol of the token, usually a shorter version of the name."
					},
					"totalSupply()": {
						"details": "See {IERC20-totalSupply}."
					},
					"transfer(address,uint256)": {
						"details": "See {IERC20-transfer}. Requirements: - `to` cannot be the zero address. - the caller must have a balance of at least `value`."
					},
					"transferFrom(address,address,uint256)": {
						"details": "See {IERC20-transferFrom}. Skips emitting an {Approval} event indicating an allowance update. This is not required by the ERC. See {xref-ERC20-_approve-address-address-uint256-bool-}[_approve]. NOTE: Does not update the allowance if the current allowance is the maximum `uint256`. Requirements: - `from` and `to` cannot be the zero address. - `from` must have a balance of at least `value`. - the caller must have allowance for ``from``'s tokens of at least `value`."
					}
				},
				"version": 1
			},
			"evm": {
				"assembly": "    /* \"FundTokenERC20_flattened.sol\":27992:30949  contract FundTokenERC20 is ERC20 {... */\n  mstore(0x40, 0x80)\n    /* \"FundTokenERC20_flattened.sol\":28055:28730  constructor(address fundMeAddr) ERC20 (\"FundTokenERC20\", \"FT\") {... */\n  callvalue\n  dup1\n  iszero\n  tag_1\n  jumpi\n  0x00\n  dup1\n  revert\ntag_1:\n  pop\n  mload(0x40)\n  sub(codesize, bytecodeSize)\n  dup1\n  bytecodeSize\n  dup4\n  codecopy\n  dup2\n  dup2\n  add\n  0x40\n  mstore\n  dup2\n  add\n  swap1\n  tag_2\n  swap2\n  swap1\n  tag_3\n  jump\t// in\ntag_2:\n    /* \"FundTokenERC20_flattened.sol\":12451:12564  constructor(string memory name_, string memory symbol_) {... */\n  mload(0x40)\n  dup1\n  0x40\n  add\n  0x40\n  mstore\n  dup1\n  0x0e\n  dup2\n  mstore\n  0x20\n  add\n  0x46756e64546f6b656e4552433230000000000000000000000000000000000000\n  dup2\n  mstore\n  pop\n  mload(0x40)\n  dup1\n  0x40\n  add\n  0x40\n  mstore\n  dup1\n  0x02\n  dup2\n  mstore\n  0x20\n  add\n  0x4654000000000000000000000000000000000000000000000000000000000000\n  dup2\n  mstore\n  pop\n    /* \"FundTokenERC20_flattened.sol\":12525:12530  name_ */\n  dup2\n    /* \"FundTokenERC20_flattened.sol\":12517:12522  _name */\n  0x03\n    /* \"FundTokenERC20_flattened.sol\":12517:12530  _name = name_ */\n  swap1\n  dup2\n  tag_7\n  swap2\n  swap1\n  tag_8\n  jump\t// in\ntag_7:\n  pop\n    /* \"FundTokenERC20_flattened.sol\":12550:12557  symbol_ */\n  dup1\n    /* \"FundTokenERC20_flattened.sol\":12540:12547  _symbol */\n  0x04\n    /* \"FundTokenERC20_flattened.sol\":12540:12557  _symbol = symbol_ */\n  swap1\n  dup2\n  tag_9\n  swap2\n  swap1\n  tag_8\n  jump\t// in\ntag_9:\n  pop\n    /* \"FundTokenERC20_flattened.sol\":12451:12564  constructor(string memory name_, string memory symbol_) {... */\n  pop\n  pop\n    /* \"FundTokenERC20_flattened.sol\":28712:28722  fundMeAddr */\n  dup1\n    /* \"FundTokenERC20_flattened.sol\":28696:28702  fundMe */\n  0x05\n  0x00\n    /* \"FundTokenERC20_flattened.sol\":28696:28723  fundMe = FundMe(fundMeAddr) */\n  0x0100\n  exp\n  dup2\n  sload\n  dup2\n  0xffffffffffffffffffffffffffffffffffffffff\n  mul\n  not\n  and\n  swap1\n  dup4\n  0xffffffffffffffffffffffffffffffffffffffff\n  and\n  mul\n  or\n  swap1\n  sstore\n  pop\n    /* \"FundTokenERC20_flattened.sol\":28055:28730  constructor(address fundMeAddr) ERC20 (\"FundTokenERC20\", \"FT\") {... */\n  pop\n    /* \"FundTokenERC20_flattened.sol\":27992:30949  contract FundTokenERC20 is ERC20 {... */\n  jump(tag_11)\n    /* \"#utility.yul\":88:205   */\ntag_13:\n    /* \"#utility.yul\":197:198   */\n  0x00\n    /* \"#utility.yul\":194:195   */\n  dup1\n    /* \"#utility.yul\":187:199   */\n  revert\n    /* \"#utility.yul\":334:460   */\ntag_15:\n    /* \"#utility.yul\":371:378   */\n  0x00\n    /* \"#utility.yul\":411:453   */\n  0xffffffffffffffffffffffffffffffffffffffff\n    /* \"#utility.yul\":404:409   */\n  dup3\n    /* \"#utility.yul\":400:454   */\n  and\n    /* \"#utility.yul\":389:454   */\n  swap1\n  pop\n    /* \"#utility.yul\":334:460   */\n  swap2\n  swap1\n  pop\n  jump\t// out\n    /* \"#utility.yul\":466:562   */\ntag_16:\n    /* \"#utility.yul\":503:510   */\n  0x00\n    /* \"#utility.yul\":532:556   */\n  tag_45\n    /* \"#utility.yul\":550:555   */\n  dup3\n    /* \"#utility.yul\":532:556   */\n  tag_15\n  jump\t// in\ntag_45:\n    /* \"#utility.yul\":521:556   */\n  swap1\n  pop\n    /* \"#utility.yul\":466:562   */\n  swap2\n  swap1\n  pop\n  jump\t// out\n    /* \"#utility.yul\":568:690   */\ntag_17:\n    /* \"#utility.yul\":641:665   */\n  tag_47\n    /* \"#utility.yul\":659:664   */\n  dup2\n    /* \"#utility.yul\":641:665   */\n  tag_16\n  jump\t// in\ntag_47:\n    /* \"#utility.yul\":634:639   */\n  dup2\n    /* \"#utility.yul\":631:666   */\n  eq\n    /* \"#utility.yul\":621:684   */\n  tag_48\n  jumpi\n    /* \"#utility.yul\":680:681   */\n  0x00\n    /* \"#utility.yul\":677:678   */\n  dup1\n    /* \"#utility.yul\":670:682   */\n  revert\n    /* \"#utility.yul\":621:684   */\ntag_48:\n    /* \"#utility.yul\":568:690   */\n  pop\n  jump\t// out\n    /* \"#utility.yul\":696:839   */\ntag_18:\n    /* \"#utility.yul\":753:758   */\n  0x00\n    /* \"#utility.yul\":784:790   */\n  dup2\n    /* \"#utility.yul\":778:791   */\n  mload\n    /* \"#utility.yul\":769:791   */\n  swap1\n  pop\n    /* \"#utility.yul\":800:833   */\n  tag_50\n    /* \"#utility.yul\":827:832   */\n  dup2\n    /* \"#utility.yul\":800:833   */\n  tag_17\n  jump\t// in\ntag_50:\n    /* \"#utility.yul\":696:839   */\n  swap3\n  swap2\n  pop\n  pop\n  jump\t// out\n    /* \"#utility.yul\":845:1196   */\ntag_3:\n    /* \"#utility.yul\":915:921   */\n  0x00\n    /* \"#utility.yul\":964:966   */\n  0x20\n    /* \"#utility.yul\":952:961   */\n  dup3\n    /* \"#utility.yul\":943:950   */\n  dup5\n    /* \"#utility.yul\":939:962   */\n  sub\n    /* \"#utility.yul\":935:967   */\n  slt\n    /* \"#utility.yul\":932:1051   */\n  iszero\n  tag_52\n  jumpi\n    /* \"#utility.yul\":970:1049   */\n  tag_53\n  tag_13\n  jump\t// in\ntag_53:\n    /* \"#utility.yul\":932:1051   */\ntag_52:\n    /* \"#utility.yul\":1090:1091   */\n  0x00\n    /* \"#utility.yul\":1115:1179   */\n  tag_54\n    /* \"#utility.yul\":1171:1178   */\n  dup5\n    /* \"#utility.yul\":1162:1168   */\n  dup3\n    /* \"#utility.yul\":1151:1160   */\n  dup6\n    /* \"#utility.yul\":1147:1169   */\n  add\n    /* \"#utility.yul\":1115:1179   */\n  tag_18\n  jump\t// in\ntag_54:\n    /* \"#utility.yul\":1105:1179   */\n  swap2\n  pop\n    /* \"#utility.yul\":1061:1189   */\n  pop\n    /* \"#utility.yul\":845:1196   */\n  swap3\n  swap2\n  pop\n  pop\n  jump\t// out\n    /* \"#utility.yul\":1202:1301   */\ntag_19:\n    /* \"#utility.yul\":1254:1260   */\n  0x00\n    /* \"#utility.yul\":1288:1293   */\n  dup2\n    /* \"#utility.yul\":1282:1294   */\n  mload\n    /* \"#utility.yul\":1272:1294   */\n  swap1\n  pop\n    /* \"#utility.yul\":1202:1301   */\n  swap2\n  swap1\n  pop\n  jump\t// out\n    /* \"#utility.yul\":1307:1487   */\ntag_20:\n    /* \"#utility.yul\":1355:1432   */\n  0x4e487b7100000000000000000000000000000000000000000000000000000000\n    /* \"#utility.yul\":1352:1353   */\n  0x00\n    /* \"#utility.yul\":1345:1433   */\n  mstore\n    /* \"#utility.yul\":1452:1456   */\n  0x41\n    /* \"#utility.yul\":1449:1450   */\n  0x04\n    /* \"#utility.yul\":1442:1457   */\n  mstore\n    /* \"#utility.yul\":1476:1480   */\n  0x24\n    /* \"#utility.yul\":1473:1474   */\n  0x00\n    /* \"#utility.yul\":1466:1481   */\n  revert\n    /* \"#utility.yul\":1493:1673   */\ntag_21:\n    /* \"#utility.yul\":1541:1618   */\n  0x4e487b7100000000000000000000000000000000000000000000000000000000\n    /* \"#utility.yul\":1538:1539   */\n  0x00\n    /* \"#utility.yul\":1531:1619   */\n  mstore\n    /* \"#utility.yul\":1638:1642   */\n  0x22\n    /* \"#utility.yul\":1635:1636   */\n  0x04\n    /* \"#utility.yul\":1628:1643   */\n  mstore\n    /* \"#utility.yul\":1662:1666   */\n  0x24\n    /* \"#utility.yul\":1659:1660   */\n  0x00\n    /* \"#utility.yul\":1652:1667   */\n  revert\n    /* \"#utility.yul\":1679:1999   */\ntag_22:\n    /* \"#utility.yul\":1723:1729   */\n  0x00\n    /* \"#utility.yul\":1760:1761   */\n  0x02\n    /* \"#utility.yul\":1754:1758   */\n  dup3\n    /* \"#utility.yul\":1750:1762   */\n  div\n    /* \"#utility.yul\":1740:1762   */\n  swap1\n  pop\n    /* \"#utility.yul\":1807:1808   */\n  0x01\n    /* \"#utility.yul\":1801:1805   */\n  dup3\n    /* \"#utility.yul\":1797:1809   */\n  and\n    /* \"#utility.yul\":1828:1846   */\n  dup1\n    /* \"#utility.yul\":1818:1899   */\n  tag_59\n  jumpi\n    /* \"#utility.yul\":1884:1888   */\n  0x7f\n    /* \"#utility.yul\":1876:1882   */\n  dup3\n    /* \"#utility.yul\":1872:1889   */\n  and\n    /* \"#utility.yul\":1862:1889   */\n  swap2\n  pop\n    /* \"#utility.yul\":1818:1899   */\ntag_59:\n    /* \"#utility.yul\":1946:1948   */\n  0x20\n    /* \"#utility.yul\":1938:1944   */\n  dup3\n    /* \"#utility.yul\":1935:1949   */\n  lt\n    /* \"#utility.yul\":1915:1933   */\n  dup2\n    /* \"#utility.yul\":1912:1950   */\n  sub\n    /* \"#utility.yul\":1909:1993   */\n  tag_60\n  jumpi\n    /* \"#utility.yul\":1965:1983   */\n  tag_61\n  tag_21\n  jump\t// in\ntag_61:\n    /* \"#utility.yul\":1909:1993   */\ntag_60:\n    /* \"#utility.yul\":1730:1999   */\n  pop\n    /* \"#utility.yul\":1679:1999   */\n  swap2\n  swap1\n  pop\n  jump\t// out\n    /* \"#utility.yul\":2005:2146   */\ntag_23:\n    /* \"#utility.yul\":2054:2058   */\n  0x00\n    /* \"#utility.yul\":2077:2080   */\n  dup2\n    /* \"#utility.yul\":2069:2080   */\n  swap1\n  pop\n    /* \"#utility.yul\":2100:2103   */\n  dup2\n    /* \"#utility.yul\":2097:2098   */\n  0x00\n    /* \"#utility.yul\":2090:2104   */\n  mstore\n    /* \"#utility.yul\":2134:2138   */\n  0x20\n    /* \"#utility.yul\":2131:2132   */\n  0x00\n    /* \"#utility.yul\":2121:2139   */\n  keccak256\n    /* \"#utility.yul\":2113:2139   */\n  swap1\n  pop\n    /* \"#utility.yul\":2005:2146   */\n  swap2\n  swap1\n  pop\n  jump\t// out\n    /* \"#utility.yul\":2152:2245   */\ntag_24:\n    /* \"#utility.yul\":2189:2195   */\n  0x00\n    /* \"#utility.yul\":2236:2238   */\n  0x20\n    /* \"#utility.yul\":2231:2233   */\n  0x1f\n    /* \"#utility.yul\":2224:2229   */\n  dup4\n    /* \"#utility.yul\":2220:2234   */\n  add\n    /* \"#utility.yul\":2216:2239   */\n  div\n    /* \"#utility.yul\":2206:2239   */\n  swap1\n  pop\n    /* \"#utility.yul\":2152:2245   */\n  swap2\n  swap1\n  pop\n  jump\t// out\n    /* \"#utility.yul\":2251:2358   */\ntag_25:\n    /* \"#utility.yul\":2295:2303   */\n  0x00\n    /* \"#utility.yul\":2345:2350   */\n  dup3\n    /* \"#utility.yul\":2339:2343   */\n  dup3\n    /* \"#utility.yul\":2335:2351   */\n  shl\n    /* \"#utility.yul\":2314:2351   */\n  swap1\n  pop\n    /* \"#utility.yul\":2251:2358   */\n  swap3\n  swap2\n  pop\n  pop\n  jump\t// out\n    /* \"#utility.yul\":2364:2757   */\ntag_26:\n    /* \"#utility.yul\":2433:2439   */\n  0x00\n    /* \"#utility.yul\":2483:2484   */\n  0x08\n    /* \"#utility.yul\":2471:2481   */\n  dup4\n    /* \"#utility.yul\":2467:2485   */\n  mul\n    /* \"#utility.yul\":2506:2603   */\n  tag_66\n    /* \"#utility.yul\":2536:2602   */\n  0xffffffffffffffffffffffffffffffffffffffffffffffffffffffffffffffff\n    /* \"#utility.yul\":2525:2534   */\n  dup3\n    /* \"#utility.yul\":2506:2603   */\n  tag_25\n  jump\t// in\ntag_66:\n    /* \"#utility.yul\":2624:2663   */\n  tag_67\n    /* \"#utility.yul\":2654:2662   */\n  dup7\n    /* \"#utility.yul\":2643:2652   */\n  dup4\n    /* \"#utility.yul\":2624:2663   */\n  tag_25\n  jump\t// in\ntag_67:\n    /* \"#utility.yul\":2612:2663   */\n  swap6\n  pop\n    /* \"#utility.yul\":2696:2700   */\n  dup1\n    /* \"#utility.yul\":2692:2701   */\n  not\n    /* \"#utility.yul\":2685:2690   */\n  dup5\n    /* \"#utility.yul\":2681:2702   */\n  and\n    /* \"#utility.yul\":2672:2702   */\n  swap4\n  pop\n    /* \"#utility.yul\":2745:2749   */\n  dup1\n    /* \"#utility.yul\":2735:2743   */\n  dup7\n    /* \"#utility.yul\":2731:2750   */\n  and\n    /* \"#utility.yul\":2724:2729   */\n  dup5\n    /* \"#utility.yul\":2721:2751   */\n  or\n    /* \"#utility.yul\":2711:2751   */\n  swap3\n  pop\n    /* \"#utility.yul\":2440:2757   */\n  pop\n  pop\n    /* \"#utility.yul\":2364:2757   */\n  swap4\n  swap3\n  pop\n  pop\n  pop\n  jump\t// out\n    /* \"#utility.yul\":2763:2840   */\ntag_27:\n    /* \"#utility.yul\":2800:2807   */\n  0x00\n    /* \"#utility.yul\":2829:2834   */\n  dup2\n    /* \"#utility.yul\":2818:2834   */\n  swap1\n  pop\n    /* \"#utility.yul\":2763:2840   */\n  swap2\n  swap1\n  pop\n  jump\t// out\n    /* \"#utility.yul\":2846:2906   */\ntag_28:\n    /* \"#utility.yul\":2874:2877   */\n  0x00\n    /* \"#utility.yul\":2895:2900   */\n  dup2\n    /* \"#utility.yul\":2888:2900   */\n  swap1\n  pop\n    /* \"#utility.yul\":2846:2906   */\n  swap2\n  swap1\n  pop\n  jump\t// out\n    /* \"#utility.yul\":2912:3054   */\ntag_29:\n    /* \"#utility.yul\":2962:2971   */\n  0x00\n    /* \"#utility.yul\":2995:3048   */\n  tag_71\n    /* \"#utility.yul\":3013:3047   */\n  tag_72\n    /* \"#utility.yul\":3022:3046   */\n  tag_73\n    /* \"#utility.yul\":3040:3045   */\n  dup5\n    /* \"#utility.yul\":3022:3046   */\n  tag_27\n  jump\t// in\ntag_73:\n    /* \"#utility.yul\":3013:3047   */\n  tag_28\n  jump\t// in\ntag_72:\n    /* \"#utility.yul\":2995:3048   */\n  tag_27\n  jump\t// in\ntag_71:\n    /* \"#utility.yul\":2982:3048   */\n  swap1\n  pop\n    /* \"#utility.yul\":2912:3054   */\n  swap2\n  swap1\n  pop\n  jump\t// out\n    /* \"#utility.yul\":3060:3135   */\ntag_30:\n    /* \"#utility.yul\":3103:3106   */\n  0x00\n    /* \"#utility.yul\":3124:3129   */\n  dup2\n    /* \"#utility.yul\":3117:3129   */\n  swap1\n  pop\n    /* \"#utility.yul\":3060:3135   */\n  swap2\n  swap1\n  pop\n  jump\t// out\n    /* \"#utility.yul\":3141:3410   */\ntag_31:\n    /* \"#utility.yul\":3251:3290   */\n  tag_76\n    /* \"#utility.yul\":3282:3289   */\n  dup4\n    /* \"#utility.yul\":3251:3290   */\n  tag_29\n  jump\t// in\ntag_76:\n    /* \"#utility.yul\":3312:3403   */\n  tag_77\n    /* \"#utility.yul\":3361:3402   */\n  tag_78\n    /* \"#utility.yul\":3385:3401   */\n  dup3\n    /* \"#utility.yul\":3361:3402   */\n  tag_30\n  jump\t// in\ntag_78:\n    /* \"#utility.yul\":3353:3359   */\n  dup5\n    /* \"#utility.yul\":3346:3350   */\n  dup5\n    /* \"#utility.yul\":3340:3351   */\n  sload\n    /* \"#utility.yul\":3312:3403   */\n  tag_26\n  jump\t// in\ntag_77:\n    /* \"#utility.yul\":3306:3310   */\n  dup3\n    /* \"#utility.yul\":3299:3404   */\n  sstore\n    /* \"#utility.yul\":3217:3410   */\n  pop\n    /* \"#utility.yul\":3141:3410   */\n  pop\n  pop\n  pop\n  jump\t// out\n    /* \"#utility.yul\":3416:3489   */\ntag_32:\n    /* \"#utility.yul\":3461:3464   */\n  0x00\n    /* \"#utility.yul\":3416:3489   */\n  swap1\n  jump\t// out\n    /* \"#utility.yul\":3495:3684   */\ntag_33:\n    /* \"#utility.yul\":3572:3604   */\n  tag_81\n  tag_32\n  jump\t// in\ntag_81:\n    /* \"#utility.yul\":3613:3678   */\n  tag_82\n    /* \"#utility.yul\":3671:3677   */\n  dup2\n    /* \"#utility.yul\":3663:3669   */\n  dup5\n    /* \"#utility.yul\":3657:3661   */\n  dup5\n    /* \"#utility.yul\":3613:3678   */\n  tag_31\n  jump\t// in\ntag_82:\n    /* \"#utility.yul\":3548:3684   */\n  pop\n    /* \"#utility.yul\":3495:3684   */\n  pop\n  pop\n  jump\t// out\n    /* \"#utility.yul\":3690:3876   */\ntag_34:\n    /* \"#utility.yul\":3750:3870   */\ntag_84:\n    /* \"#utility.yul\":3767:3770   */\n  dup2\n    /* \"#utility.yul\":3760:3765   */\n  dup2\n    /* \"#utility.yul\":3757:3771   */\n  lt\n    /* \"#utility.yul\":3750:3870   */\n  iszero\n  tag_86\n  jumpi\n    /* \"#utility.yul\":3821:3860   */\n  tag_87\n    /* \"#utility.yul\":3858:3859   */\n  0x00\n    /* \"#utility.yul\":3851:3856   */\n  dup3\n    /* \"#utility.yul\":3821:3860   */\n  tag_33\n  jump\t// in\ntag_87:\n    /* \"#utility.yul\":3794:3795   */\n  0x01\n    /* \"#utility.yul\":3787:3792   */\n  dup2\n    /* \"#utility.yul\":3783:3796   */\n  add\n    /* \"#utility.yul\":3774:3796   */\n  swap1\n  pop\n    /* \"#utility.yul\":3750:3870   */\n  jump(tag_84)\ntag_86:\n    /* \"#utility.yul\":3690:3876   */\n  pop\n  pop\n  jump\t// out\n    /* \"#utility.yul\":3882:4425   */\ntag_35:\n    /* \"#utility.yul\":3983:3985   */\n  0x1f\n    /* \"#utility.yul\":3978:3981   */\n  dup3\n    /* \"#utility.yul\":3975:3986   */\n  gt\n    /* \"#utility.yul\":3972:4418   */\n  iszero\n  tag_89\n  jumpi\n    /* \"#utility.yul\":4017:4055   */\n  tag_90\n    /* \"#utility.yul\":4049:4054   */\n  dup2\n    /* \"#utility.yul\":4017:4055   */\n  tag_23\n  jump\t// in\ntag_90:\n    /* \"#utility.yul\":4101:4130   */\n  tag_91\n    /* \"#utility.yul\":4119:4129   */\n  dup5\n    /* \"#utility.yul\":4101:4130   */\n  tag_24\n  jump\t// in\ntag_91:\n    /* \"#utility.yul\":4091:4099   */\n  dup2\n    /* \"#utility.yul\":4087:4131   */\n  add\n    /* \"#utility.yul\":4284:4286   */\n  0x20\n    /* \"#utility.yul\":4272:4282   */\n  dup6\n    /* \"#utility.yul\":4269:4287   */\n  lt\n    /* \"#utility.yul\":4266:4315   */\n  iszero\n  tag_92\n  jumpi\n    /* \"#utility.yul\":4305:4313   */\n  dup2\n    /* \"#utility.yul\":4290:4313   */\n  swap1\n  pop\n    /* \"#utility.yul\":4266:4315   */\ntag_92:\n    /* \"#utility.yul\":4328:4408   */\n  tag_93\n    /* \"#utility.yul\":4384:4406   */\n  tag_94\n    /* \"#utility.yul\":4402:4405   */\n  dup6\n    /* \"#utility.yul\":4384:4406   */\n  tag_24\n  jump\t// in\ntag_94:\n    /* \"#utility.yul\":4374:4382   */\n  dup4\n    /* \"#utility.yul\":4370:4407   */\n  add\n    /* \"#utility.yul\":4357:4368   */\n  dup3\n    /* \"#utility.yul\":4328:4408   */\n  tag_34\n  jump\t// in\ntag_93:\n    /* \"#utility.yul\":3987:4418   */\n  pop\n  pop\n    /* \"#utility.yul\":3972:4418   */\ntag_89:\n    /* \"#utility.yul\":3882:4425   */\n  pop\n  pop\n  pop\n  jump\t// out\n    /* \"#utility.yul\":4431:4548   */\ntag_36:\n    /* \"#utility.yul\":4485:4493   */\n  0x00\n    /* \"#utility.yul\":4535:4540   */\n  dup3\n    /* \"#utility.yul\":4529:4533   */\n  dup3\n    /* \"#utility.yul\":4525:4541   */\n  shr\n    /* \"#utility.yul\":4504:4541   */\n  swap1\n  pop\n    /* \"#utility.yul\":4431:4548   */\n  swap3\n  swap2\n  pop\n  pop\n  jump\t// out\n    /* \"#utility.yul\":4554:4723   */\ntag_37:\n    /* \"#utility.yul\":4598:4604   */\n  0x00\n    /* \"#utility.yul\":4631:4682   */\n  tag_97\n    /* \"#utility.yul\":4679:4680   */\n  0x00\n    /* \"#utility.yul\":4675:4681   */\n  not\n    /* \"#utility.yul\":4667:4672   */\n  dup5\n    /* \"#utility.yul\":4664:4665   */\n  0x08\n    /* \"#utility.yul\":4660:4673   */\n  mul\n    /* \"#utility.yul\":4631:4682   */\n  tag_36\n  jump\t// in\ntag_97:\n    /* \"#utility.yul\":4627:4683   */\n  not\n    /* \"#utility.yul\":4712:4716   */\n  dup1\n    /* \"#utility.yul\":4706:4710   */\n  dup4\n    /* \"#utility.yul\":4702:4717   */\n  and\n    /* \"#utility.yul\":4692:4717   */\n  swap2\n  pop\n    /* \"#utility.yul\":4605:4723   */\n  pop\n    /* \"#utility.yul\":4554:4723   */\n  swap3\n  swap2\n  pop\n  pop\n  jump\t// out\n    /* \"#utility.yul\":4728:5023   */\ntag_38:\n    /* \"#utility.yul\":4804:4808   */\n  0x00\n    /* \"#utility.yul\":4950:4979   */\n  tag_99\n    /* \"#utility.yul\":4975:4978   */\n  dup4\n    /* \"#utility.yul\":4969:4973   */\n  dup4\n    /* \"#utility.yul\":4950:4979   */\n  tag_37\n  jump\t// in\ntag_99:\n    /* \"#utility.yul\":4942:4979   */\n  swap2\n  pop\n    /* \"#utility.yul\":5012:5015   */\n  dup3\n    /* \"#utility.yul\":5009:5010   */\n  0x02\n    /* \"#utility.yul\":5005:5016   */\n  mul\n    /* \"#utility.yul\":4999:5003   */\n  dup3\n    /* \"#utility.yul\":4996:5017   */\n  or\n    /* \"#utility.yul\":4988:5017   */\n  swap1\n  pop\n    /* \"#utility.yul\":4728:5023   */\n  swap3\n  swap2\n  pop\n  pop\n  jump\t// out\n    /* \"#utility.yul\":5028:6423   */\ntag_8:\n    /* \"#utility.yul\":5145:5182   */\n  tag_101\n    /* \"#utility.yul\":5178:5181   */\n  dup3\n    /* \"#utility.yul\":5145:5182   */\n  tag_19\n  jump\t// in\ntag_101:\n    /* \"#utility.yul\":5247:5265   */\n  0xffffffffffffffff\n    /* \"#utility.yul\":5239:5245   */\n  dup2\n    /* \"#utility.yul\":5236:5266   */\n  gt\n    /* \"#utility.yul\":5233:5289   */\n  iszero\n  tag_102\n  jumpi\n    /* \"#utility.yul\":5269:5287   */\n  tag_103\n  tag_20\n  jump\t// in\ntag_103:\n    /* \"#utility.yul\":5233:5289   */\ntag_102:\n    /* \"#utility.yul\":5313:5351   */\n  tag_104\n    /* \"#utility.yul\":5345:5349   */\n  dup3\n    /* \"#utility.yul\":5339:5350   */\n  sload\n    /* \"#utility.yul\":5313:5351   */\n  tag_22\n  jump\t// in\ntag_104:\n    /* \"#utility.yul\":5398:5465   */\n  tag_105\n    /* \"#utility.yul\":5458:5464   */\n  dup3\n    /* \"#utility.yul\":5450:5456   */\n  dup3\n    /* \"#utility.yul\":5444:5448   */\n  dup6\n    /* \"#utility.yul\":5398:5465   */\n  tag_35\n  jump\t// in\ntag_105:\n    /* \"#utility.yul\":5492:5493   */\n  0x00\n    /* \"#utility.yul\":5516:5520   */\n  0x20\n    /* \"#utility.yul\":5503:5520   */\n  swap1\n  pop\n    /* \"#utility.yul\":5548:5550   */\n  0x1f\n    /* \"#utility.yul\":5540:5546   */\n  dup4\n    /* \"#utility.yul\":5537:5551   */\n  gt\n    /* \"#utility.yul\":5565:5566   */\n  0x01\n    /* \"#utility.yul\":5560:6178   */\n  dup2\n  eq\n  tag_107\n  jumpi\n    /* \"#utility.yul\":6222:6223   */\n  0x00\n    /* \"#utility.yul\":6239:6245   */\n  dup5\n    /* \"#utility.yul\":6236:6313   */\n  iszero\n  tag_108\n  jumpi\n    /* \"#utility.yul\":6288:6297   */\n  dup3\n    /* \"#utility.yul\":6283:6286   */\n  dup8\n    /* \"#utility.yul\":6279:6298   */\n  add\n    /* \"#utility.yul\":6273:6299   */\n  mload\n    /* \"#utility.yul\":6264:6299   */\n  swap1\n  pop\n    /* \"#utility.yul\":6236:6313   */\ntag_108:\n    /* \"#utility.yul\":6339:6406   */\n  tag_109\n    /* \"#utility.yul\":6399:6405   */\n  dup6\n    /* \"#utility.yul\":6392:6397   */\n  dup3\n    /* \"#utility.yul\":6339:6406   */\n  tag_38\n  jump\t// in\ntag_109:\n    /* \"#utility.yul\":6333:6337   */\n  dup7\n    /* \"#utility.yul\":6326:6407   */\n  sstore\n    /* \"#utility.yul\":6195:6417   */\n  pop\n    /* \"#utility.yul\":5530:6417   */\n  jump(tag_106)\n    /* \"#utility.yul\":5560:6178   */\ntag_107:\n    /* \"#utility.yul\":5612:5616   */\n  0x1f\n    /* \"#utility.yul\":5608:5617   */\n  not\n    /* \"#utility.yul\":5600:5606   */\n  dup5\n    /* \"#utility.yul\":5596:5618   */\n  and\n    /* \"#utility.yul\":5646:5683   */\n  tag_110\n    /* \"#utility.yul\":5678:5682   */\n  dup7\n    /* \"#utility.yul\":5646:5683   */\n  tag_23\n  jump\t// in\ntag_110:\n    /* \"#utility.yul\":5705:5706   */\n  0x00\n    /* \"#utility.yul\":5719:5927   */\ntag_111:\n    /* \"#utility.yul\":5733:5740   */\n  dup3\n    /* \"#utility.yul\":5730:5731   */\n  dup2\n    /* \"#utility.yul\":5727:5741   */\n  lt\n    /* \"#utility.yul\":5719:5927   */\n  iszero\n  tag_113\n  jumpi\n    /* \"#utility.yul\":5812:5821   */\n  dup5\n    /* \"#utility.yul\":5807:5810   */\n  dup10\n    /* \"#utility.yul\":5803:5822   */\n  add\n    /* \"#utility.yul\":5797:5823   */\n  mload\n    /* \"#utility.yul\":5789:5795   */\n  dup3\n    /* \"#utility.yul\":5782:5824   */\n  sstore\n    /* \"#utility.yul\":5863:5864   */\n  0x01\n    /* \"#utility.yul\":5855:5861   */\n  dup3\n    /* \"#utility.yul\":5851:5865   */\n  add\n    /* \"#utility.yul\":5841:5865   */\n  swap2\n  pop\n    /* \"#utility.yul\":5910:5912   */\n  0x20\n    /* \"#utility.yul\":5899:5908   */\n  dup6\n    /* \"#utility.yul\":5895:5913   */\n  add\n    /* \"#utility.yul\":5882:5913   */\n  swap5\n  pop\n    /* \"#utility.yul\":5756:5760   */\n  0x20\n    /* \"#utility.yul\":5753:5754   */\n  dup2\n    /* \"#utility.yul\":5749:5761   */\n  add\n    /* \"#utility.yul\":5744:5761   */\n  swap1\n  pop\n    /* \"#utility.yul\":5719:5927   */\n  jump(tag_111)\ntag_113:\n    /* \"#utility.yul\":5955:5961   */\n  dup7\n    /* \"#utility.yul\":5946:5953   */\n  dup4\n    /* \"#utility.yul\":5943:5962   */\n  lt\n    /* \"#utility.yul\":5940:6119   */\n  iszero\n  tag_114\n  jumpi\n    /* \"#utility.yul\":6013:6022   */\n  dup5\n    /* \"#utility.yul\":6008:6011   */\n  dup10\n    /* \"#utility.yul\":6004:6023   */\n  add\n    /* \"#utility.yul\":5998:6024   */\n  mload\n    /* \"#utility.yul\":6056:6104   */\n  tag_115\n    /* \"#utility.yul\":6098:6102   */\n  0x1f\n    /* \"#utility.yul\":6090:6096   */\n  dup10\n    /* \"#utility.yul\":6086:6103   */\n  and\n    /* \"#utility.yul\":6075:6084   */\n  dup3\n    /* \"#utility.yul\":6056:6104   */\n  tag_37\n  jump\t// in\ntag_115:\n    /* \"#utility.yul\":6048:6054   */\n  dup4\n    /* \"#utility.yul\":6041:6105   */\n  sstore\n    /* \"#utility.yul\":5963:6119   */\n  pop\n    /* \"#utility.yul\":5940:6119   */\ntag_114:\n    /* \"#utility.yul\":6165:6166   */\n  0x01\n    /* \"#utility.yul\":6161:6162   */\n  0x02\n    /* \"#utility.yul\":6153:6159   */\n  dup9\n    /* \"#utility.yul\":6149:6163   */\n  mul\n    /* \"#utility.yul\":6145:6167   */\n  add\n    /* \"#utility.yul\":6139:6143   */\n  dup9\n    /* \"#utility.yul\":6132:6168   */\n  sstore\n    /* \"#utility.yul\":5567:6178   */\n  pop\n  pop\n  pop\n    /* \"#utility.yul\":5530:6417   */\ntag_106:\n  pop\n    /* \"#utility.yul\":5120:6423   */\n  pop\n  pop\n  pop\n    /* \"#utility.yul\":5028:6423   */\n  pop\n  pop\n  jump\t// out\n    /* \"FundTokenERC20_flattened.sol\":27992:30949  contract FundTokenERC20 is ERC20 {... */\ntag_11:\n  dataSize(sub_0)\n  dup1\n  dataOffset(sub_0)\n  0x00\n  codecopy\n  0x00\n  return\nstop\n\nsub_0: assembly {\n        /* \"FundTokenERC20_flattened.sol\":27992:30949  contract FundTokenERC20 is ERC20 {... */\n      mstore(0x40, 0x80)\n      callvalue\n      dup1\n      iszero\n      tag_1\n      jumpi\n      0x00\n      dup1\n      revert\n    tag_1:\n      pop\n      jumpi(tag_2, lt(calldatasize, 0x04))\n      shr(0xe0, calldataload(0x00))\n      dup1\n      0x379607f5\n      gt\n      tag_14\n      jumpi\n      dup1\n      0x379607f5\n      eq\n      tag_8\n      jumpi\n      dup1\n      0x70a08231\n      eq\n      tag_9\n      jumpi\n      dup1\n      0x95d89b41\n      eq\n      tag_10\n      jumpi\n      dup1\n      0xa0712d68\n      eq\n      tag_11\n      jumpi\n      dup1\n      0xa9059cbb\n      eq\n      tag_12\n      jumpi\n      dup1\n      0xdd62ed3e\n      eq\n      tag_13\n      jumpi\n      jump(tag_2)\n    tag_14:\n      dup1\n      0x06fdde03\n      eq\n      tag_3\n      jumpi\n      dup1\n      0x095ea7b3\n      eq\n      tag_4\n      jumpi\n      dup1\n      0x18160ddd\n      eq\n      tag_5\n      jumpi\n      dup1\n      0x23b872dd\n      eq\n      tag_6\n      jumpi\n      dup1\n      0x313ce567\n      eq\n      tag_7\n      jumpi\n    tag_2:\n      0x00\n      dup1\n      revert\n        /* \"FundTokenERC20_flattened.sol\":12629:12718  function name() public view virtual returns (string memory) {... */\n    tag_3:\n      tag_15\n      tag_16\n      jump\t// in\n    tag_15:\n      mload(0x40)\n      tag_17\n      swap2\n      swap1\n      tag_18\n      jump\t// in\n    tag_17:\n      mload(0x40)\n      dup1\n      swap2\n      sub\n      swap1\n      return\n        /* \"FundTokenERC20_flattened.sol\":14848:15034  function approve(address spender, uint256 value) public virtual returns (bool) {... */\n    tag_4:\n      tag_19\n      0x04\n      dup1\n      calldatasize\n      sub\n      dup2\n      add\n      swap1\n      tag_20\n      swap2\n      swap1\n      tag_21\n      jump\t// in\n    tag_20:\n      tag_22\n      jump\t// in\n    tag_19:\n      mload(0x40)\n      tag_23\n      swap2\n      swap1\n      tag_24\n      jump\t// in\n    tag_23:\n      mload(0x40)\n      dup1\n      swap2\n      sub\n      swap1\n      return\n        /* \"FundTokenERC20_flattened.sol\":13699:13796  function totalSupply() public view virtual returns (uint256) {... */\n    tag_5:\n      tag_25\n      tag_26\n      jump\t// in\n    tag_25:\n      mload(0x40)\n      tag_27\n      swap2\n      swap1\n      tag_28\n      jump\t// in\n    tag_27:\n      mload(0x40)\n      dup1\n      swap2\n      sub\n      swap1\n      return\n        /* \"FundTokenERC20_flattened.sol\":15626:15870  function transferFrom(address from, address to, uint256 value) public virtual returns (bool) {... */\n    tag_6:\n      tag_29\n      0x04\n      dup1\n      calldatasize\n      sub\n      dup2\n      add\n      swap1\n      tag_30\n      swap2\n      swap1\n      tag_31\n      jump\t// in\n    tag_30:\n      tag_32\n      jump\t// in\n    tag_29:\n      mload(0x40)\n      tag_33\n      swap2\n      swap1\n      tag_24\n      jump\t// in\n    tag_33:\n      mload(0x40)\n      dup1\n      swap2\n      sub\n      swap1\n      return\n        /* \"FundTokenERC20_flattened.sol\":13557:13639  function decimals() public view virtual returns (uint8) {... */\n    tag_7:\n      tag_34\n      tag_35\n      jump\t// in\n    tag_34:\n      mload(0x40)\n      tag_36\n      swap2\n      swap1\n      tag_37\n      jump\t// in\n    tag_36:\n      mload(0x40)\n      dup1\n      swap2\n      sub\n      swap1\n      return\n        /* \"FundTokenERC20_flattened.sol\":29209:29556  function claim(uint256 amountToClaim) public afterGetFund {... */\n    tag_8:\n      tag_38\n      0x04\n      dup1\n      calldatasize\n      sub\n      dup2\n      add\n      swap1\n      tag_39\n      swap2\n      swap1\n      tag_40\n      jump\t// in\n    tag_39:\n      tag_41\n      jump\t// in\n    tag_38:\n      stop\n        /* \"FundTokenERC20_flattened.sol\":13854:13970  function balanceOf(address account) public view virtual returns (uint256) {... */\n    tag_9:\n      tag_42\n      0x04\n      dup1\n      calldatasize\n      sub\n      dup2\n      add\n      swap1\n      tag_43\n      swap2\n      swap1\n      tag_44\n      jump\t// in\n    tag_43:\n      tag_45\n      jump\t// in\n    tag_42:\n      mload(0x40)\n      tag_46\n      swap2\n      swap1\n      tag_28\n      jump\t// in\n    tag_46:\n      mload(0x40)\n      dup1\n      swap2\n      sub\n      swap1\n      return\n        /* \"FundTokenERC20_flattened.sol\":12831:12924  function symbol() public view virtual returns (string memory) {... */\n    tag_10:\n      tag_47\n      tag_48\n      jump\t// in\n    tag_47:\n      mload(0x40)\n      tag_49\n      swap2\n      swap1\n      tag_18\n      jump\t// in\n    tag_49:\n      mload(0x40)\n      dup1\n      swap2\n      sub\n      swap1\n      return\n        /* \"FundTokenERC20_flattened.sol\":28749:29190  function mint(uint256 amountToMint) public afterGetFund {... */\n    tag_11:\n      tag_50\n      0x04\n      dup1\n      calldatasize\n      sub\n      dup2\n      add\n      swap1\n      tag_51\n      swap2\n      swap1\n      tag_40\n      jump\t// in\n    tag_51:\n      tag_52\n      jump\t// in\n    tag_50:\n      stop\n        /* \"FundTokenERC20_flattened.sol\":14165:14343  function transfer(address to, uint256 value) public virtual returns (bool) {... */\n    tag_12:\n      tag_53\n      0x04\n      dup1\n      calldatasize\n      sub\n      dup2\n      add\n      swap1\n      tag_54\n      swap2\n      swap1\n      tag_21\n      jump\t// in\n    tag_54:\n      tag_55\n      jump\t// in\n    tag_53:\n      mload(0x40)\n      tag_56\n      swap2\n      swap1\n      tag_24\n      jump\t// in\n    tag_56:\n      mload(0x40)\n      dup1\n      swap2\n      sub\n      swap1\n      return\n        /* \"FundTokenERC20_flattened.sol\":14401:14541  function allowance(address owner, address spender) public view virtual returns (uint256) {... */\n    tag_13:\n      tag_57\n      0x04\n      dup1\n      calldatasize\n      sub\n      dup2\n      add\n      swap1\n      tag_58\n      swap2\n      swap1\n      tag_59\n      jump\t// in\n    tag_58:\n      tag_60\n      jump\t// in\n    tag_57:\n      mload(0x40)\n      tag_61\n      swap2\n      swap1\n      tag_28\n      jump\t// in\n    tag_61:\n      mload(0x40)\n      dup1\n      swap2\n      sub\n      swap1\n      return\n        /* \"FundTokenERC20_flattened.sol\":12629:12718  function name() public view virtual returns (string memory) {... */\n    tag_16:\n        /* \"FundTokenERC20_flattened.sol\":12674:12687  string memory */\n      0x60\n        /* \"FundTokenERC20_flattened.sol\":12706:12711  _name */\n      0x03\n        /* \"FundTokenERC20_flattened.sol\":12699:12711  return _name */\n      dup1\n      sload\n      tag_63\n      swap1\n      tag_64\n      jump\t// in\n    tag_63:\n      dup1\n      0x1f\n      add\n      0x20\n      dup1\n      swap2\n      div\n      mul\n      0x20\n      add\n      mload(0x40)\n      swap1\n      dup2\n      add\n      0x40\n      mstore\n      dup1\n      swap3\n      swap2\n      swap1\n      dup2\n      dup2\n      mstore\n      0x20\n      add\n      dup3\n      dup1\n      sload\n      tag_65\n      swap1\n      tag_64\n      jump\t// in\n    tag_65:\n      dup1\n      iszero\n      tag_66\n      jumpi\n      dup1\n      0x1f\n      lt\n      tag_67\n      jumpi\n      0x0100\n      dup1\n      dup4\n      sload\n      div\n      mul\n      dup4\n      mstore\n      swap2\n      0x20\n      add\n      swap2\n      jump(tag_66)\n    tag_67:\n      dup3\n      add\n      swap2\n      swap1\n      0x00\n      mstore\n      keccak256(0x00, 0x20)\n      swap1\n    tag_68:\n      dup2\n      sload\n      dup2\n      mstore\n      swap1\n      0x01\n      add\n      swap1\n      0x20\n      add\n      dup1\n      dup4\n      gt\n      tag_68\n      jumpi\n      dup3\n      swap1\n      sub\n      0x1f\n      and\n      dup3\n      add\n      swap2\n    tag_66:\n      pop\n      pop\n      pop\n      pop\n      pop\n      swap1\n      pop\n        /* \"FundTokenERC20_flattened.sol\":12629:12718  function name() public view virtual returns (string memory) {... */\n      swap1\n      jump\t// out\n        /* \"FundTokenERC20_flattened.sol\":14848:15034  function approve(address spender, uint256 value) public virtual returns (bool) {... */\n    tag_22:\n        /* \"FundTokenERC20_flattened.sol\":14921:14925  bool */\n      0x00\n        /* \"FundTokenERC20_flattened.sol\":14937:14950  address owner */\n      dup1\n        /* \"FundTokenERC20_flattened.sol\":14953:14965  _msgSender() */\n      tag_70\n        /* \"FundTokenERC20_flattened.sol\":14953:14963  _msgSender */\n      tag_71\n        /* \"FundTokenERC20_flattened.sol\":14953:14965  _msgSender() */\n      jump\t// in\n    tag_70:\n        /* \"FundTokenERC20_flattened.sol\":14937:14965  address owner = _msgSender() */\n      swap1\n      pop\n        /* \"FundTokenERC20_flattened.sol\":14975:15006  _approve(owner, spender, value) */\n      tag_72\n        /* \"FundTokenERC20_flattened.sol\":14984:14989  owner */\n      dup2\n        /* \"FundTokenERC20_flattened.sol\":14991:14998  spender */\n      dup6\n        /* \"FundTokenERC20_flattened.sol\":15000:15005  value */\n      dup6\n        /* \"FundTokenERC20_flattened.sol\":14975:14983  _approve */\n      tag_73\n        /* \"FundTokenERC20_flattened.sol\":14975:15006  _approve(owner, spender, value) */\n      jump\t// in\n    tag_72:\n        /* \"FundTokenERC20_flattened.sol\":15023:15027  true */\n      0x01\n        /* \"FundTokenERC20_flattened.sol\":15016:15027  return true */\n      swap2\n      pop\n      pop\n        /* \"FundTokenERC20_flattened.sol\":14848:15034  function approve(address spender, uint256 value) public virtual returns (bool) {... */\n      swap3\n      swap2\n      pop\n      pop\n      jump\t// out\n        /* \"FundTokenERC20_flattened.sol\":13699:13796  function totalSupply() public view virtual returns (uint256) {... */\n    tag_26:\n        /* \"FundTokenERC20_flattened.sol\":13751:13758  uint256 */\n      0x00\n        /* \"FundTokenERC20_flattened.sol\":13777:13789  _totalSupply */\n      sload(0x02)\n        /* \"FundTokenERC20_flattened.sol\":13770:13789  return _totalSupply */\n      swap1\n      pop\n        /* \"FundTokenERC20_flattened.sol\":13699:13796  function totalSupply() public view virtual returns (uint256) {... */\n      swap1\n      jump\t// out\n        /* \"FundTokenERC20_flattened.sol\":15626:15870  function transferFrom(address from, address to, uint256 value) public virtual returns (bool) {... */\n    tag_32:\n        /* \"FundTokenERC20_flattened.sol\":15713:15717  bool */\n      0x00\n        /* \"FundTokenERC20_flattened.sol\":15729:15744  address spender */\n      dup1\n        /* \"FundTokenERC20_flattened.sol\":15747:15759  _msgSender() */\n      tag_76\n        /* \"FundTokenERC20_flattened.sol\":15747:15757  _msgSender */\n      tag_71\n        /* \"FundTokenERC20_flattened.sol\":15747:15759  _msgSender() */\n      jump\t// in\n    tag_76:\n        /* \"FundTokenERC20_flattened.sol\":15729:15759  address spender = _msgSender() */\n      swap1\n      pop\n        /* \"FundTokenERC20_flattened.sol\":15769:15806  _spendAllowance(from, spender, value) */\n      tag_77\n        /* \"FundTokenERC20_flattened.sol\":15785:15789  from */\n      dup6\n        /* \"FundTokenERC20_flattened.sol\":15791:15798  spender */\n      dup3\n        /* \"FundTokenERC20_flattened.sol\":15800:15805  value */\n      dup6\n        /* \"FundTokenERC20_flattened.sol\":15769:15784  _spendAllowance */\n      tag_78\n        /* \"FundTokenERC20_flattened.sol\":15769:15806  _spendAllowance(from, spender, value) */\n      jump\t// in\n    tag_77:\n        /* \"FundTokenERC20_flattened.sol\":15816:15842  _transfer(from, to, value) */\n      tag_79\n        /* \"FundTokenERC20_flattened.sol\":15826:15830  from */\n      dup6\n        /* \"FundTokenERC20_flattened.sol\":15832:15834  to */\n      dup6\n        /* \"FundTokenERC20_flattened.sol\":15836:15841  value */\n      dup6\n        /* \"FundTokenERC20_flattened.sol\":15816:15825  _transfer */\n      tag_80\n        /* \"FundTokenERC20_flattened.sol\":15816:15842  _transfer(from, to, value) */\n      jump\t// in\n    tag_79:\n        /* \"FundTokenERC20_flattened.sol\":15859:15863  true */\n      0x01\n        /* \"FundTokenERC20_flattened.sol\":15852:15863  return true */\n      swap2\n      pop\n      pop\n        /* \"FundTokenERC20_flattened.sol\":15626:15870  function transferFrom(address from, address to, uint256 value) public virtual returns (bool) {... */\n      swap4\n      swap3\n      pop\n      pop\n      pop\n      jump\t// out\n        /* \"FundTokenERC20_flattened.sol\":13557:13639  function decimals() public view virtual returns (uint8) {... */\n    tag_35:\n        /* \"FundTokenERC20_flattened.sol\":13606:13611  uint8 */\n      0x00\n        /* \"FundTokenERC20_flattened.sol\":13630:13632  18 */\n      0x12\n        /* \"FundTokenERC20_flattened.sol\":13623:13632  return 18 */\n      swap1\n      pop\n        /* \"FundTokenERC20_flattened.sol\":13557:13639  function decimals() public view virtual returns (uint8) {... */\n      swap1\n      jump\t// out\n        /* \"FundTokenERC20_flattened.sol\":29209:29556  function claim(uint256 amountToClaim) public afterGetFund {... */\n    tag_41:\n        /* \"FundTokenERC20_flattened.sol\":29603:29609  fundMe */\n      0x05\n      0x00\n      swap1\n      sload\n      swap1\n      0x0100\n      exp\n      swap1\n      div\n      0xffffffffffffffffffffffffffffffffffffffff\n      and\n        /* \"FundTokenERC20_flattened.sol\":29603:29624  fundMe.getFundSuccess */\n      0xffffffffffffffffffffffffffffffffffffffff\n      and\n      0xda4658e0\n        /* \"FundTokenERC20_flattened.sol\":29603:29626  fundMe.getFundSuccess() */\n      mload(0x40)\n      dup2\n      0xffffffff\n      and\n      0xe0\n      shl\n      dup2\n      mstore\n      0x04\n      add\n      0x20\n      mload(0x40)\n      dup1\n      dup4\n      sub\n      dup2\n      dup7\n      gas\n      staticcall\n      iszero\n      dup1\n      iszero\n      tag_84\n      jumpi\n      returndatasize\n      0x00\n      dup1\n      returndatacopy\n      revert(0x00, returndatasize)\n    tag_84:\n      pop\n      pop\n      pop\n      pop\n      mload(0x40)\n      returndatasize\n      not(0x1f)\n      0x1f\n      dup3\n      add\n      and\n      dup3\n      add\n      dup1\n      0x40\n      mstore\n      pop\n      dup2\n      add\n      swap1\n      tag_85\n      swap2\n      swap1\n      tag_86\n      jump\t// in\n    tag_85:\n        /* \"FundTokenERC20_flattened.sol\":29595:29662  require(fundMe.getFundSuccess(), \"The fundme is not completed yet\") */\n      tag_87\n      jumpi\n      mload(0x40)\n      0x08c379a000000000000000000000000000000000000000000000000000000000\n      dup2\n      mstore\n      0x04\n      add\n      tag_88\n      swap1\n      tag_89\n      jump\t// in\n    tag_88:\n      mload(0x40)\n      dup1\n      swap2\n      sub\n      swap1\n      revert\n    tag_87:\n        /* \"FundTokenERC20_flattened.sol\":29428:29441  amountToClaim */\n      dup1\n        /* \"FundTokenERC20_flattened.sol\":29403:29424  balanceOf(msg.sender) */\n      tag_91\n        /* \"FundTokenERC20_flattened.sol\":29413:29423  msg.sender */\n      caller\n        /* \"FundTokenERC20_flattened.sol\":29403:29412  balanceOf */\n      tag_45\n        /* \"FundTokenERC20_flattened.sol\":29403:29424  balanceOf(msg.sender) */\n      jump\t// in\n    tag_91:\n        /* \"FundTokenERC20_flattened.sol\":29403:29441  balanceOf(msg.sender) >= amountToClaim */\n      lt\n      iszero\n        /* \"FundTokenERC20_flattened.sol\":29395:29479  require(balanceOf(msg.sender) >= amountToClaim, \"you dont have enough ERC20 tokens\") */\n      tag_92\n      jumpi\n      mload(0x40)\n      0x08c379a000000000000000000000000000000000000000000000000000000000\n      dup2\n      mstore\n      0x04\n      add\n      tag_93\n      swap1\n      tag_94\n      jump\t// in\n    tag_93:\n      mload(0x40)\n      dup1\n      swap2\n      sub\n      swap1\n      revert\n    tag_92:\n        /* \"FundTokenERC20_flattened.sol\":29517:29549  _burn(msg.sender, amountToClaim) */\n      tag_95\n        /* \"FundTokenERC20_flattened.sol\":29523:29533  msg.sender */\n      caller\n        /* \"FundTokenERC20_flattened.sol\":29535:29548  amountToClaim */\n      dup3\n        /* \"FundTokenERC20_flattened.sol\":29517:29522  _burn */\n      tag_96\n        /* \"FundTokenERC20_flattened.sol\":29517:29549  _burn(msg.sender, amountToClaim) */\n      jump\t// in\n    tag_95:\n        /* \"FundTokenERC20_flattened.sol\":29209:29556  function claim(uint256 amountToClaim) public afterGetFund {... */\n      pop\n      jump\t// out\n        /* \"FundTokenERC20_flattened.sol\":13854:13970  function balanceOf(address account) public view virtual returns (uint256) {... */\n    tag_45:\n        /* \"FundTokenERC20_flattened.sol\":13919:13926  uint256 */\n      0x00\n        /* \"FundTokenERC20_flattened.sol\":13945:13954  _balances */\n      dup1\n        /* \"FundTokenERC20_flattened.sol\":13945:13963  _balances[account] */\n      0x00\n        /* \"FundTokenERC20_flattened.sol\":13955:13962  account */\n      dup4\n        /* \"FundTokenERC20_flattened.sol\":13945:13963  _balances[account] */\n      0xffffffffffffffffffffffffffffffffffffffff\n      and\n      0xffffffffffffffffffffffffffffffffffffffff\n      and\n      dup2\n      mstore\n      0x20\n      add\n      swap1\n      dup2\n      mstore\n      0x20\n      add\n      0x00\n      keccak256\n      sload\n        /* \"FundTokenERC20_flattened.sol\":13938:13963  return _balances[account] */\n      swap1\n      pop\n        /* \"FundTokenERC20_flattened.sol\":13854:13970  function balanceOf(address account) public view virtual returns (uint256) {... */\n      swap2\n      swap1\n      pop\n      jump\t// out\n        /* \"FundTokenERC20_flattened.sol\":12831:12924  function symbol() public view virtual returns (string memory) {... */\n    tag_48:\n        /* \"FundTokenERC20_flattened.sol\":12878:12891  string memory */\n      0x60\n        /* \"FundTokenERC20_flattened.sol\":12910:12917  _symbol */\n      0x04\n        /* \"FundTokenERC20_flattened.sol\":12903:12917  return _symbol */\n      dup1\n      sload\n      tag_99\n      swap1\n      tag_64\n      jump\t// in\n    tag_99:\n      dup1\n      0x1f\n      add\n      0x20\n      dup1\n      swap2\n      div\n      mul\n      0x20\n      add\n      mload(0x40)\n      swap1\n      dup2\n      add\n      0x40\n      mstore\n      dup1\n      swap3\n      swap2\n      swap1\n      dup2\n      dup2\n      mstore\n      0x20\n      add\n      dup3\n      dup1\n      sload\n      tag_100\n      swap1\n      tag_64\n      jump\t// in\n    tag_100:\n      dup1\n      iszero\n      tag_101\n      jumpi\n      dup1\n      0x1f\n      lt\n      tag_102\n      jumpi\n      0x0100\n      dup1\n      dup4\n      sload\n      div\n      mul\n      dup4\n      mstore\n      swap2\n      0x20\n      add\n      swap2\n      jump(tag_101)\n    tag_102:\n      dup3\n      add\n      swap2\n      swap1\n      0x00\n      mstore\n      keccak256(0x00, 0x20)\n      swap1\n    tag_103:\n      dup2\n      sload\n      dup2\n      mstore\n      swap1\n      0x01\n      add\n      swap1\n      0x20\n      add\n      dup1\n      dup4\n      gt\n      tag_103\n      jumpi\n      dup3\n      swap1\n      sub\n      0x1f\n      and\n      dup3\n      add\n      swap2\n    tag_101:\n      pop\n      pop\n      pop\n      pop\n      pop\n      swap1\n      pop\n        /* \"FundTokenERC20_flattened.sol\":12831:12924  function symbol() public view virtual returns (string memory) {... */\n      swap1\n      jump\t// out\n        /* \"FundTokenERC20_flattened.sol\":28749:29190  function mint(uint256 amountToMint) public afterGetFund {... */\n    tag_52:\n        /* \"FundTokenERC20_flattened.sol\":29603:29609  fundMe */\n      0x05\n      0x00\n      swap1\n      sload\n      swap1\n      0x0100\n      exp\n      swap1\n      div\n      0xffffffffffffffffffffffffffffffffffffffff\n      and\n        /* \"FundTokenERC20_flattened.sol\":29603:29624  fundMe.getFundSuccess */\n      0xffffffffffffffffffffffffffffffffffffffff\n      and\n      0xda4658e0\n        /* \"FundTokenERC20_flattened.sol\":29603:29626  fundMe.getFundSuccess() */\n      mload(0x40)\n      dup2\n      0xffffffff\n      and\n      0xe0\n      shl\n      dup2\n      mstore\n      0x04\n      add\n      0x20\n      mload(0x40)\n      dup1\n      dup4\n      sub\n      dup2\n      dup7\n      gas\n      staticcall\n      iszero\n      dup1\n      iszero\n      tag_106\n      jumpi\n      returndatasize\n      0x00\n      dup1\n      returndatacopy\n      revert(0x00, returndatasize)\n    tag_106:\n      pop\n      pop\n      pop\n      pop\n      mload(0x40)\n      returndatasize\n      not(0x1f)\n      0x1f\n      dup3\n      add\n      and\n      dup3\n      add\n      dup1\n      0x40\n      mstore\n      pop\n      dup2\n      add\n      swap1\n      tag_107\n      swap2\n      swap1\n      tag_86\n      jump\t// in\n    tag_107:\n        /* \"FundTokenERC20_flattened.sol\":29595:29662  require(fundMe.getFundSuccess(), \"The fundme is not completed yet\") */\n      tag_108\n      jumpi\n      mload(0x40)\n      0x08c379a000000000000000000000000000000000000000000000000000000000\n      dup2\n      mstore\n      0x04\n      add\n      tag_109\n      swap1\n      tag_89\n      jump\t// in\n    tag_109:\n      mload(0x40)\n      dup1\n      swap2\n      sub\n      swap1\n      revert\n    tag_108:\n        /* \"FundTokenERC20_flattened.sol\":28860:28872  amountToMint */\n      dup1\n        /* \"FundTokenERC20_flattened.sol\":28823:28829  fundMe */\n      0x05\n      0x00\n      swap1\n      sload\n      swap1\n      0x0100\n      exp\n      swap1\n      div\n      0xffffffffffffffffffffffffffffffffffffffff\n      and\n        /* \"FundTokenERC20_flattened.sol\":28823:28844  fundMe.funderToAmount */\n      0xffffffffffffffffffffffffffffffffffffffff\n      and\n      0x4407e1e8\n        /* \"FundTokenERC20_flattened.sol\":28845:28855  msg.sender */\n      caller\n        /* \"FundTokenERC20_flattened.sol\":28823:28856  fundMe.funderToAmount(msg.sender) */\n      mload(0x40)\n      dup3\n      0xffffffff\n      and\n      0xe0\n      shl\n      dup2\n      mstore\n      0x04\n      add\n      tag_111\n      swap2\n      swap1\n      tag_112\n      jump\t// in\n    tag_111:\n      0x20\n      mload(0x40)\n      dup1\n      dup4\n      sub\n      dup2\n      dup7\n      gas\n      staticcall\n      iszero\n      dup1\n      iszero\n      tag_114\n      jumpi\n      returndatasize\n      0x00\n      dup1\n      returndatacopy\n      revert(0x00, returndatasize)\n    tag_114:\n      pop\n      pop\n      pop\n      pop\n      mload(0x40)\n      returndatasize\n      not(0x1f)\n      0x1f\n      dup3\n      add\n      and\n      dup3\n      add\n      dup1\n      0x40\n      mstore\n      pop\n      dup2\n      add\n      swap1\n      tag_115\n      swap2\n      swap1\n      tag_116\n      jump\t// in\n    tag_115:\n        /* \"FundTokenERC20_flattened.sol\":28823:28872  fundMe.funderToAmount(msg.sender) >= amountToMint */\n      lt\n      iszero\n        /* \"FundTokenERC20_flattened.sol\":28815:28908  require(fundMe.funderToAmount(msg.sender) >= amountToMint,\"You cannot mint this many tokens\") */\n      tag_117\n      jumpi\n      mload(0x40)\n      0x08c379a000000000000000000000000000000000000000000000000000000000\n      dup2\n      mstore\n      0x04\n      add\n      tag_118\n      swap1\n      tag_119\n      jump\t// in\n    tag_118:\n      mload(0x40)\n      dup1\n      swap2\n      sub\n      swap1\n      revert\n    tag_117:\n        /* \"FundTokenERC20_flattened.sol\":28963:28994  _mint(msg.sender, amountToMint) */\n      tag_120\n        /* \"FundTokenERC20_flattened.sol\":28969:28979  msg.sender */\n      caller\n        /* \"FundTokenERC20_flattened.sol\":28981:28993  amountToMint */\n      dup3\n        /* \"FundTokenERC20_flattened.sol\":28963:28968  _mint */\n      tag_121\n        /* \"FundTokenERC20_flattened.sol\":28963:28994  _mint(msg.sender, amountToMint) */\n      jump\t// in\n    tag_120:\n        /* \"FundTokenERC20_flattened.sol\":29097:29103  fundMe */\n      0x05\n      0x00\n      swap1\n      sload\n      swap1\n      0x0100\n      exp\n      swap1\n      div\n      0xffffffffffffffffffffffffffffffffffffffff\n      and\n        /* \"FundTokenERC20_flattened.sol\":29097:29121  fundMe.setFunderToAmount */\n      0xffffffffffffffffffffffffffffffffffffffff\n      and\n      0xd39cf006\n        /* \"FundTokenERC20_flattened.sol\":29122:29132  msg.sender */\n      caller\n        /* \"FundTokenERC20_flattened.sol\":29170:29182  amountToMint */\n      dup4\n        /* \"FundTokenERC20_flattened.sol\":29134:29140  fundMe */\n      0x05\n      0x00\n      swap1\n      sload\n      swap1\n      0x0100\n      exp\n      swap1\n      div\n      0xffffffffffffffffffffffffffffffffffffffff\n      and\n        /* \"FundTokenERC20_flattened.sol\":29134:29155  fundMe.funderToAmount */\n      0xffffffffffffffffffffffffffffffffffffffff\n      and\n      0x4407e1e8\n        /* \"FundTokenERC20_flattened.sol\":29156:29166  msg.sender */\n      caller\n        /* \"FundTokenERC20_flattened.sol\":29134:29167  fundMe.funderToAmount(msg.sender) */\n      mload(0x40)\n      dup3\n      0xffffffff\n      and\n      0xe0\n      shl\n      dup2\n      mstore\n      0x04\n      add\n      tag_122\n      swap2\n      swap1\n      tag_112\n      jump\t// in\n    tag_122:\n      0x20\n      mload(0x40)\n      dup1\n      dup4\n      sub\n      dup2\n      dup7\n      gas\n      staticcall\n      iszero\n      dup1\n      iszero\n      tag_124\n      jumpi\n      returndatasize\n      0x00\n      dup1\n      returndatacopy\n      revert(0x00, returndatasize)\n    tag_124:\n      pop\n      pop\n      pop\n      pop\n      mload(0x40)\n      returndatasize\n      not(0x1f)\n      0x1f\n      dup3\n      add\n      and\n      dup3\n      add\n      dup1\n      0x40\n      mstore\n      pop\n      dup2\n      add\n      swap1\n      tag_125\n      swap2\n      swap1\n      tag_116\n      jump\t// in\n    tag_125:\n        /* \"FundTokenERC20_flattened.sol\":29134:29182  fundMe.funderToAmount(msg.sender) - amountToMint */\n      tag_126\n      swap2\n      swap1\n      tag_127\n      jump\t// in\n    tag_126:\n        /* \"FundTokenERC20_flattened.sol\":29097:29183  fundMe.setFunderToAmount(msg.sender, fundMe.funderToAmount(msg.sender) - amountToMint) */\n      mload(0x40)\n      dup4\n      0xffffffff\n      and\n      0xe0\n      shl\n      dup2\n      mstore\n      0x04\n      add\n      tag_128\n      swap3\n      swap2\n      swap1\n      tag_129\n      jump\t// in\n    tag_128:\n      0x00\n      mload(0x40)\n      dup1\n      dup4\n      sub\n      dup2\n      0x00\n      dup8\n      dup1\n      extcodesize\n      iszero\n      dup1\n      iszero\n      tag_130\n      jumpi\n      0x00\n      dup1\n      revert\n    tag_130:\n      pop\n      gas\n      call\n      iszero\n      dup1\n      iszero\n      tag_132\n      jumpi\n      returndatasize\n      0x00\n      dup1\n      returndatacopy\n      revert(0x00, returndatasize)\n    tag_132:\n      pop\n      pop\n      pop\n      pop\n        /* \"FundTokenERC20_flattened.sol\":28749:29190  function mint(uint256 amountToMint) public afterGetFund {... */\n      pop\n      jump\t// out\n        /* \"FundTokenERC20_flattened.sol\":14165:14343  function transfer(address to, uint256 value) public virtual returns (bool) {... */\n    tag_55:\n        /* \"FundTokenERC20_flattened.sol\":14234:14238  bool */\n      0x00\n        /* \"FundTokenERC20_flattened.sol\":14250:14263  address owner */\n      dup1\n        /* \"FundTokenERC20_flattened.sol\":14266:14278  _msgSender() */\n      tag_134\n        /* \"FundTokenERC20_flattened.sol\":14266:14276  _msgSender */\n      tag_71\n        /* \"FundTokenERC20_flattened.sol\":14266:14278  _msgSender() */\n      jump\t// in\n    tag_134:\n        /* \"FundTokenERC20_flattened.sol\":14250:14278  address owner = _msgSender() */\n      swap1\n      pop\n        /* \"FundTokenERC20_flattened.sol\":14288:14315  _transfer(owner, to, value) */\n      tag_135\n        /* \"FundTokenERC20_flattened.sol\":14298:14303  owner */\n      dup2\n        /* \"FundTokenERC20_flattened.sol\":14305:14307  to */\n      dup6\n        /* \"FundTokenERC20_flattened.sol\":14309:14314  value */\n      dup6\n        /* \"FundTokenERC20_flattened.sol\":14288:14297  _transfer */\n      tag_80\n        /* \"FundTokenERC20_flattened.sol\":14288:14315  _transfer(owner, to, value) */\n      jump\t// in\n    tag_135:\n        /* \"FundTokenERC20_flattened.sol\":14332:14336  true */\n      0x01\n        /* \"FundTokenERC20_flattened.sol\":14325:14336  return true */\n      swap2\n      pop\n      pop\n        /* \"FundTokenERC20_flattened.sol\":14165:14343  function transfer(address to, uint256 value) public virtual returns (bool) {... */\n      swap3\n      swap2\n      pop\n      pop\n      jump\t// out\n        /* \"FundTokenERC20_flattened.sol\":14401:14541  function allowance(address owner, address spender) public view virtual returns (uint256) {... */\n    tag_60:\n        /* \"FundTokenERC20_flattened.sol\":14481:14488  uint256 */\n      0x00\n        /* \"FundTokenERC20_flattened.sol\":14507:14518  _allowances */\n      0x01\n        /* \"FundTokenERC20_flattened.sol\":14507:14525  _allowances[owner] */\n      0x00\n        /* \"FundTokenERC20_flattened.sol\":14519:14524  owner */\n      dup5\n        /* \"FundTokenERC20_flattened.sol\":14507:14525  _allowances[owner] */\n      0xffffffffffffffffffffffffffffffffffffffff\n      and\n      0xffffffffffffffffffffffffffffffffffffffff\n      and\n      dup2\n      mstore\n      0x20\n      add\n      swap1\n      dup2\n      mstore\n      0x20\n      add\n      0x00\n      keccak256\n        /* \"FundTokenERC20_flattened.sol\":14507:14534  _allowances[owner][spender] */\n      0x00\n        /* \"FundTokenERC20_flattened.sol\":14526:14533  spender */\n      dup4\n        /* \"FundTokenERC20_flattened.sol\":14507:14534  _allowances[owner][spender] */\n      0xffffffffffffffffffffffffffffffffffffffff\n      and\n      0xffffffffffffffffffffffffffffffffffffffff\n      and\n      dup2\n      mstore\n      0x20\n      add\n      swap1\n      dup2\n      mstore\n      0x20\n      add\n      0x00\n      keccak256\n      sload\n        /* \"FundTokenERC20_flattened.sol\":14500:14534  return _allowances[owner][spender] */\n      swap1\n      pop\n        /* \"FundTokenERC20_flattened.sol\":14401:14541  function allowance(address owner, address spender) public view virtual returns (uint256) {... */\n      swap3\n      swap2\n      pop\n      pop\n      jump\t// out\n        /* \"FundTokenERC20_flattened.sol\":4177:4273  function _msgSender() internal view virtual returns (address) {... */\n    tag_71:\n        /* \"FundTokenERC20_flattened.sol\":4230:4237  address */\n      0x00\n        /* \"FundTokenERC20_flattened.sol\":4256:4266  msg.sender */\n      caller\n        /* \"FundTokenERC20_flattened.sol\":4249:4266  return msg.sender */\n      swap1\n      pop\n        /* \"FundTokenERC20_flattened.sol\":4177:4273  function _msgSender() internal view virtual returns (address) {... */\n      swap1\n      jump\t// out\n        /* \"FundTokenERC20_flattened.sol\":19576:19704  function _approve(address owner, address spender, uint256 value) internal {... */\n    tag_73:\n        /* \"FundTokenERC20_flattened.sol\":19660:19697  _approve(owner, spender, value, true) */\n      tag_139\n        /* \"FundTokenERC20_flattened.sol\":19669:19674  owner */\n      dup4\n        /* \"FundTokenERC20_flattened.sol\":19676:19683  spender */\n      dup4\n        /* \"FundTokenERC20_flattened.sol\":19685:19690  value */\n      dup4\n        /* \"FundTokenERC20_flattened.sol\":19692:19696  true */\n      0x01\n        /* \"FundTokenERC20_flattened.sol\":19660:19668  _approve */\n      tag_140\n        /* \"FundTokenERC20_flattened.sol\":19660:19697  _approve(owner, spender, value, true) */\n      jump\t// in\n    tag_139:\n        /* \"FundTokenERC20_flattened.sol\":19576:19704  function _approve(address owner, address spender, uint256 value) internal {... */\n      pop\n      pop\n      pop\n      jump\t// out\n        /* \"FundTokenERC20_flattened.sol\":21265:21741  function _spendAllowance(address owner, address spender, uint256 value) internal virtual {... */\n    tag_78:\n        /* \"FundTokenERC20_flattened.sol\":21364:21388  uint256 currentAllowance */\n      0x00\n        /* \"FundTokenERC20_flattened.sol\":21391:21416  allowance(owner, spender) */\n      tag_142\n        /* \"FundTokenERC20_flattened.sol\":21401:21406  owner */\n      dup5\n        /* \"FundTokenERC20_flattened.sol\":21408:21415  spender */\n      dup5\n        /* \"FundTokenERC20_flattened.sol\":21391:21400  allowance */\n      tag_60\n        /* \"FundTokenERC20_flattened.sol\":21391:21416  allowance(owner, spender) */\n      jump\t// in\n    tag_142:\n        /* \"FundTokenERC20_flattened.sol\":21364:21416  uint256 currentAllowance = allowance(owner, spender) */\n      swap1\n      pop\n        /* \"FundTokenERC20_flattened.sol\":21449:21466  type(uint256).max */\n      0xffffffffffffffffffffffffffffffffffffffffffffffffffffffffffffffff\n        /* \"FundTokenERC20_flattened.sol\":21430:21446  currentAllowance */\n      dup2\n        /* \"FundTokenERC20_flattened.sol\":21430:21466  currentAllowance < type(uint256).max */\n      lt\n        /* \"FundTokenERC20_flattened.sol\":21426:21735  if (currentAllowance < type(uint256).max) {... */\n      iszero\n      tag_143\n      jumpi\n        /* \"FundTokenERC20_flattened.sol\":21505:21510  value */\n      dup2\n        /* \"FundTokenERC20_flattened.sol\":21486:21502  currentAllowance */\n      dup2\n        /* \"FundTokenERC20_flattened.sol\":21486:21510  currentAllowance < value */\n      lt\n        /* \"FundTokenERC20_flattened.sol\":21482:21612  if (currentAllowance < value) {... */\n      iszero\n      tag_144\n      jumpi\n        /* \"FundTokenERC20_flattened.sol\":21564:21571  spender */\n      dup3\n        /* \"FundTokenERC20_flattened.sol\":21573:21589  currentAllowance */\n      dup2\n        /* \"FundTokenERC20_flattened.sol\":21591:21596  value */\n      dup4\n        /* \"FundTokenERC20_flattened.sol\":21537:21597  ERC20InsufficientAllowance(spender, currentAllowance, value) */\n      mload(0x40)\n      0xfb8f41b200000000000000000000000000000000000000000000000000000000\n      dup2\n      mstore\n      0x04\n      add\n      tag_145\n      swap4\n      swap3\n      swap2\n      swap1\n      tag_146\n      jump\t// in\n    tag_145:\n      mload(0x40)\n      dup1\n      swap2\n      sub\n      swap1\n      revert\n        /* \"FundTokenERC20_flattened.sol\":21482:21612  if (currentAllowance < value) {... */\n    tag_144:\n        /* \"FundTokenERC20_flattened.sol\":21653:21710  _approve(owner, spender, currentAllowance - value, false) */\n      tag_147\n        /* \"FundTokenERC20_flattened.sol\":21662:21667  owner */\n      dup5\n        /* \"FundTokenERC20_flattened.sol\":21669:21676  spender */\n      dup5\n        /* \"FundTokenERC20_flattened.sol\":21697:21702  value */\n      dup5\n        /* \"FundTokenERC20_flattened.sol\":21678:21694  currentAllowance */\n      dup5\n        /* \"FundTokenERC20_flattened.sol\":21678:21702  currentAllowance - value */\n      sub\n        /* \"FundTokenERC20_flattened.sol\":21704:21709  false */\n      0x00\n        /* \"FundTokenERC20_flattened.sol\":21653:21661  _approve */\n      tag_140\n        /* \"FundTokenERC20_flattened.sol\":21653:21710  _approve(owner, spender, currentAllowance - value, false) */\n      jump\t// in\n    tag_147:\n        /* \"FundTokenERC20_flattened.sol\":21426:21735  if (currentAllowance < type(uint256).max) {... */\n    tag_143:\n        /* \"FundTokenERC20_flattened.sol\":21354:21741  {... */\n      pop\n        /* \"FundTokenERC20_flattened.sol\":21265:21741  function _spendAllowance(address owner, address spender, uint256 value) internal virtual {... */\n      pop\n      pop\n      pop\n      jump\t// out\n        /* \"FundTokenERC20_flattened.sol\":16243:16543  function _transfer(address from, address to, uint256 value) internal {... */\n    tag_80:\n        /* \"FundTokenERC20_flattened.sol\":16342:16343  0 */\n      0x00\n        /* \"FundTokenERC20_flattened.sol\":16326:16344  from == address(0) */\n      0xffffffffffffffffffffffffffffffffffffffff\n      and\n        /* \"FundTokenERC20_flattened.sol\":16326:16330  from */\n      dup4\n        /* \"FundTokenERC20_flattened.sol\":16326:16344  from == address(0) */\n      0xffffffffffffffffffffffffffffffffffffffff\n      and\n      sub\n        /* \"FundTokenERC20_flattened.sol\":16322:16408  if (from == address(0)) {... */\n      tag_149\n      jumpi\n        /* \"FundTokenERC20_flattened.sol\":16394:16395  0 */\n      0x00\n        /* \"FundTokenERC20_flattened.sol\":16367:16397  ERC20InvalidSender(address(0)) */\n      mload(0x40)\n      0x96c6fd1e00000000000000000000000000000000000000000000000000000000\n      dup2\n      mstore\n      0x04\n      add\n      tag_150\n      swap2\n      swap1\n      tag_112\n      jump\t// in\n    tag_150:\n      mload(0x40)\n      dup1\n      swap2\n      sub\n      swap1\n      revert\n        /* \"FundTokenERC20_flattened.sol\":16322:16408  if (from == address(0)) {... */\n    tag_149:\n        /* \"FundTokenERC20_flattened.sol\":16435:16436  0 */\n      0x00\n        /* \"FundTokenERC20_flattened.sol\":16421:16437  to == address(0) */\n      0xffffffffffffffffffffffffffffffffffffffff\n      and\n        /* \"FundTokenERC20_flattened.sol\":16421:16423  to */\n      dup3\n        /* \"FundTokenERC20_flattened.sol\":16421:16437  to == address(0) */\n      0xffffffffffffffffffffffffffffffffffffffff\n      and\n      sub\n        /* \"FundTokenERC20_flattened.sol\":16417:16503  if (to == address(0)) {... */\n      tag_151\n      jumpi\n        /* \"FundTokenERC20_flattened.sol\":16489:16490  0 */\n      0x00\n        /* \"FundTokenERC20_flattened.sol\":16460:16492  ERC20InvalidReceiver(address(0)) */\n      mload(0x40)\n      0xec442f0500000000000000000000000000000000000000000000000000000000\n      dup2\n      mstore\n      0x04\n      add\n      tag_152\n      swap2\n      swap1\n      tag_112\n      jump\t// in\n    tag_152:\n      mload(0x40)\n      dup1\n      swap2\n      sub\n      swap1\n      revert\n        /* \"FundTokenERC20_flattened.sol\":16417:16503  if (to == address(0)) {... */\n    tag_151:\n        /* \"FundTokenERC20_flattened.sol\":16512:16536  _update(from, to, value) */\n      tag_153\n        /* \"FundTokenERC20_flattened.sol\":16520:16524  from */\n      dup4\n        /* \"FundTokenERC20_flattened.sol\":16526:16528  to */\n      dup4\n        /* \"FundTokenERC20_flattened.sol\":16530:16535  value */\n      dup4\n        /* \"FundTokenERC20_flattened.sol\":16512:16519  _update */\n      tag_154\n        /* \"FundTokenERC20_flattened.sol\":16512:16536  _update(from, to, value) */\n      jump\t// in\n    tag_153:\n        /* \"FundTokenERC20_flattened.sol\":16243:16543  function _transfer(address from, address to, uint256 value) internal {... */\n      pop\n      pop\n      pop\n      jump\t// out\n        /* \"FundTokenERC20_flattened.sol\":18834:19040  function _burn(address account, uint256 value) internal {... */\n    tag_96:\n        /* \"FundTokenERC20_flattened.sol\":18923:18924  0 */\n      0x00\n        /* \"FundTokenERC20_flattened.sol\":18904:18925  account == address(0) */\n      0xffffffffffffffffffffffffffffffffffffffff\n      and\n        /* \"FundTokenERC20_flattened.sol\":18904:18911  account */\n      dup3\n        /* \"FundTokenERC20_flattened.sol\":18904:18925  account == address(0) */\n      0xffffffffffffffffffffffffffffffffffffffff\n      and\n      sub\n        /* \"FundTokenERC20_flattened.sol\":18900:18989  if (account == address(0)) {... */\n      tag_156\n      jumpi\n        /* \"FundTokenERC20_flattened.sol\":18975:18976  0 */\n      0x00\n        /* \"FundTokenERC20_flattened.sol\":18948:18978  ERC20InvalidSender(address(0)) */\n      mload(0x40)\n      0x96c6fd1e00000000000000000000000000000000000000000000000000000000\n      dup2\n      mstore\n      0x04\n      add\n      tag_157\n      swap2\n      swap1\n      tag_112\n      jump\t// in\n    tag_157:\n      mload(0x40)\n      dup1\n      swap2\n      sub\n      swap1\n      revert\n        /* \"FundTokenERC20_flattened.sol\":18900:18989  if (account == address(0)) {... */\n    tag_156:\n        /* \"FundTokenERC20_flattened.sol\":18998:19033  _update(account, address(0), value) */\n      tag_158\n        /* \"FundTokenERC20_flattened.sol\":19006:19013  account */\n      dup3\n        /* \"FundTokenERC20_flattened.sol\":19023:19024  0 */\n      0x00\n        /* \"FundTokenERC20_flattened.sol\":19027:19032  value */\n      dup4\n        /* \"FundTokenERC20_flattened.sol\":18998:19005  _update */\n      tag_154\n        /* \"FundTokenERC20_flattened.sol\":18998:19033  _update(account, address(0), value) */\n      jump\t// in\n    tag_158:\n        /* \"FundTokenERC20_flattened.sol\":18834:19040  function _burn(address account, uint256 value) internal {... */\n      pop\n      pop\n      jump\t// out\n        /* \"FundTokenERC20_flattened.sol\":18308:18516  function _mint(address account, uint256 value) internal {... */\n    tag_121:\n        /* \"FundTokenERC20_flattened.sol\":18397:18398  0 */\n      0x00\n        /* \"FundTokenERC20_flattened.sol\":18378:18399  account == address(0) */\n      0xffffffffffffffffffffffffffffffffffffffff\n      and\n        /* \"FundTokenERC20_flattened.sol\":18378:18385  account */\n      dup3\n        /* \"FundTokenERC20_flattened.sol\":18378:18399  account == address(0) */\n      0xffffffffffffffffffffffffffffffffffffffff\n      and\n      sub\n        /* \"FundTokenERC20_flattened.sol\":18374:18465  if (account == address(0)) {... */\n      tag_160\n      jumpi\n        /* \"FundTokenERC20_flattened.sol\":18451:18452  0 */\n      0x00\n        /* \"FundTokenERC20_flattened.sol\":18422:18454  ERC20InvalidReceiver(address(0)) */\n      mload(0x40)\n      0xec442f0500000000000000000000000000000000000000000000000000000000\n      dup2\n      mstore\n      0x04\n      add\n      tag_161\n      swap2\n      swap1\n      tag_112\n      jump\t// in\n    tag_161:\n      mload(0x40)\n      dup1\n      swap2\n      sub\n      swap1\n      revert\n        /* \"FundTokenERC20_flattened.sol\":18374:18465  if (account == address(0)) {... */\n    tag_160:\n        /* \"FundTokenERC20_flattened.sol\":18474:18509  _update(address(0), account, value) */\n      tag_162\n        /* \"FundTokenERC20_flattened.sol\":18490:18491  0 */\n      0x00\n        /* \"FundTokenERC20_flattened.sol\":18494:18501  account */\n      dup4\n        /* \"FundTokenERC20_flattened.sol\":18503:18508  value */\n      dup4\n        /* \"FundTokenERC20_flattened.sol\":18474:18481  _update */\n      tag_154\n        /* \"FundTokenERC20_flattened.sol\":18474:18509  _update(address(0), account, value) */\n      jump\t// in\n    tag_162:\n        /* \"FundTokenERC20_flattened.sol\":18308:18516  function _mint(address account, uint256 value) internal {... */\n      pop\n      pop\n      jump\t// out\n        /* \"FundTokenERC20_flattened.sol\":20551:20983  function _approve(address owner, address spender, uint256 value, bool emitEvent) internal virtual {... */\n    tag_140:\n        /* \"FundTokenERC20_flattened.sol\":20680:20681  0 */\n      0x00\n        /* \"FundTokenERC20_flattened.sol\":20663:20682  owner == address(0) */\n      0xffffffffffffffffffffffffffffffffffffffff\n      and\n        /* \"FundTokenERC20_flattened.sol\":20663:20668  owner */\n      dup5\n        /* \"FundTokenERC20_flattened.sol\":20663:20682  owner == address(0) */\n      0xffffffffffffffffffffffffffffffffffffffff\n      and\n      sub\n        /* \"FundTokenERC20_flattened.sol\":20659:20748  if (owner == address(0)) {... */\n      tag_164\n      jumpi\n        /* \"FundTokenERC20_flattened.sol\":20734:20735  0 */\n      0x00\n        /* \"FundTokenERC20_flattened.sol\":20705:20737  ERC20InvalidApprover(address(0)) */\n      mload(0x40)\n      0xe602df0500000000000000000000000000000000000000000000000000000000\n      dup2\n      mstore\n      0x04\n      add\n      tag_165\n      swap2\n      swap1\n      tag_112\n      jump\t// in\n    tag_165:\n      mload(0x40)\n      dup1\n      swap2\n      sub\n      swap1\n      revert\n        /* \"FundTokenERC20_flattened.sol\":20659:20748  if (owner == address(0)) {... */\n    tag_164:\n        /* \"FundTokenERC20_flattened.sol\":20780:20781  0 */\n      0x00\n        /* \"FundTokenERC20_flattened.sol\":20761:20782  spender == address(0) */\n      0xffffffffffffffffffffffffffffffffffffffff\n      and\n        /* \"FundTokenERC20_flattened.sol\":20761:20768  spender */\n      dup4\n        /* \"FundTokenERC20_flattened.sol\":20761:20782  spender == address(0) */\n      0xffffffffffffffffffffffffffffffffffffffff\n      and\n      sub\n        /* \"FundTokenERC20_flattened.sol\":20757:20847  if (spender == address(0)) {... */\n      tag_166\n      jumpi\n        /* \"FundTokenERC20_flattened.sol\":20833:20834  0 */\n      0x00\n        /* \"FundTokenERC20_flattened.sol\":20805:20836  ERC20InvalidSpender(address(0)) */\n      mload(0x40)\n      0x94280d6200000000000000000000000000000000000000000000000000000000\n      dup2\n      mstore\n      0x04\n      add\n      tag_167\n      swap2\n      swap1\n      tag_112\n      jump\t// in\n    tag_167:\n      mload(0x40)\n      dup1\n      swap2\n      sub\n      swap1\n      revert\n        /* \"FundTokenERC20_flattened.sol\":20757:20847  if (spender == address(0)) {... */\n    tag_166:\n        /* \"FundTokenERC20_flattened.sol\":20886:20891  value */\n      dup2\n        /* \"FundTokenERC20_flattened.sol\":20856:20867  _allowances */\n      0x01\n        /* \"FundTokenERC20_flattened.sol\":20856:20874  _allowances[owner] */\n      0x00\n        /* \"FundTokenERC20_flattened.sol\":20868:20873  owner */\n      dup7\n        /* \"FundTokenERC20_flattened.sol\":20856:20874  _allowances[owner] */\n      0xffffffffffffffffffffffffffffffffffffffff\n      and\n      0xffffffffffffffffffffffffffffffffffffffff\n      and\n      dup2\n      mstore\n      0x20\n      add\n      swap1\n      dup2\n      mstore\n      0x20\n      add\n      0x00\n      keccak256\n        /* \"FundTokenERC20_flattened.sol\":20856:20883  _allowances[owner][spender] */\n      0x00\n        /* \"FundTokenERC20_flattened.sol\":20875:20882  spender */\n      dup6\n        /* \"FundTokenERC20_flattened.sol\":20856:20883  _allowances[owner][spender] */\n      0xffffffffffffffffffffffffffffffffffffffff\n      and\n      0xffffffffffffffffffffffffffffffffffffffff\n      and\n      dup2\n      mstore\n      0x20\n      add\n      swap1\n      dup2\n      mstore\n      0x20\n      add\n      0x00\n      keccak256\n        /* \"FundTokenERC20_flattened.sol\":20856:20891  _allowances[owner][spender] = value */\n      dup2\n      swap1\n      sstore\n      pop\n        /* \"FundTokenERC20_flattened.sol\":20905:20914  emitEvent */\n      dup1\n        /* \"FundTokenERC20_flattened.sol\":20901:20977  if (emitEvent) {... */\n      iszero\n      tag_168\n      jumpi\n        /* \"FundTokenERC20_flattened.sol\":20951:20958  spender */\n      dup3\n        /* \"FundTokenERC20_flattened.sol\":20935:20966  Approval(owner, spender, value) */\n      0xffffffffffffffffffffffffffffffffffffffff\n      and\n        /* \"FundTokenERC20_flattened.sol\":20944:20949  owner */\n      dup5\n        /* \"FundTokenERC20_flattened.sol\":20935:20966  Approval(owner, spender, value) */\n      0xffffffffffffffffffffffffffffffffffffffff\n      and\n      0x8c5be1e5ebec7d5bd14f71427d1e84f3dd0314c0f7b2291e5b200ac8c7c3b925\n        /* \"FundTokenERC20_flattened.sol\":20960:20965  value */\n      dup5\n        /* \"FundTokenERC20_flattened.sol\":20935:20966  Approval(owner, spender, value) */\n      mload(0x40)\n      tag_169\n      swap2\n      swap1\n      tag_28\n      jump\t// in\n    tag_169:\n      mload(0x40)\n      dup1\n      swap2\n      sub\n      swap1\n      log3\n        /* \"FundTokenERC20_flattened.sol\":20901:20977  if (emitEvent) {... */\n    tag_168:\n        /* \"FundTokenERC20_flattened.sol\":20551:20983  function _approve(address owner, address spender, uint256 value, bool emitEvent) internal virtual {... */\n      pop\n      pop\n      pop\n      pop\n      jump\t// out\n        /* \"FundTokenERC20_flattened.sol\":16858:17965  function _update(address from, address to, uint256 value) internal virtual {... */\n    tag_154:\n        /* \"FundTokenERC20_flattened.sol\":16963:16964  0 */\n      0x00\n        /* \"FundTokenERC20_flattened.sol\":16947:16965  from == address(0) */\n      0xffffffffffffffffffffffffffffffffffffffff\n      and\n        /* \"FundTokenERC20_flattened.sol\":16947:16951  from */\n      dup4\n        /* \"FundTokenERC20_flattened.sol\":16947:16965  from == address(0) */\n      0xffffffffffffffffffffffffffffffffffffffff\n      and\n      sub\n        /* \"FundTokenERC20_flattened.sol\":16943:17483  if (from == address(0)) {... */\n      tag_171\n      jumpi\n        /* \"FundTokenERC20_flattened.sol\":17099:17104  value */\n      dup1\n        /* \"FundTokenERC20_flattened.sol\":17083:17095  _totalSupply */\n      0x02\n      0x00\n        /* \"FundTokenERC20_flattened.sol\":17083:17104  _totalSupply += value */\n      dup3\n      dup3\n      sload\n      tag_172\n      swap2\n      swap1\n      tag_173\n      jump\t// in\n    tag_172:\n      swap3\n      pop\n      pop\n      dup2\n      swap1\n      sstore\n      pop\n        /* \"FundTokenERC20_flattened.sol\":16943:17483  if (from == address(0)) {... */\n      jump(tag_174)\n    tag_171:\n        /* \"FundTokenERC20_flattened.sol\":17135:17154  uint256 fromBalance */\n      0x00\n        /* \"FundTokenERC20_flattened.sol\":17157:17166  _balances */\n      dup1\n        /* \"FundTokenERC20_flattened.sol\":17157:17172  _balances[from] */\n      0x00\n        /* \"FundTokenERC20_flattened.sol\":17167:17171  from */\n      dup6\n        /* \"FundTokenERC20_flattened.sol\":17157:17172  _balances[from] */\n      0xffffffffffffffffffffffffffffffffffffffff\n      and\n      0xffffffffffffffffffffffffffffffffffffffff\n      and\n      dup2\n      mstore\n      0x20\n      add\n      swap1\n      dup2\n      mstore\n      0x20\n      add\n      0x00\n      keccak256\n      sload\n        /* \"FundTokenERC20_flattened.sol\":17135:17172  uint256 fromBalance = _balances[from] */\n      swap1\n      pop\n        /* \"FundTokenERC20_flattened.sol\":17204:17209  value */\n      dup2\n        /* \"FundTokenERC20_flattened.sol\":17190:17201  fromBalance */\n      dup2\n        /* \"FundTokenERC20_flattened.sol\":17190:17209  fromBalance < value */\n      lt\n        /* \"FundTokenERC20_flattened.sol\":17186:17301  if (fromBalance < value) {... */\n      iszero\n      tag_175\n      jumpi\n        /* \"FundTokenERC20_flattened.sol\":17261:17265  from */\n      dup4\n        /* \"FundTokenERC20_flattened.sol\":17267:17278  fromBalance */\n      dup2\n        /* \"FundTokenERC20_flattened.sol\":17280:17285  value */\n      dup4\n        /* \"FundTokenERC20_flattened.sol\":17236:17286  ERC20InsufficientBalance(from, fromBalance, value) */\n      mload(0x40)\n      0xe450d38c00000000000000000000000000000000000000000000000000000000\n      dup2\n      mstore\n      0x04\n      add\n      tag_176\n      swap4\n      swap3\n      swap2\n      swap1\n      tag_146\n      jump\t// in\n    tag_176:\n      mload(0x40)\n      dup1\n      swap2\n      sub\n      swap1\n      revert\n        /* \"FundTokenERC20_flattened.sol\":17186:17301  if (fromBalance < value) {... */\n    tag_175:\n        /* \"FundTokenERC20_flattened.sol\":17453:17458  value */\n      dup2\n        /* \"FundTokenERC20_flattened.sol\":17439:17450  fromBalance */\n      dup2\n        /* \"FundTokenERC20_flattened.sol\":17439:17458  fromBalance - value */\n      sub\n        /* \"FundTokenERC20_flattened.sol\":17421:17430  _balances */\n      0x00\n        /* \"FundTokenERC20_flattened.sol\":17421:17436  _balances[from] */\n      dup1\n        /* \"FundTokenERC20_flattened.sol\":17431:17435  from */\n      dup7\n        /* \"FundTokenERC20_flattened.sol\":17421:17436  _balances[from] */\n      0xffffffffffffffffffffffffffffffffffffffff\n      and\n      0xffffffffffffffffffffffffffffffffffffffff\n      and\n      dup2\n      mstore\n      0x20\n      add\n      swap1\n      dup2\n      mstore\n      0x20\n      add\n      0x00\n      keccak256\n        /* \"FundTokenERC20_flattened.sol\":17421:17458  _balances[from] = fromBalance - value */\n      dup2\n      swap1\n      sstore\n      pop\n        /* \"FundTokenERC20_flattened.sol\":17121:17483  {... */\n      pop\n        /* \"FundTokenERC20_flattened.sol\":16943:17483  if (from == address(0)) {... */\n    tag_174:\n        /* \"FundTokenERC20_flattened.sol\":17511:17512  0 */\n      0x00\n        /* \"FundTokenERC20_flattened.sol\":17497:17513  to == address(0) */\n      0xffffffffffffffffffffffffffffffffffffffff\n      and\n        /* \"FundTokenERC20_flattened.sol\":17497:17499  to */\n      dup3\n        /* \"FundTokenERC20_flattened.sol\":17497:17513  to == address(0) */\n      0xffffffffffffffffffffffffffffffffffffffff\n      and\n      sub\n        /* \"FundTokenERC20_flattened.sol\":17493:17918  if (to == address(0)) {... */\n      tag_177\n      jumpi\n        /* \"FundTokenERC20_flattened.sol\":17676:17681  value */\n      dup1\n        /* \"FundTokenERC20_flattened.sol\":17660:17672  _totalSupply */\n      0x02\n      0x00\n        /* \"FundTokenERC20_flattened.sol\":17660:17681  _totalSupply -= value */\n      dup3\n      dup3\n      sload\n      sub\n      swap3\n      pop\n      pop\n      dup2\n      swap1\n      sstore\n      pop\n        /* \"FundTokenERC20_flattened.sol\":17493:17918  if (to == address(0)) {... */\n      jump(tag_178)\n    tag_177:\n        /* \"FundTokenERC20_flattened.sol\":17888:17893  value */\n      dup1\n        /* \"FundTokenERC20_flattened.sol\":17871:17880  _balances */\n      0x00\n        /* \"FundTokenERC20_flattened.sol\":17871:17884  _balances[to] */\n      dup1\n        /* \"FundTokenERC20_flattened.sol\":17881:17883  to */\n      dup5\n        /* \"FundTokenERC20_flattened.sol\":17871:17884  _balances[to] */\n      0xffffffffffffffffffffffffffffffffffffffff\n      and\n      0xffffffffffffffffffffffffffffffffffffffff\n      and\n      dup2\n      mstore\n      0x20\n      add\n      swap1\n      dup2\n      mstore\n      0x20\n      add\n      0x00\n      keccak256\n      0x00\n        /* \"FundTokenERC20_flattened.sol\":17871:17893  _balances[to] += value */\n      dup3\n      dup3\n      sload\n      add\n      swap3\n      pop\n      pop\n      dup2\n      swap1\n      sstore\n      pop\n        /* \"FundTokenERC20_flattened.sol\":17493:17918  if (to == address(0)) {... */\n    tag_178:\n        /* \"FundTokenERC20_flattened.sol\":17948:17950  to */\n      dup2\n        /* \"FundTokenERC20_flattened.sol\":17933:17958  Transfer(from, to, value) */\n      0xffffffffffffffffffffffffffffffffffffffff\n      and\n        /* \"FundTokenERC20_flattened.sol\":17942:17946  from */\n      dup4\n        /* \"FundTokenERC20_flattened.sol\":17933:17958  Transfer(from, to, value) */\n      0xffffffffffffffffffffffffffffffffffffffff\n      and\n      0xddf252ad1be2c89b69c2b068fc378daa952ba7f163c4a11628f55a4df523b3ef\n        /* \"FundTokenERC20_flattened.sol\":17952:17957  value */\n      dup4\n        /* \"FundTokenERC20_flattened.sol\":17933:17958  Transfer(from, to, value) */\n      mload(0x40)\n      tag_179\n      swap2\n      swap1\n      tag_28\n      jump\t// in\n    tag_179:\n      mload(0x40)\n      dup1\n      swap2\n      sub\n      swap1\n      log3\n        /* \"FundTokenERC20_flattened.sol\":16858:17965  function _update(address from, address to, uint256 value) internal virtual {... */\n      pop\n      pop\n      pop\n      jump\t// out\n        /* \"#utility.yul\":7:106   */\n    tag_180:\n        /* \"#utility.yul\":59:65   */\n      0x00\n        /* \"#utility.yul\":93:98   */\n      dup2\n        /* \"#utility.yul\":87:99   */\n      mload\n        /* \"#utility.yul\":77:99   */\n      swap1\n      pop\n        /* \"#utility.yul\":7:106   */\n      swap2\n      swap1\n      pop\n      jump\t// out\n        /* \"#utility.yul\":112:281   */\n    tag_181:\n        /* \"#utility.yul\":196:207   */\n      0x00\n        /* \"#utility.yul\":230:236   */\n      dup3\n        /* \"#utility.yul\":225:228   */\n      dup3\n        /* \"#utility.yul\":218:237   */\n      mstore\n        /* \"#utility.yul\":270:274   */\n      0x20\n        /* \"#utility.yul\":265:268   */\n      dup3\n        /* \"#utility.yul\":261:275   */\n      add\n        /* \"#utility.yul\":246:275   */\n      swap1\n      pop\n        /* \"#utility.yul\":112:281   */\n      swap3\n      swap2\n      pop\n      pop\n      jump\t// out\n        /* \"#utility.yul\":287:426   */\n    tag_182:\n        /* \"#utility.yul\":376:382   */\n      dup3\n        /* \"#utility.yul\":371:374   */\n      dup2\n        /* \"#utility.yul\":366:369   */\n      dup4\n        /* \"#utility.yul\":360:383   */\n      mcopy\n        /* \"#utility.yul\":417:418   */\n      0x00\n        /* \"#utility.yul\":408:414   */\n      dup4\n        /* \"#utility.yul\":403:406   */\n      dup4\n        /* \"#utility.yul\":399:415   */\n      add\n        /* \"#utility.yul\":392:419   */\n      mstore\n        /* \"#utility.yul\":287:426   */\n      pop\n      pop\n      pop\n      jump\t// out\n        /* \"#utility.yul\":432:534   */\n    tag_183:\n        /* \"#utility.yul\":473:479   */\n      0x00\n        /* \"#utility.yul\":524:526   */\n      0x1f\n        /* \"#utility.yul\":520:527   */\n      not\n        /* \"#utility.yul\":515:517   */\n      0x1f\n        /* \"#utility.yul\":508:513   */\n      dup4\n        /* \"#utility.yul\":504:518   */\n      add\n        /* \"#utility.yul\":500:528   */\n      and\n        /* \"#utility.yul\":490:528   */\n      swap1\n      pop\n        /* \"#utility.yul\":432:534   */\n      swap2\n      swap1\n      pop\n      jump\t// out\n        /* \"#utility.yul\":540:917   */\n    tag_184:\n        /* \"#utility.yul\":628:631   */\n      0x00\n        /* \"#utility.yul\":656:695   */\n      tag_218\n        /* \"#utility.yul\":689:694   */\n      dup3\n        /* \"#utility.yul\":656:695   */\n      tag_180\n      jump\t// in\n    tag_218:\n        /* \"#utility.yul\":711:782   */\n      tag_219\n        /* \"#utility.yul\":775:781   */\n      dup2\n        /* \"#utility.yul\":770:773   */\n      dup6\n        /* \"#utility.yul\":711:782   */\n      tag_181\n      jump\t// in\n    tag_219:\n        /* \"#utility.yul\":704:782   */\n      swap4\n      pop\n        /* \"#utility.yul\":791:856   */\n      tag_220\n        /* \"#utility.yul\":849:855   */\n      dup2\n        /* \"#utility.yul\":844:847   */\n      dup6\n        /* \"#utility.yul\":837:841   */\n      0x20\n        /* \"#utility.yul\":830:835   */\n      dup7\n        /* \"#utility.yul\":826:842   */\n      add\n        /* \"#utility.yul\":791:856   */\n      tag_182\n      jump\t// in\n    tag_220:\n        /* \"#utility.yul\":881:910   */\n      tag_221\n        /* \"#utility.yul\":903:909   */\n      dup2\n        /* \"#utility.yul\":881:910   */\n      tag_183\n      jump\t// in\n    tag_221:\n        /* \"#utility.yul\":876:879   */\n      dup5\n        /* \"#utility.yul\":872:911   */\n      add\n        /* \"#utility.yul\":865:911   */\n      swap2\n      pop\n        /* \"#utility.yul\":632:917   */\n      pop\n        /* \"#utility.yul\":540:917   */\n      swap3\n      swap2\n      pop\n      pop\n      jump\t// out\n        /* \"#utility.yul\":923:1236   */\n    tag_18:\n        /* \"#utility.yul\":1036:1040   */\n      0x00\n        /* \"#utility.yul\":1074:1076   */\n      0x20\n        /* \"#utility.yul\":1063:1072   */\n      dup3\n        /* \"#utility.yul\":1059:1077   */\n      add\n        /* \"#utility.yul\":1051:1077   */\n      swap1\n      pop\n        /* \"#utility.yul\":1123:1132   */\n      dup2\n        /* \"#utility.yul\":1117:1121   */\n      dup2\n        /* \"#utility.yul\":1113:1133   */\n      sub\n        /* \"#utility.yul\":1109:1110   */\n      0x00\n        /* \"#utility.yul\":1098:1107   */\n      dup4\n        /* \"#utility.yul\":1094:1111   */\n      add\n        /* \"#utility.yul\":1087:1134   */\n      mstore\n        /* \"#utility.yul\":1151:1229   */\n      tag_223\n        /* \"#utility.yul\":1224:1228   */\n      dup2\n        /* \"#utility.yul\":1215:1221   */\n      dup5\n        /* \"#utility.yul\":1151:1229   */\n      tag_184\n      jump\t// in\n    tag_223:\n        /* \"#utility.yul\":1143:1229   */\n      swap1\n      pop\n        /* \"#utility.yul\":923:1236   */\n      swap3\n      swap2\n      pop\n      pop\n      jump\t// out\n        /* \"#utility.yul\":1323:1440   */\n    tag_186:\n        /* \"#utility.yul\":1432:1433   */\n      0x00\n        /* \"#utility.yul\":1429:1430   */\n      dup1\n        /* \"#utility.yul\":1422:1434   */\n      revert\n        /* \"#utility.yul\":1569:1695   */\n    tag_188:\n        /* \"#utility.yul\":1606:1613   */\n      0x00\n        /* \"#utility.yul\":1646:1688   */\n      0xffffffffffffffffffffffffffffffffffffffff\n        /* \"#utility.yul\":1639:1644   */\n      dup3\n        /* \"#utility.yul\":1635:1689   */\n      and\n        /* \"#utility.yul\":1624:1689   */\n      swap1\n      pop\n        /* \"#utility.yul\":1569:1695   */\n      swap2\n      swap1\n      pop\n      jump\t// out\n        /* \"#utility.yul\":1701:1797   */\n    tag_189:\n        /* \"#utility.yul\":1738:1745   */\n      0x00\n        /* \"#utility.yul\":1767:1791   */\n      tag_229\n        /* \"#utility.yul\":1785:1790   */\n      dup3\n        /* \"#utility.yul\":1767:1791   */\n      tag_188\n      jump\t// in\n    tag_229:\n        /* \"#utility.yul\":1756:1791   */\n      swap1\n      pop\n        /* \"#utility.yul\":1701:1797   */\n      swap2\n      swap1\n      pop\n      jump\t// out\n        /* \"#utility.yul\":1803:1925   */\n    tag_190:\n        /* \"#utility.yul\":1876:1900   */\n      tag_231\n        /* \"#utility.yul\":1894:1899   */\n      dup2\n        /* \"#utility.yul\":1876:1900   */\n      tag_189\n      jump\t// in\n    tag_231:\n        /* \"#utility.yul\":1869:1874   */\n      dup2\n        /* \"#utility.yul\":1866:1901   */\n      eq\n        /* \"#utility.yul\":1856:1919   */\n      tag_232\n      jumpi\n        /* \"#utility.yul\":1915:1916   */\n      0x00\n        /* \"#utility.yul\":1912:1913   */\n      dup1\n        /* \"#utility.yul\":1905:1917   */\n      revert\n        /* \"#utility.yul\":1856:1919   */\n    tag_232:\n        /* \"#utility.yul\":1803:1925   */\n      pop\n      jump\t// out\n        /* \"#utility.yul\":1931:2070   */\n    tag_191:\n        /* \"#utility.yul\":1977:1982   */\n      0x00\n        /* \"#utility.yul\":2015:2021   */\n      dup2\n        /* \"#utility.yul\":2002:2022   */\n      calldataload\n        /* \"#utility.yul\":1993:2022   */\n      swap1\n      pop\n        /* \"#utility.yul\":2031:2064   */\n      tag_234\n        /* \"#utility.yul\":2058:2063   */\n      dup2\n        /* \"#utility.yul\":2031:2064   */\n      tag_190\n      jump\t// in\n    tag_234:\n        /* \"#utility.yul\":1931:2070   */\n      swap3\n      swap2\n      pop\n      pop\n      jump\t// out\n        /* \"#utility.yul\":2076:2153   */\n    tag_192:\n        /* \"#utility.yul\":2113:2120   */\n      0x00\n        /* \"#utility.yul\":2142:2147   */\n      dup2\n        /* \"#utility.yul\":2131:2147   */\n      swap1\n      pop\n        /* \"#utility.yul\":2076:2153   */\n      swap2\n      swap1\n      pop\n      jump\t// out\n        /* \"#utility.yul\":2159:2281   */\n    tag_193:\n        /* \"#utility.yul\":2232:2256   */\n      tag_237\n        /* \"#utility.yul\":2250:2255   */\n      dup2\n        /* \"#utility.yul\":2232:2256   */\n      tag_192\n      jump\t// in\n    tag_237:\n        /* \"#utility.yul\":2225:2230   */\n      dup2\n        /* \"#utility.yul\":2222:2257   */\n      eq\n        /* \"#utility.yul\":2212:2275   */\n      tag_238\n      jumpi\n        /* \"#utility.yul\":2271:2272   */\n      0x00\n        /* \"#utility.yul\":2268:2269   */\n      dup1\n        /* \"#utility.yul\":2261:2273   */\n      revert\n        /* \"#utility.yul\":2212:2275   */\n    tag_238:\n        /* \"#utility.yul\":2159:2281   */\n      pop\n      jump\t// out\n        /* \"#utility.yul\":2287:2426   */\n    tag_194:\n        /* \"#utility.yul\":2333:2338   */\n      0x00\n        /* \"#utility.yul\":2371:2377   */\n      dup2\n        /* \"#utility.yul\":2358:2378   */\n      calldataload\n        /* \"#utility.yul\":2349:2378   */\n      swap1\n      pop\n        /* \"#utility.yul\":2387:2420   */\n      tag_240\n        /* \"#utility.yul\":2414:2419   */\n      dup2\n        /* \"#utility.yul\":2387:2420   */\n      tag_193\n      jump\t// in\n    tag_240:\n        /* \"#utility.yul\":2287:2426   */\n      swap3\n      swap2\n      pop\n      pop\n      jump\t// out\n        /* \"#utility.yul\":2432:2906   */\n    tag_21:\n        /* \"#utility.yul\":2500:2506   */\n      0x00\n        /* \"#utility.yul\":2508:2514   */\n      dup1\n        /* \"#utility.yul\":2557:2559   */\n      0x40\n        /* \"#utility.yul\":2545:2554   */\n      dup4\n        /* \"#utility.yul\":2536:2543   */\n      dup6\n        /* \"#utility.yul\":2532:2555   */\n      sub\n        /* \"#utility.yul\":2528:2560   */\n      slt\n        /* \"#utility.yul\":2525:2644   */\n      iszero\n      tag_242\n      jumpi\n        /* \"#utility.yul\":2563:2642   */\n      tag_243\n      tag_186\n      jump\t// in\n    tag_243:\n        /* \"#utility.yul\":2525:2644   */\n    tag_242:\n        /* \"#utility.yul\":2683:2684   */\n      0x00\n        /* \"#utility.yul\":2708:2761   */\n      tag_244\n        /* \"#utility.yul\":2753:2760   */\n      dup6\n        /* \"#utility.yul\":2744:2750   */\n      dup3\n        /* \"#utility.yul\":2733:2742   */\n      dup7\n        /* \"#utility.yul\":2729:2751   */\n      add\n        /* \"#utility.yul\":2708:2761   */\n      tag_191\n      jump\t// in\n    tag_244:\n        /* \"#utility.yul\":2698:2761   */\n      swap3\n      pop\n        /* \"#utility.yul\":2654:2771   */\n      pop\n        /* \"#utility.yul\":2810:2812   */\n      0x20\n        /* \"#utility.yul\":2836:2889   */\n      tag_245\n        /* \"#utility.yul\":2881:2888   */\n      dup6\n        /* \"#utility.yul\":2872:2878   */\n      dup3\n        /* \"#utility.yul\":2861:2870   */\n      dup7\n        /* \"#utility.yul\":2857:2879   */\n      add\n        /* \"#utility.yul\":2836:2889   */\n      tag_194\n      jump\t// in\n    tag_245:\n        /* \"#utility.yul\":2826:2889   */\n      swap2\n      pop\n        /* \"#utility.yul\":2781:2899   */\n      pop\n        /* \"#utility.yul\":2432:2906   */\n      swap3\n      pop\n      swap3\n      swap1\n      pop\n      jump\t// out\n        /* \"#utility.yul\":2912:3002   */\n    tag_195:\n        /* \"#utility.yul\":2946:2953   */\n      0x00\n        /* \"#utility.yul\":2989:2994   */\n      dup2\n        /* \"#utility.yul\":2982:2995   */\n      iszero\n        /* \"#utility.yul\":2975:2996   */\n      iszero\n        /* \"#utility.yul\":2964:2996   */\n      swap1\n      pop\n        /* \"#utility.yul\":2912:3002   */\n      swap2\n      swap1\n      pop\n      jump\t// out\n        /* \"#utility.yul\":3008:3117   */\n    tag_196:\n        /* \"#utility.yul\":3089:3110   */\n      tag_248\n        /* \"#utility.yul\":3104:3109   */\n      dup2\n        /* \"#utility.yul\":3089:3110   */\n      tag_195\n      jump\t// in\n    tag_248:\n        /* \"#utility.yul\":3084:3087   */\n      dup3\n        /* \"#utility.yul\":3077:3111   */\n      mstore\n        /* \"#utility.yul\":3008:3117   */\n      pop\n      pop\n      jump\t// out\n        /* \"#utility.yul\":3123:3333   */\n    tag_24:\n        /* \"#utility.yul\":3210:3214   */\n      0x00\n        /* \"#utility.yul\":3248:3250   */\n      0x20\n        /* \"#utility.yul\":3237:3246   */\n      dup3\n        /* \"#utility.yul\":3233:3251   */\n      add\n        /* \"#utility.yul\":3225:3251   */\n      swap1\n      pop\n        /* \"#utility.yul\":3261:3326   */\n      tag_250\n        /* \"#utility.yul\":3323:3324   */\n      0x00\n        /* \"#utility.yul\":3312:3321   */\n      dup4\n        /* \"#utility.yul\":3308:3325   */\n      add\n        /* \"#utility.yul\":3299:3305   */\n      dup5\n        /* \"#utility.yul\":3261:3326   */\n      tag_196\n      jump\t// in\n    tag_250:\n        /* \"#utility.yul\":3123:3333   */\n      swap3\n      swap2\n      pop\n      pop\n      jump\t// out\n        /* \"#utility.yul\":3339:3457   */\n    tag_197:\n        /* \"#utility.yul\":3426:3450   */\n      tag_252\n        /* \"#utility.yul\":3444:3449   */\n      dup2\n        /* \"#utility.yul\":3426:3450   */\n      tag_192\n      jump\t// in\n    tag_252:\n        /* \"#utility.yul\":3421:3424   */\n      dup3\n        /* \"#utility.yul\":3414:3451   */\n      mstore\n        /* \"#utility.yul\":3339:3457   */\n      pop\n      pop\n      jump\t// out\n        /* \"#utility.yul\":3463:3685   */\n    tag_28:\n        /* \"#utility.yul\":3556:3560   */\n      0x00\n        /* \"#utility.yul\":3594:3596   */\n      0x20\n        /* \"#utility.yul\":3583:3592   */\n      dup3\n        /* \"#utility.yul\":3579:3597   */\n      add\n        /* \"#utility.yul\":3571:3597   */\n      swap1\n      pop\n        /* \"#utility.yul\":3607:3678   */\n      tag_254\n        /* \"#utility.yul\":3675:3676   */\n      0x00\n        /* \"#utility.yul\":3664:3673   */\n      dup4\n        /* \"#utility.yul\":3660:3677   */\n      add\n        /* \"#utility.yul\":3651:3657   */\n      dup5\n        /* \"#utility.yul\":3607:3678   */\n      tag_197\n      jump\t// in\n    tag_254:\n        /* \"#utility.yul\":3463:3685   */\n      swap3\n      swap2\n      pop\n      pop\n      jump\t// out\n        /* \"#utility.yul\":3691:4310   */\n    tag_31:\n        /* \"#utility.yul\":3768:3774   */\n      0x00\n        /* \"#utility.yul\":3776:3782   */\n      dup1\n        /* \"#utility.yul\":3784:3790   */\n      0x00\n        /* \"#utility.yul\":3833:3835   */\n      0x60\n        /* \"#utility.yul\":3821:3830   */\n      dup5\n        /* \"#utility.yul\":3812:3819   */\n      dup7\n        /* \"#utility.yul\":3808:3831   */\n      sub\n        /* \"#utility.yul\":3804:3836   */\n      slt\n        /* \"#utility.yul\":3801:3920   */\n      iszero\n      tag_256\n      jumpi\n        /* \"#utility.yul\":3839:3918   */\n      tag_257\n      tag_186\n      jump\t// in\n    tag_257:\n        /* \"#utility.yul\":3801:3920   */\n    tag_256:\n        /* \"#utility.yul\":3959:3960   */\n      0x00\n        /* \"#utility.yul\":3984:4037   */\n      tag_258\n        /* \"#utility.yul\":4029:4036   */\n      dup7\n        /* \"#utility.yul\":4020:4026   */\n      dup3\n        /* \"#utility.yul\":4009:4018   */\n      dup8\n        /* \"#utility.yul\":4005:4027   */\n      add\n        /* \"#utility.yul\":3984:4037   */\n      tag_191\n      jump\t// in\n    tag_258:\n        /* \"#utility.yul\":3974:4037   */\n      swap4\n      pop\n        /* \"#utility.yul\":3930:4047   */\n      pop\n        /* \"#utility.yul\":4086:4088   */\n      0x20\n        /* \"#utility.yul\":4112:4165   */\n      tag_259\n        /* \"#utility.yul\":4157:4164   */\n      dup7\n        /* \"#utility.yul\":4148:4154   */\n      dup3\n        /* \"#utility.yul\":4137:4146   */\n      dup8\n        /* \"#utility.yul\":4133:4155   */\n      add\n        /* \"#utility.yul\":4112:4165   */\n      tag_191\n      jump\t// in\n    tag_259:\n        /* \"#utility.yul\":4102:4165   */\n      swap3\n      pop\n        /* \"#utility.yul\":4057:4175   */\n      pop\n        /* \"#utility.yul\":4214:4216   */\n      0x40\n        /* \"#utility.yul\":4240:4293   */\n      tag_260\n        /* \"#utility.yul\":4285:4292   */\n      dup7\n        /* \"#utility.yul\":4276:4282   */\n      dup3\n        /* \"#utility.yul\":4265:4274   */\n      dup8\n        /* \"#utility.yul\":4261:4283   */\n      add\n        /* \"#utility.yul\":4240:4293   */\n      tag_194\n      jump\t// in\n    tag_260:\n        /* \"#utility.yul\":4230:4293   */\n      swap2\n      pop\n        /* \"#utility.yul\":4185:4303   */\n      pop\n        /* \"#utility.yul\":3691:4310   */\n      swap3\n      pop\n      swap3\n      pop\n      swap3\n      jump\t// out\n        /* \"#utility.yul\":4316:4402   */\n    tag_198:\n        /* \"#utility.yul\":4351:4358   */\n      0x00\n        /* \"#utility.yul\":4391:4395   */\n      0xff\n        /* \"#utility.yul\":4384:4389   */\n      dup3\n        /* \"#utility.yul\":4380:4396   */\n      and\n        /* \"#utility.yul\":4369:4396   */\n      swap1\n      pop\n        /* \"#utility.yul\":4316:4402   */\n      swap2\n      swap1\n      pop\n      jump\t// out\n        /* \"#utility.yul\":4408:4520   */\n    tag_199:\n        /* \"#utility.yul\":4491:4513   */\n      tag_263\n        /* \"#utility.yul\":4507:4512   */\n      dup2\n        /* \"#utility.yul\":4491:4513   */\n      tag_198\n      jump\t// in\n    tag_263:\n        /* \"#utility.yul\":4486:4489   */\n      dup3\n        /* \"#utility.yul\":4479:4514   */\n      mstore\n        /* \"#utility.yul\":4408:4520   */\n      pop\n      pop\n      jump\t// out\n        /* \"#utility.yul\":4526:4740   */\n    tag_37:\n        /* \"#utility.yul\":4615:4619   */\n      0x00\n        /* \"#utility.yul\":4653:4655   */\n      0x20\n        /* \"#utility.yul\":4642:4651   */\n      dup3\n        /* \"#utility.yul\":4638:4656   */\n      add\n        /* \"#utility.yul\":4630:4656   */\n      swap1\n      pop\n        /* \"#utility.yul\":4666:4733   */\n      tag_265\n        /* \"#utility.yul\":4730:4731   */\n      0x00\n        /* \"#utility.yul\":4719:4728   */\n      dup4\n        /* \"#utility.yul\":4715:4732   */\n      add\n        /* \"#utility.yul\":4706:4712   */\n      dup5\n        /* \"#utility.yul\":4666:4733   */\n      tag_199\n      jump\t// in\n    tag_265:\n        /* \"#utility.yul\":4526:4740   */\n      swap3\n      swap2\n      pop\n      pop\n      jump\t// out\n        /* \"#utility.yul\":4746:5075   */\n    tag_40:\n        /* \"#utility.yul\":4805:4811   */\n      0x00\n        /* \"#utility.yul\":4854:4856   */\n      0x20\n        /* \"#utility.yul\":4842:4851   */\n      dup3\n        /* \"#utility.yul\":4833:4840   */\n      dup5\n        /* \"#utility.yul\":4829:4852   */\n      sub\n        /* \"#utility.yul\":4825:4857   */\n      slt\n        /* \"#utility.yul\":4822:4941   */\n      iszero\n      tag_267\n      jumpi\n        /* \"#utility.yul\":4860:4939   */\n      tag_268\n      tag_186\n      jump\t// in\n    tag_268:\n        /* \"#utility.yul\":4822:4941   */\n    tag_267:\n        /* \"#utility.yul\":4980:4981   */\n      0x00\n        /* \"#utility.yul\":5005:5058   */\n      tag_269\n        /* \"#utility.yul\":5050:5057   */\n      dup5\n        /* \"#utility.yul\":5041:5047   */\n      dup3\n        /* \"#utility.yul\":5030:5039   */\n      dup6\n        /* \"#utility.yul\":5026:5048   */\n      add\n        /* \"#utility.yul\":5005:5058   */\n      tag_194\n      jump\t// in\n    tag_269:\n        /* \"#utility.yul\":4995:5058   */\n      swap2\n      pop\n        /* \"#utility.yul\":4951:5068   */\n      pop\n        /* \"#utility.yul\":4746:5075   */\n      swap3\n      swap2\n      pop\n      pop\n      jump\t// out\n        /* \"#utility.yul\":5081:5410   */\n    tag_44:\n        /* \"#utility.yul\":5140:5146   */\n      0x00\n        /* \"#utility.yul\":5189:5191   */\n      0x20\n        /* \"#utility.yul\":5177:5186   */\n      dup3\n        /* \"#utility.yul\":5168:5175   */\n      dup5\n        /* \"#utility.yul\":5164:5187   */\n      sub\n        /* \"#utility.yul\":5160:5192   */\n      slt\n        /* \"#utility.yul\":5157:5276   */\n      iszero\n      tag_271\n      jumpi\n        /* \"#utility.yul\":5195:5274   */\n      tag_272\n      tag_186\n      jump\t// in\n    tag_272:\n        /* \"#utility.yul\":5157:5276   */\n    tag_271:\n        /* \"#utility.yul\":5315:5316   */\n      0x00\n        /* \"#utility.yul\":5340:5393   */\n      tag_273\n        /* \"#utility.yul\":5385:5392   */\n      dup5\n        /* \"#utility.yul\":5376:5382   */\n      dup3\n        /* \"#utility.yul\":5365:5374   */\n      dup6\n        /* \"#utility.yul\":5361:5383   */\n      add\n        /* \"#utility.yul\":5340:5393   */\n      tag_191\n      jump\t// in\n    tag_273:\n        /* \"#utility.yul\":5330:5393   */\n      swap2\n      pop\n        /* \"#utility.yul\":5286:5403   */\n      pop\n        /* \"#utility.yul\":5081:5410   */\n      swap3\n      swap2\n      pop\n      pop\n      jump\t// out\n        /* \"#utility.yul\":5416:5890   */\n    tag_59:\n        /* \"#utility.yul\":5484:5490   */\n      0x00\n        /* \"#utility.yul\":5492:5498   */\n      dup1\n        /* \"#utility.yul\":5541:5543   */\n      0x40\n        /* \"#utility.yul\":5529:5538   */\n      dup4\n        /* \"#utility.yul\":5520:5527   */\n      dup6\n        /* \"#utility.yul\":5516:5539   */\n      sub\n        /* \"#utility.yul\":5512:5544   */\n      slt\n        /* \"#utility.yul\":5509:5628   */\n      iszero\n      tag_275\n      jumpi\n        /* \"#utility.yul\":5547:5626   */\n      tag_276\n      tag_186\n      jump\t// in\n    tag_276:\n        /* \"#utility.yul\":5509:5628   */\n    tag_275:\n        /* \"#utility.yul\":5667:5668   */\n      0x00\n        /* \"#utility.yul\":5692:5745   */\n      tag_277\n        /* \"#utility.yul\":5737:5744   */\n      dup6\n        /* \"#utility.yul\":5728:5734   */\n      dup3\n        /* \"#utility.yul\":5717:5726   */\n      dup7\n        /* \"#utility.yul\":5713:5735   */\n      add\n        /* \"#utility.yul\":5692:5745   */\n      tag_191\n      jump\t// in\n    tag_277:\n        /* \"#utility.yul\":5682:5745   */\n      swap3\n      pop\n        /* \"#utility.yul\":5638:5755   */\n      pop\n        /* \"#utility.yul\":5794:5796   */\n      0x20\n        /* \"#utility.yul\":5820:5873   */\n      tag_278\n        /* \"#utility.yul\":5865:5872   */\n      dup6\n        /* \"#utility.yul\":5856:5862   */\n      dup3\n        /* \"#utility.yul\":5845:5854   */\n      dup7\n        /* \"#utility.yul\":5841:5863   */\n      add\n        /* \"#utility.yul\":5820:5873   */\n      tag_191\n      jump\t// in\n    tag_278:\n        /* \"#utility.yul\":5810:5873   */\n      swap2\n      pop\n        /* \"#utility.yul\":5765:5883   */\n      pop\n        /* \"#utility.yul\":5416:5890   */\n      swap3\n      pop\n      swap3\n      swap1\n      pop\n      jump\t// out\n        /* \"#utility.yul\":5896:6076   */\n    tag_200:\n        /* \"#utility.yul\":5944:6021   */\n      0x4e487b7100000000000000000000000000000000000000000000000000000000\n        /* \"#utility.yul\":5941:5942   */\n      0x00\n        /* \"#utility.yul\":5934:6022   */\n      mstore\n        /* \"#utility.yul\":6041:6045   */\n      0x22\n        /* \"#utility.yul\":6038:6039   */\n      0x04\n        /* \"#utility.yul\":6031:6046   */\n      mstore\n        /* \"#utility.yul\":6065:6069   */\n      0x24\n        /* \"#utility.yul\":6062:6063   */\n      0x00\n        /* \"#utility.yul\":6055:6070   */\n      revert\n        /* \"#utility.yul\":6082:6402   */\n    tag_64:\n        /* \"#utility.yul\":6126:6132   */\n      0x00\n        /* \"#utility.yul\":6163:6164   */\n      0x02\n        /* \"#utility.yul\":6157:6161   */\n      dup3\n        /* \"#utility.yul\":6153:6165   */\n      div\n        /* \"#utility.yul\":6143:6165   */\n      swap1\n      pop\n        /* \"#utility.yul\":6210:6211   */\n      0x01\n        /* \"#utility.yul\":6204:6208   */\n      dup3\n        /* \"#utility.yul\":6200:6212   */\n      and\n        /* \"#utility.yul\":6231:6249   */\n      dup1\n        /* \"#utility.yul\":6221:6302   */\n      tag_281\n      jumpi\n        /* \"#utility.yul\":6287:6291   */\n      0x7f\n        /* \"#utility.yul\":6279:6285   */\n      dup3\n        /* \"#utility.yul\":6275:6292   */\n      and\n        /* \"#utility.yul\":6265:6292   */\n      swap2\n      pop\n        /* \"#utility.yul\":6221:6302   */\n    tag_281:\n        /* \"#utility.yul\":6349:6351   */\n      0x20\n        /* \"#utility.yul\":6341:6347   */\n      dup3\n        /* \"#utility.yul\":6338:6352   */\n      lt\n        /* \"#utility.yul\":6318:6336   */\n      dup2\n        /* \"#utility.yul\":6315:6353   */\n      sub\n        /* \"#utility.yul\":6312:6396   */\n      tag_282\n      jumpi\n        /* \"#utility.yul\":6368:6386   */\n      tag_283\n      tag_200\n      jump\t// in\n    tag_283:\n        /* \"#utility.yul\":6312:6396   */\n    tag_282:\n        /* \"#utility.yul\":6133:6402   */\n      pop\n        /* \"#utility.yul\":6082:6402   */\n      swap2\n      swap1\n      pop\n      jump\t// out\n        /* \"#utility.yul\":6408:6524   */\n    tag_201:\n        /* \"#utility.yul\":6478:6499   */\n      tag_285\n        /* \"#utility.yul\":6493:6498   */\n      dup2\n        /* \"#utility.yul\":6478:6499   */\n      tag_195\n      jump\t// in\n    tag_285:\n        /* \"#utility.yul\":6471:6476   */\n      dup2\n        /* \"#utility.yul\":6468:6500   */\n      eq\n        /* \"#utility.yul\":6458:6518   */\n      tag_286\n      jumpi\n        /* \"#utility.yul\":6514:6515   */\n      0x00\n        /* \"#utility.yul\":6511:6512   */\n      dup1\n        /* \"#utility.yul\":6504:6516   */\n      revert\n        /* \"#utility.yul\":6458:6518   */\n    tag_286:\n        /* \"#utility.yul\":6408:6524   */\n      pop\n      jump\t// out\n        /* \"#utility.yul\":6530:6667   */\n    tag_202:\n        /* \"#utility.yul\":6584:6589   */\n      0x00\n        /* \"#utility.yul\":6615:6621   */\n      dup2\n        /* \"#utility.yul\":6609:6622   */\n      mload\n        /* \"#utility.yul\":6600:6622   */\n      swap1\n      pop\n        /* \"#utility.yul\":6631:6661   */\n      tag_288\n        /* \"#utility.yul\":6655:6660   */\n      dup2\n        /* \"#utility.yul\":6631:6661   */\n      tag_201\n      jump\t// in\n    tag_288:\n        /* \"#utility.yul\":6530:6667   */\n      swap3\n      swap2\n      pop\n      pop\n      jump\t// out\n        /* \"#utility.yul\":6673:7018   */\n    tag_86:\n        /* \"#utility.yul\":6740:6746   */\n      0x00\n        /* \"#utility.yul\":6789:6791   */\n      0x20\n        /* \"#utility.yul\":6777:6786   */\n      dup3\n        /* \"#utility.yul\":6768:6775   */\n      dup5\n        /* \"#utility.yul\":6764:6787   */\n      sub\n        /* \"#utility.yul\":6760:6792   */\n      slt\n        /* \"#utility.yul\":6757:6876   */\n      iszero\n      tag_290\n      jumpi\n        /* \"#utility.yul\":6795:6874   */\n      tag_291\n      tag_186\n      jump\t// in\n    tag_291:\n        /* \"#utility.yul\":6757:6876   */\n    tag_290:\n        /* \"#utility.yul\":6915:6916   */\n      0x00\n        /* \"#utility.yul\":6940:7001   */\n      tag_292\n        /* \"#utility.yul\":6993:7000   */\n      dup5\n        /* \"#utility.yul\":6984:6990   */\n      dup3\n        /* \"#utility.yul\":6973:6982   */\n      dup6\n        /* \"#utility.yul\":6969:6991   */\n      add\n        /* \"#utility.yul\":6940:7001   */\n      tag_202\n      jump\t// in\n    tag_292:\n        /* \"#utility.yul\":6930:7001   */\n      swap2\n      pop\n        /* \"#utility.yul\":6886:7011   */\n      pop\n        /* \"#utility.yul\":6673:7018   */\n      swap3\n      swap2\n      pop\n      pop\n      jump\t// out\n        /* \"#utility.yul\":7024:7205   */\n    tag_203:\n        /* \"#utility.yul\":7164:7197   */\n      0x5468652066756e646d65206973206e6f7420636f6d706c657465642079657400\n        /* \"#utility.yul\":7160:7161   */\n      0x00\n        /* \"#utility.yul\":7152:7158   */\n      dup3\n        /* \"#utility.yul\":7148:7162   */\n      add\n        /* \"#utility.yul\":7141:7198   */\n      mstore\n        /* \"#utility.yul\":7024:7205   */\n      pop\n      jump\t// out\n        /* \"#utility.yul\":7211:7577   */\n    tag_204:\n        /* \"#utility.yul\":7353:7356   */\n      0x00\n        /* \"#utility.yul\":7374:7441   */\n      tag_295\n        /* \"#utility.yul\":7438:7440   */\n      0x1f\n        /* \"#utility.yul\":7433:7436   */\n      dup4\n        /* \"#utility.yul\":7374:7441   */\n      tag_181\n      jump\t// in\n    tag_295:\n        /* \"#utility.yul\":7367:7441   */\n      swap2\n      pop\n        /* \"#utility.yul\":7450:7543   */\n      tag_296\n        /* \"#utility.yul\":7539:7542   */\n      dup3\n        /* \"#utility.yul\":7450:7543   */\n      tag_203\n      jump\t// in\n    tag_296:\n        /* \"#utility.yul\":7568:7570   */\n      0x20\n        /* \"#utility.yul\":7563:7566   */\n      dup3\n        /* \"#utility.yul\":7559:7571   */\n      add\n        /* \"#utility.yul\":7552:7571   */\n      swap1\n      pop\n        /* \"#utility.yul\":7211:7577   */\n      swap2\n      swap1\n      pop\n      jump\t// out\n        /* \"#utility.yul\":7583:8002   */\n    tag_89:\n        /* \"#utility.yul\":7749:7753   */\n      0x00\n        /* \"#utility.yul\":7787:7789   */\n      0x20\n        /* \"#utility.yul\":7776:7785   */\n      dup3\n        /* \"#utility.yul\":7772:7790   */\n      add\n        /* \"#utility.yul\":7764:7790   */\n      swap1\n      pop\n        /* \"#utility.yul\":7836:7845   */\n      dup2\n        /* \"#utility.yul\":7830:7834   */\n      dup2\n        /* \"#utility.yul\":7826:7846   */\n      sub\n        /* \"#utility.yul\":7822:7823   */\n      0x00\n        /* \"#utility.yul\":7811:7820   */\n      dup4\n        /* \"#utility.yul\":7807:7824   */\n      add\n        /* \"#utility.yul\":7800:7847   */\n      mstore\n        /* \"#utility.yul\":7864:7995   */\n      tag_298\n        /* \"#utility.yul\":7990:7994   */\n      dup2\n        /* \"#utility.yul\":7864:7995   */\n      tag_204\n      jump\t// in\n    tag_298:\n        /* \"#utility.yul\":7856:7995   */\n      swap1\n      pop\n        /* \"#utility.yul\":7583:8002   */\n      swap2\n      swap1\n      pop\n      jump\t// out\n        /* \"#utility.yul\":8008:8228   */\n    tag_205:\n        /* \"#utility.yul\":8148:8182   */\n      0x796f7520646f6e74206861766520656e6f75676820455243323020746f6b656e\n        /* \"#utility.yul\":8144:8145   */\n      0x00\n        /* \"#utility.yul\":8136:8142   */\n      dup3\n        /* \"#utility.yul\":8132:8146   */\n      add\n        /* \"#utility.yul\":8125:8183   */\n      mstore\n        /* \"#utility.yul\":8217:8220   */\n      0x7300000000000000000000000000000000000000000000000000000000000000\n        /* \"#utility.yul\":8212:8214   */\n      0x20\n        /* \"#utility.yul\":8204:8210   */\n      dup3\n        /* \"#utility.yul\":8200:8215   */\n      add\n        /* \"#utility.yul\":8193:8221   */\n      mstore\n        /* \"#utility.yul\":8008:8228   */\n      pop\n      jump\t// out\n        /* \"#utility.yul\":8234:8600   */\n    tag_206:\n        /* \"#utility.yul\":8376:8379   */\n      0x00\n        /* \"#utility.yul\":8397:8464   */\n      tag_301\n        /* \"#utility.yul\":8461:8463   */\n      0x21\n        /* \"#utility.yul\":8456:8459   */\n      dup4\n        /* \"#utility.yul\":8397:8464   */\n      tag_181\n      jump\t// in\n    tag_301:\n        /* \"#utility.yul\":8390:8464   */\n      swap2\n      pop\n        /* \"#utility.yul\":8473:8566   */\n      tag_302\n        /* \"#utility.yul\":8562:8565   */\n      dup3\n        /* \"#utility.yul\":8473:8566   */\n      tag_205\n      jump\t// in\n    tag_302:\n        /* \"#utility.yul\":8591:8593   */\n      0x40\n        /* \"#utility.yul\":8586:8589   */\n      dup3\n        /* \"#utility.yul\":8582:8594   */\n      add\n        /* \"#utility.yul\":8575:8594   */\n      swap1\n      pop\n        /* \"#utility.yul\":8234:8600   */\n      swap2\n      swap1\n      pop\n      jump\t// out\n        /* \"#utility.yul\":8606:9025   */\n    tag_94:\n        /* \"#utility.yul\":8772:8776   */\n      0x00\n        /* \"#utility.yul\":8810:8812   */\n      0x20\n        /* \"#utility.yul\":8799:8808   */\n      dup3\n        /* \"#utility.yul\":8795:8813   */\n      add\n        /* \"#utility.yul\":8787:8813   */\n      swap1\n      pop\n        /* \"#utility.yul\":8859:8868   */\n      dup2\n        /* \"#utility.yul\":8853:8857   */\n      dup2\n        /* \"#utility.yul\":8849:8869   */\n      sub\n        /* \"#utility.yul\":8845:8846   */\n      0x00\n        /* \"#utility.yul\":8834:8843   */\n      dup4\n        /* \"#utility.yul\":8830:8847   */\n      add\n        /* \"#utility.yul\":8823:8870   */\n      mstore\n        /* \"#utility.yul\":8887:9018   */\n      tag_304\n        /* \"#utility.yul\":9013:9017   */\n      dup2\n        /* \"#utility.yul\":8887:9018   */\n      tag_206\n      jump\t// in\n    tag_304:\n        /* \"#utility.yul\":8879:9018   */\n      swap1\n      pop\n        /* \"#utility.yul\":8606:9025   */\n      swap2\n      swap1\n      pop\n      jump\t// out\n        /* \"#utility.yul\":9031:9149   */\n    tag_207:\n        /* \"#utility.yul\":9118:9142   */\n      tag_306\n        /* \"#utility.yul\":9136:9141   */\n      dup2\n        /* \"#utility.yul\":9118:9142   */\n      tag_189\n      jump\t// in\n    tag_306:\n        /* \"#utility.yul\":9113:9116   */\n      dup3\n        /* \"#utility.yul\":9106:9143   */\n      mstore\n        /* \"#utility.yul\":9031:9149   */\n      pop\n      pop\n      jump\t// out\n        /* \"#utility.yul\":9155:9377   */\n    tag_112:\n        /* \"#utility.yul\":9248:9252   */\n      0x00\n        /* \"#utility.yul\":9286:9288   */\n      0x20\n        /* \"#utility.yul\":9275:9284   */\n      dup3\n        /* \"#utility.yul\":9271:9289   */\n      add\n        /* \"#utility.yul\":9263:9289   */\n      swap1\n      pop\n        /* \"#utility.yul\":9299:9370   */\n      tag_308\n        /* \"#utility.yul\":9367:9368   */\n      0x00\n        /* \"#utility.yul\":9356:9365   */\n      dup4\n        /* \"#utility.yul\":9352:9369   */\n      add\n        /* \"#utility.yul\":9343:9349   */\n      dup5\n        /* \"#utility.yul\":9299:9370   */\n      tag_207\n      jump\t// in\n    tag_308:\n        /* \"#utility.yul\":9155:9377   */\n      swap3\n      swap2\n      pop\n      pop\n      jump\t// out\n        /* \"#utility.yul\":9383:9526   */\n    tag_208:\n        /* \"#utility.yul\":9440:9445   */\n      0x00\n        /* \"#utility.yul\":9471:9477   */\n      dup2\n        /* \"#utility.yul\":9465:9478   */\n      mload\n        /* \"#utility.yul\":9456:9478   */\n      swap1\n      pop\n        /* \"#utility.yul\":9487:9520   */\n      tag_310\n        /* \"#utility.yul\":9514:9519   */\n      dup2\n        /* \"#utility.yul\":9487:9520   */\n      tag_193\n      jump\t// in\n    tag_310:\n        /* \"#utility.yul\":9383:9526   */\n      swap3\n      swap2\n      pop\n      pop\n      jump\t// out\n        /* \"#utility.yul\":9532:9883   */\n    tag_116:\n        /* \"#utility.yul\":9602:9608   */\n      0x00\n        /* \"#utility.yul\":9651:9653   */\n      0x20\n        /* \"#utility.yul\":9639:9648   */\n      dup3\n        /* \"#utility.yul\":9630:9637   */\n      dup5\n        /* \"#utility.yul\":9626:9649   */\n      sub\n        /* \"#utility.yul\":9622:9654   */\n      slt\n        /* \"#utility.yul\":9619:9738   */\n      iszero\n      tag_312\n      jumpi\n        /* \"#utility.yul\":9657:9736   */\n      tag_313\n      tag_186\n      jump\t// in\n    tag_313:\n        /* \"#utility.yul\":9619:9738   */\n    tag_312:\n        /* \"#utility.yul\":9777:9778   */\n      0x00\n        /* \"#utility.yul\":9802:9866   */\n      tag_314\n        /* \"#utility.yul\":9858:9865   */\n      dup5\n        /* \"#utility.yul\":9849:9855   */\n      dup3\n        /* \"#utility.yul\":9838:9847   */\n      dup6\n        /* \"#utility.yul\":9834:9856   */\n      add\n        /* \"#utility.yul\":9802:9866   */\n      tag_208\n      jump\t// in\n    tag_314:\n        /* \"#utility.yul\":9792:9866   */\n      swap2\n      pop\n        /* \"#utility.yul\":9748:9876   */\n      pop\n        /* \"#utility.yul\":9532:9883   */\n      swap3\n      swap2\n      pop\n      pop\n      jump\t// out\n        /* \"#utility.yul\":9889:10071   */\n    tag_209:\n        /* \"#utility.yul\":10029:10063   */\n      0x596f752063616e6e6f74206d696e742074686973206d616e7920746f6b656e73\n        /* \"#utility.yul\":10025:10026   */\n      0x00\n        /* \"#utility.yul\":10017:10023   */\n      dup3\n        /* \"#utility.yul\":10013:10027   */\n      add\n        /* \"#utility.yul\":10006:10064   */\n      mstore\n        /* \"#utility.yul\":9889:10071   */\n      pop\n      jump\t// out\n        /* \"#utility.yul\":10077:10443   */\n    tag_210:\n        /* \"#utility.yul\":10219:10222   */\n      0x00\n        /* \"#utility.yul\":10240:10307   */\n      tag_317\n        /* \"#utility.yul\":10304:10306   */\n      0x20\n        /* \"#utility.yul\":10299:10302   */\n      dup4\n        /* \"#utility.yul\":10240:10307   */\n      tag_181\n      jump\t// in\n    tag_317:\n        /* \"#utility.yul\":10233:10307   */\n      swap2\n      pop\n        /* \"#utility.yul\":10316:10409   */\n      tag_318\n        /* \"#utility.yul\":10405:10408   */\n      dup3\n        /* \"#utility.yul\":10316:10409   */\n      tag_209\n      jump\t// in\n    tag_318:\n        /* \"#utility.yul\":10434:10436   */\n      0x20\n        /* \"#utility.yul\":10429:10432   */\n      dup3\n        /* \"#utility.yul\":10425:10437   */\n      add\n        /* \"#utility.yul\":10418:10437   */\n      swap1\n      pop\n        /* \"#utility.yul\":10077:10443   */\n      swap2\n      swap1\n      pop\n      jump\t// out\n        /* \"#utility.yul\":10449:10868   */\n    tag_119:\n        /* \"#utility.yul\":10615:10619   */\n      0x00\n        /* \"#utility.yul\":10653:10655   */\n      0x20\n        /* \"#utility.yul\":10642:10651   */\n      dup3\n        /* \"#utility.yul\":10638:10656   */\n      add\n        /* \"#utility.yul\":10630:10656   */\n      swap1\n      pop\n        /* \"#utility.yul\":10702:10711   */\n      dup2\n        /* \"#utility.yul\":10696:10700   */\n      dup2\n        /* \"#utility.yul\":10692:10712   */\n      sub\n        /* \"#utility.yul\":10688:10689   */\n      0x00\n        /* \"#utility.yul\":10677:10686   */\n      dup4\n        /* \"#utility.yul\":10673:10690   */\n      add\n        /* \"#utility.yul\":10666:10713   */\n      mstore\n        /* \"#utility.yul\":10730:10861   */\n      tag_320\n        /* \"#utility.yul\":10856:10860   */\n      dup2\n        /* \"#utility.yul\":10730:10861   */\n      tag_210\n      jump\t// in\n    tag_320:\n        /* \"#utility.yul\":10722:10861   */\n      swap1\n      pop\n        /* \"#utility.yul\":10449:10868   */\n      swap2\n      swap1\n      pop\n      jump\t// out\n        /* \"#utility.yul\":10874:11054   */\n    tag_211:\n        /* \"#utility.yul\":10922:10999   */\n      0x4e487b7100000000000000000000000000000000000000000000000000000000\n        /* \"#utility.yul\":10919:10920   */\n      0x00\n        /* \"#utility.yul\":10912:11000   */\n      mstore\n        /* \"#utility.yul\":11019:11023   */\n      0x11\n        /* \"#utility.yul\":11016:11017   */\n      0x04\n        /* \"#utility.yul\":11009:11024   */\n      mstore\n        /* \"#utility.yul\":11043:11047   */\n      0x24\n        /* \"#utility.yul\":11040:11041   */\n      0x00\n        /* \"#utility.yul\":11033:11048   */\n      revert\n        /* \"#utility.yul\":11060:11254   */\n    tag_127:\n        /* \"#utility.yul\":11100:11104   */\n      0x00\n        /* \"#utility.yul\":11120:11140   */\n      tag_323\n        /* \"#utility.yul\":11138:11139   */\n      dup3\n        /* \"#utility.yul\":11120:11140   */\n      tag_192\n      jump\t// in\n    tag_323:\n        /* \"#utility.yul\":11115:11140   */\n      swap2\n      pop\n        /* \"#utility.yul\":11154:11174   */\n      tag_324\n        /* \"#utility.yul\":11172:11173   */\n      dup4\n        /* \"#utility.yul\":11154:11174   */\n      tag_192\n      jump\t// in\n    tag_324:\n        /* \"#utility.yul\":11149:11174   */\n      swap3\n      pop\n        /* \"#utility.yul\":11198:11199   */\n      dup3\n        /* \"#utility.yul\":11195:11196   */\n      dup3\n        /* \"#utility.yul\":11191:11200   */\n      sub\n        /* \"#utility.yul\":11183:11200   */\n      swap1\n      pop\n        /* \"#utility.yul\":11222:11223   */\n      dup2\n        /* \"#utility.yul\":11216:11220   */\n      dup2\n        /* \"#utility.yul\":11213:11224   */\n      gt\n        /* \"#utility.yul\":11210:11247   */\n      iszero\n      tag_325\n      jumpi\n        /* \"#utility.yul\":11227:11245   */\n      tag_326\n      tag_211\n      jump\t// in\n    tag_326:\n        /* \"#utility.yul\":11210:11247   */\n    tag_325:\n        /* \"#utility.yul\":11060:11254   */\n      swap3\n      swap2\n      pop\n      pop\n      jump\t// out\n        /* \"#utility.yul\":11260:11592   */\n    tag_129:\n        /* \"#utility.yul\":11381:11385   */\n      0x00\n        /* \"#utility.yul\":11419:11421   */\n      0x40\n        /* \"#utility.yul\":11408:11417   */\n      dup3\n        /* \"#utility.yul\":11404:11422   */\n      add\n        /* \"#utility.yul\":11396:11422   */\n      swap1\n      pop\n        /* \"#utility.yul\":11432:11503   */\n      tag_328\n        /* \"#utility.yul\":11500:11501   */\n      0x00\n        /* \"#utility.yul\":11489:11498   */\n      dup4\n        /* \"#utility.yul\":11485:11502   */\n      add\n        /* \"#utility.yul\":11476:11482   */\n      dup6\n        /* \"#utility.yul\":11432:11503   */\n      tag_207\n      jump\t// in\n    tag_328:\n        /* \"#utility.yul\":11513:11585   */\n      tag_329\n        /* \"#utility.yul\":11581:11583   */\n      0x20\n        /* \"#utility.yul\":11570:11579   */\n      dup4\n        /* \"#utility.yul\":11566:11584   */\n      add\n        /* \"#utility.yul\":11557:11563   */\n      dup5\n        /* \"#utility.yul\":11513:11585   */\n      tag_197\n      jump\t// in\n    tag_329:\n        /* \"#utility.yul\":11260:11592   */\n      swap4\n      swap3\n      pop\n      pop\n      pop\n      jump\t// out\n        /* \"#utility.yul\":11598:12040   */\n    tag_146:\n        /* \"#utility.yul\":11747:11751   */\n      0x00\n        /* \"#utility.yul\":11785:11787   */\n      0x60\n        /* \"#utility.yul\":11774:11783   */\n      dup3\n        /* \"#utility.yul\":11770:11788   */\n      add\n        /* \"#utility.yul\":11762:11788   */\n      swap1\n      pop\n        /* \"#utility.yul\":11798:11869   */\n      tag_331\n        /* \"#utility.yul\":11866:11867   */\n      0x00\n        /* \"#utility.yul\":11855:11864   */\n      dup4\n        /* \"#utility.yul\":11851:11868   */\n      add\n        /* \"#utility.yul\":11842:11848   */\n      dup7\n        /* \"#utility.yul\":11798:11869   */\n      tag_207\n      jump\t// in\n    tag_331:\n        /* \"#utility.yul\":11879:11951   */\n      tag_332\n        /* \"#utility.yul\":11947:11949   */\n      0x20\n        /* \"#utility.yul\":11936:11945   */\n      dup4\n        /* \"#utility.yul\":11932:11950   */\n      add\n        /* \"#utility.yul\":11923:11929   */\n      dup6\n        /* \"#utility.yul\":11879:11951   */\n      tag_197\n      jump\t// in\n    tag_332:\n        /* \"#utility.yul\":11961:12033   */\n      tag_333\n        /* \"#utility.yul\":12029:12031   */\n      0x40\n        /* \"#utility.yul\":12018:12027   */\n      dup4\n        /* \"#utility.yul\":12014:12032   */\n      add\n        /* \"#utility.yul\":12005:12011   */\n      dup5\n        /* \"#utility.yul\":11961:12033   */\n      tag_197\n      jump\t// in\n    tag_333:\n        /* \"#utility.yul\":11598:12040   */\n      swap5\n      swap4\n      pop\n      pop\n      pop\n      pop\n      jump\t// out\n        /* \"#utility.yul\":12046:12237   */\n    tag_173:\n        /* \"#utility.yul\":12086:12089   */\n      0x00\n        /* \"#utility.yul\":12105:12125   */\n      tag_335\n        /* \"#utility.yul\":12123:12124   */\n      dup3\n        /* \"#utility.yul\":12105:12125   */\n      tag_192\n      jump\t// in\n    tag_335:\n        /* \"#utility.yul\":12100:12125   */\n      swap2\n      pop\n        /* \"#utility.yul\":12139:12159   */\n      tag_336\n        /* \"#utility.yul\":12157:12158   */\n      dup4\n        /* \"#utility.yul\":12139:12159   */\n      tag_192\n      jump\t// in\n    tag_336:\n        /* \"#utility.yul\":12134:12159   */\n      swap3\n      pop\n        /* \"#utility.yul\":12182:12183   */\n      dup3\n        /* \"#utility.yul\":12179:12180   */\n      dup3\n        /* \"#utility.yul\":12175:12184   */\n      add\n        /* \"#utility.yul\":12168:12184   */\n      swap1\n      pop\n        /* \"#utility.yul\":12203:12206   */\n      dup1\n        /* \"#utility.yul\":12200:12201   */\n      dup3\n        /* \"#utility.yul\":12197:12207   */\n      gt\n        /* \"#utility.yul\":12194:12230   */\n      iszero\n      tag_337\n      jumpi\n        /* \"#utility.yul\":12210:12228   */\n      tag_338\n      tag_211\n      jump\t// in\n    tag_338:\n        /* \"#utility.yul\":12194:12230   */\n    tag_337:\n        /* \"#utility.yul\":12046:12237   */\n      swap3\n      swap2\n      pop\n      pop\n      jump\t// out\n\n    auxdata: 0xa26469706673582212200fa94fceb7e21c91387a7bb6e51b09262f66553f915eabce5407102fbe7ee19064736f6c634300081a0033\n}\n",
				"bytecode": {
					"linkReferences": {},
					"object": "608060405234801561000f575f80fd5b50604051611a4f380380611a4f83398181016040528101906100319190610163565b6040518060400160405280600e81526020017f46756e64546f6b656e45524332300000000000000000000000000000000000008152506040518060400160405280600281526020017f465400000000000000000000000000000000000000000000000000000000000081525081600390816100ac91906103c8565b5080600490816100bc91906103c8565b5050508060055f6101000a81548173ffffffffffffffffffffffffffffffffffffffff021916908373ffffffffffffffffffffffffffffffffffffffff16021790555050610497565b5f80fd5b5f73ffffffffffffffffffffffffffffffffffffffff82169050919050565b5f61013282610109565b9050919050565b61014281610128565b811461014c575f80fd5b50565b5f8151905061015d81610139565b92915050565b5f6020828403121561017857610177610105565b5b5f6101858482850161014f565b91505092915050565b5f81519050919050565b7f4e487b71000000000000000000000000000000000000000000000000000000005f52604160045260245ffd5b7f4e487b71000000000000000000000000000000000000000000000000000000005f52602260045260245ffd5b5f600282049050600182168061020957607f821691505b60208210810361021c5761021b6101c5565b5b50919050565b5f819050815f5260205f209050919050565b5f6020601f8301049050919050565b5f82821b905092915050565b5f6008830261027e7fffffffffffffffffffffffffffffffffffffffffffffffffffffffffffffffff82610243565b6102888683610243565b95508019841693508086168417925050509392505050565b5f819050919050565b5f819050919050565b5f6102cc6102c76102c2846102a0565b6102a9565b6102a0565b9050919050565b5f819050919050565b6102e5836102b2565b6102f96102f1826102d3565b84845461024f565b825550505050565b5f90565b61030d610301565b6103188184846102dc565b505050565b5b8181101561033b576103305f82610305565b60018101905061031e565b5050565b601f8211156103805761035181610222565b61035a84610234565b81016020851015610369578190505b61037d61037585610234565b83018261031d565b50505b505050565b5f82821c905092915050565b5f6103a05f1984600802610385565b1980831691505092915050565b5f6103b88383610391565b9150826002028217905092915050565b6103d18261018e565b67ffffffffffffffff8111156103ea576103e9610198565b5b6103f482546101f2565b6103ff82828561033f565b5f60209050601f831160018114610430575f841561041e578287015190505b61042885826103ad565b86555061048f565b601f19841661043e86610222565b5f5b8281101561046557848901518255600182019150602085019450602081019050610440565b86831015610482578489015161047e601f891682610391565b8355505b6001600288020188555050505b505050505050565b6115ab806104a45f395ff3fe608060405234801561000f575f80fd5b50600436106100a7575f3560e01c8063379607f51161006f578063379607f51461016557806370a082311461018157806395d89b41146101b1578063a0712d68146101cf578063a9059cbb146101eb578063dd62ed3e1461021b576100a7565b806306fdde03146100ab578063095ea7b3146100c957806318160ddd146100f957806323b872dd14610117578063313ce56714610147575b5f80fd5b6100b361024b565b6040516100c09190610fad565b60405180910390f35b6100e360048036038101906100de919061105e565b6102db565b6040516100f091906110b6565b60405180910390f35b6101016102fd565b60405161010e91906110de565b60405180910390f35b610131600480360381019061012c91906110f7565b610306565b60405161013e91906110b6565b60405180910390f35b61014f610334565b60405161015c9190611162565b60405180910390f35b61017f600480360381019061017a919061117b565b61033c565b005b61019b600480360381019061019691906111a6565b610461565b6040516101a891906110de565b60405180910390f35b6101b96104a6565b6040516101c69190610fad565b60405180910390f35b6101e960048036038101906101e4919061117b565b610536565b005b6102056004803603810190610200919061105e565b610817565b60405161021291906110b6565b60405180910390f35b610235600480360381019061023091906111d1565b610839565b60405161024291906110de565b60405180910390f35b60606003805461025a9061123c565b80601f01602080910402602001604051908101604052809291908181526020018280546102869061123c565b80156102d15780601f106102a8576101008083540402835291602001916102d1565b820191905f5260205f20905b8154815290600101906020018083116102b457829003601f168201915b5050505050905090565b5f806102e56108bb565b90506102f28185856108c2565b600191505092915050565b5f600254905090565b5f806103106108bb565b905061031d8582856108d4565b610328858585610967565b60019150509392505050565b5f6012905090565b60055f9054906101000a900473ffffffffffffffffffffffffffffffffffffffff1673ffffffffffffffffffffffffffffffffffffffff1663da4658e06040518163ffffffff1660e01b8152600401602060405180830381865afa1580156103a6573d5f803e3d5ffd5b505050506040513d601f19601f820116820180604052508101906103ca9190611296565b610409576040517f08c379a00000000000000000000000000000000000000000000000000000000081526004016104009061130b565b60405180910390fd5b8061041333610461565b1015610454576040517f08c379a000000000000000000000000000000000000000000000000000000000815260040161044b90611399565b60405180910390fd5b61045e3382610a57565b50565b5f805f8373ffffffffffffffffffffffffffffffffffffffff1673ffffffffffffffffffffffffffffffffffffffff1681526020019081526020015f20549050919050565b6060600480546104b59061123c565b80601f01602080910402602001604051908101604052809291908181526020018280546104e19061123c565b801561052c5780601f106105035761010080835404028352916020019161052c565b820191905f5260205f20905b81548152906001019060200180831161050f57829003601f168201915b5050505050905090565b60055f9054906101000a900473ffffffffffffffffffffffffffffffffffffffff1673ffffffffffffffffffffffffffffffffffffffff1663da4658e06040518163ffffffff1660e01b8152600401602060405180830381865afa1580156105a0573d5f803e3d5ffd5b505050506040513d601f19601f820116820180604052508101906105c49190611296565b610603576040517f08c379a00000000000000000000000000000000000000000000000000000000081526004016105fa9061130b565b60405180910390fd5b8060055f9054906101000a900473ffffffffffffffffffffffffffffffffffffffff1673ffffffffffffffffffffffffffffffffffffffff16634407e1e8336040518263ffffffff1660e01b815260040161065e91906113c6565b602060405180830381865afa158015610679573d5f803e3d5ffd5b505050506040513d601f19601f8201168201806040525081019061069d91906113f3565b10156106de576040517f08c379a00000000000000000000000000000000000000000000000000000000081526004016106d590611468565b60405180910390fd5b6106e83382610ad6565b60055f9054906101000a900473ffffffffffffffffffffffffffffffffffffffff1673ffffffffffffffffffffffffffffffffffffffff1663d39cf006338360055f9054906101000a900473ffffffffffffffffffffffffffffffffffffffff1673ffffffffffffffffffffffffffffffffffffffff16634407e1e8336040518263ffffffff1660e01b815260040161078191906113c6565b602060405180830381865afa15801561079c573d5f803e3d5ffd5b505050506040513d601f19601f820116820180604052508101906107c091906113f3565b6107ca91906114b3565b6040518363ffffffff1660e01b81526004016107e79291906114e6565b5f604051808303815f87803b1580156107fe575f80fd5b505af1158015610810573d5f803e3d5ffd5b5050505050565b5f806108216108bb565b905061082e818585610967565b600191505092915050565b5f60015f8473ffffffffffffffffffffffffffffffffffffffff1673ffffffffffffffffffffffffffffffffffffffff1681526020019081526020015f205f8373ffffffffffffffffffffffffffffffffffffffff1673ffffffffffffffffffffffffffffffffffffffff1681526020019081526020015f2054905092915050565b5f33905090565b6108cf8383836001610b55565b505050565b5f6108df8484610839565b90507fffffffffffffffffffffffffffffffffffffffffffffffffffffffffffffffff8110156109615781811015610952578281836040517ffb8f41b20000000000000000000000000000000000000000000000000000000081526004016109499392919061150d565b60405180910390fd5b61096084848484035f610b55565b5b50505050565b5f73ffffffffffffffffffffffffffffffffffffffff168373ffffffffffffffffffffffffffffffffffffffff16036109d7575f6040517f96c6fd1e0000000000000000000000000000000000000000000000000000000081526004016109ce91906113c6565b60405180910390fd5b5f73ffffffffffffffffffffffffffffffffffffffff168273ffffffffffffffffffffffffffffffffffffffff1603610a47575f6040517fec442f05000000000000000000000000000000000000000000000000000000008152600401610a3e91906113c6565b60405180910390fd5b610a52838383610d24565b505050565b5f73ffffffffffffffffffffffffffffffffffffffff168273ffffffffffffffffffffffffffffffffffffffff1603610ac7575f6040517f96c6fd1e000000000000000000000000000000000000000000000000000000008152600401610abe91906113c6565b60405180910390fd5b610ad2825f83610d24565b5050565b5f73ffffffffffffffffffffffffffffffffffffffff168273ffffffffffffffffffffffffffffffffffffffff1603610b46575f6040517fec442f05000000000000000000000000000000000000000000000000000000008152600401610b3d91906113c6565b60405180910390fd5b610b515f8383610d24565b5050565b5f73ffffffffffffffffffffffffffffffffffffffff168473ffffffffffffffffffffffffffffffffffffffff1603610bc5575f6040517fe602df05000000000000000000000000000000000000000000000000000000008152600401610bbc91906113c6565b60405180910390fd5b5f73ffffffffffffffffffffffffffffffffffffffff168373ffffffffffffffffffffffffffffffffffffffff1603610c35575f6040517f94280d62000000000000000000000000000000000000000000000000000000008152600401610c2c91906113c6565b60405180910390fd5b8160015f8673ffffffffffffffffffffffffffffffffffffffff1673ffffffffffffffffffffffffffffffffffffffff1681526020019081526020015f205f8573ffffffffffffffffffffffffffffffffffffffff1673ffffffffffffffffffffffffffffffffffffffff1681526020019081526020015f20819055508015610d1e578273ffffffffffffffffffffffffffffffffffffffff168473ffffffffffffffffffffffffffffffffffffffff167f8c5be1e5ebec7d5bd14f71427d1e84f3dd0314c0f7b2291e5b200ac8c7c3b92584604051610d1591906110de565b60405180910390a35b50505050565b5f73ffffffffffffffffffffffffffffffffffffffff168373ffffffffffffffffffffffffffffffffffffffff1603610d74578060025f828254610d689190611542565b92505081905550610e42565b5f805f8573ffffffffffffffffffffffffffffffffffffffff1673ffffffffffffffffffffffffffffffffffffffff1681526020019081526020015f2054905081811015610dfd578381836040517fe450d38c000000000000000000000000000000000000000000000000000000008152600401610df49392919061150d565b60405180910390fd5b8181035f808673ffffffffffffffffffffffffffffffffffffffff1673ffffffffffffffffffffffffffffffffffffffff1681526020019081526020015f2081905550505b5f73ffffffffffffffffffffffffffffffffffffffff168273ffffffffffffffffffffffffffffffffffffffff1603610e89578060025f8282540392505081905550610ed3565b805f808473ffffffffffffffffffffffffffffffffffffffff1673ffffffffffffffffffffffffffffffffffffffff1681526020019081526020015f205f82825401925050819055505b8173ffffffffffffffffffffffffffffffffffffffff168373ffffffffffffffffffffffffffffffffffffffff167fddf252ad1be2c89b69c2b068fc378daa952ba7f163c4a11628f55a4df523b3ef83604051610f3091906110de565b60405180910390a3505050565b5f81519050919050565b5f82825260208201905092915050565b8281835e5f83830152505050565b5f601f19601f8301169050919050565b5f610f7f82610f3d565b610f898185610f47565b9350610f99818560208601610f57565b610fa281610f65565b840191505092915050565b5f6020820190508181035f830152610fc58184610f75565b905092915050565b5f80fd5b5f73ffffffffffffffffffffffffffffffffffffffff82169050919050565b5f610ffa82610fd1565b9050919050565b61100a81610ff0565b8114611014575f80fd5b50565b5f8135905061102581611001565b92915050565b5f819050919050565b61103d8161102b565b8114611047575f80fd5b50565b5f8135905061105881611034565b92915050565b5f806040838503121561107457611073610fcd565b5b5f61108185828601611017565b92505060206110928582860161104a565b9150509250929050565b5f8115159050919050565b6110b08161109c565b82525050565b5f6020820190506110c95f8301846110a7565b92915050565b6110d88161102b565b82525050565b5f6020820190506110f15f8301846110cf565b92915050565b5f805f6060848603121561110e5761110d610fcd565b5b5f61111b86828701611017565b935050602061112c86828701611017565b925050604061113d8682870161104a565b9150509250925092565b5f60ff82169050919050565b61115c81611147565b82525050565b5f6020820190506111755f830184611153565b92915050565b5f602082840312156111905761118f610fcd565b5b5f61119d8482850161104a565b91505092915050565b5f602082840312156111bb576111ba610fcd565b5b5f6111c884828501611017565b91505092915050565b5f80604083850312156111e7576111e6610fcd565b5b5f6111f485828601611017565b925050602061120585828601611017565b9150509250929050565b7f4e487b71000000000000000000000000000000000000000000000000000000005f52602260045260245ffd5b5f600282049050600182168061125357607f821691505b6020821081036112665761126561120f565b5b50919050565b6112758161109c565b811461127f575f80fd5b50565b5f815190506112908161126c565b92915050565b5f602082840312156112ab576112aa610fcd565b5b5f6112b884828501611282565b91505092915050565b7f5468652066756e646d65206973206e6f7420636f6d706c6574656420796574005f82015250565b5f6112f5601f83610f47565b9150611300826112c1565b602082019050919050565b5f6020820190508181035f830152611322816112e9565b9050919050565b7f796f7520646f6e74206861766520656e6f75676820455243323020746f6b656e5f8201527f7300000000000000000000000000000000000000000000000000000000000000602082015250565b5f611383602183610f47565b915061138e82611329565b604082019050919050565b5f6020820190508181035f8301526113b081611377565b9050919050565b6113c081610ff0565b82525050565b5f6020820190506113d95f8301846113b7565b92915050565b5f815190506113ed81611034565b92915050565b5f6020828403121561140857611407610fcd565b5b5f611415848285016113df565b91505092915050565b7f596f752063616e6e6f74206d696e742074686973206d616e7920746f6b656e735f82015250565b5f611452602083610f47565b915061145d8261141e565b602082019050919050565b5f6020820190508181035f83015261147f81611446565b9050919050565b7f4e487b71000000000000000000000000000000000000000000000000000000005f52601160045260245ffd5b5f6114bd8261102b565b91506114c88361102b565b92508282039050818111156114e0576114df611486565b5b92915050565b5f6040820190506114f95f8301856113b7565b61150660208301846110cf565b9392505050565b5f6060820190506115205f8301866113b7565b61152d60208301856110cf565b61153a60408301846110cf565b949350505050565b5f61154c8261102b565b91506115578361102b565b925082820190508082111561156f5761156e611486565b5b9291505056fea26469706673582212200fa94fceb7e21c91387a7bb6e51b09262f66553f915eabce5407102fbe7ee19064736f6c634300081a0033",
					"opcodes": "PUSH1 0x80 PUSH1 0x40 MSTORE CALLVALUE DUP1 ISZERO PUSH2 0xF JUMPI PUSH0 DUP1 REVERT JUMPDEST POP PUSH1 0x40 MLOAD PUSH2 0x1A4F CODESIZE SUB DUP1 PUSH2 0x1A4F DUP4 CODECOPY DUP2 DUP2 ADD PUSH1 0x40 MSTORE DUP2 ADD SWAP1 PUSH2 0x31 SWAP2 SWAP1 PUSH2 0x163 JUMP JUMPDEST PUSH1 0x40 MLOAD DUP1 PUSH1 0x40 ADD PUSH1 0x40 MSTORE DUP1 PUSH1 0xE DUP2 MSTORE PUSH1 0x20 ADD PUSH32 0x46756E64546F6B656E4552433230000000000000000000000000000000000000 DUP2 MSTORE POP PUSH1 0x40 MLOAD DUP1 PUSH1 0x40 ADD PUSH1 0x40 MSTORE DUP1 PUSH1 0x2 DUP2 MSTORE PUSH1 0x20 ADD PUSH32 0x4654000000000000000000000000000000000000000000000000000000000000 DUP2 MSTORE POP DUP2 PUSH1 0x3 SWAP1 DUP2 PUSH2 0xAC SWAP2 SWAP1 PUSH2 0x3C8 JUMP JUMPDEST POP DUP1 PUSH1 0x4 SWAP1 DUP2 PUSH2 0xBC SWAP2 SWAP1 PUSH2 0x3C8 JUMP JUMPDEST POP POP POP DUP1 PUSH1 0x5 PUSH0 PUSH2 0x100 EXP DUP2 SLOAD DUP2 PUSH20 0xFFFFFFFFFFFFFFFFFFFFFFFFFFFFFFFFFFFFFFFF MUL NOT AND SWAP1 DUP4 PUSH20 0xFFFFFFFFFFFFFFFFFFFFFFFFFFFFFFFFFFFFFFFF AND MUL OR SWAP1 SSTORE POP POP PUSH2 0x497 JUMP JUMPDEST PUSH0 DUP1 REVERT JUMPDEST PUSH0 PUSH20 0xFFFFFFFFFFFFFFFFFFFFFFFFFFFFFFFFFFFFFFFF DUP3 AND SWAP1 POP SWAP2 SWAP1 POP JUMP JUMPDEST PUSH0 PUSH2 0x132 DUP3 PUSH2 0x109 JUMP JUMPDEST SWAP1 POP SWAP2 SWAP1 POP JUMP JUMPDEST PUSH2 0x142 DUP2 PUSH2 0x128 JUMP JUMPDEST DUP2 EQ PUSH2 0x14C JUMPI PUSH0 DUP1 REVERT JUMPDEST POP JUMP JUMPDEST PUSH0 DUP2 MLOAD SWAP1 POP PUSH2 0x15D DUP2 PUSH2 0x139 JUMP JUMPDEST SWAP3 SWAP2 POP POP JUMP JUMPDEST PUSH0 PUSH1 0x20 DUP3 DUP5 SUB SLT ISZERO PUSH2 0x178 JUMPI PUSH2 0x177 PUSH2 0x105 JUMP JUMPDEST JUMPDEST PUSH0 PUSH2 0x185 DUP5 DUP3 DUP6 ADD PUSH2 0x14F JUMP JUMPDEST SWAP2 POP POP SWAP3 SWAP2 POP POP JUMP JUMPDEST PUSH0 DUP2 MLOAD SWAP1 POP SWAP2 SWAP1 POP JUMP JUMPDEST PUSH32 0x4E487B7100000000000000000000000000000000000000000000000000000000 PUSH0 MSTORE PUSH1 0x41 PUSH1 0x4 MSTORE PUSH1 0x24 PUSH0 REVERT JUMPDEST PUSH32 0x4E487B7100000000000000000000000000000000000000000000000000000000 PUSH0 MSTORE PUSH1 0x22 PUSH1 0x4 MSTORE PUSH1 0x24 PUSH0 REVERT JUMPDEST PUSH0 PUSH1 0x2 DUP3 DIV SWAP1 POP PUSH1 0x1 DUP3 AND DUP1 PUSH2 0x209 JUMPI PUSH1 0x7F DUP3 AND SWAP2 POP JUMPDEST PUSH1 0x20 DUP3 LT DUP2 SUB PUSH2 0x21C JUMPI PUSH2 0x21B PUSH2 0x1C5 JUMP JUMPDEST JUMPDEST POP SWAP2 SWAP1 POP JUMP JUMPDEST PUSH0 DUP2 SWAP1 POP DUP2 PUSH0 MSTORE PUSH1 0x20 PUSH0 KECCAK256 SWAP1 POP SWAP2 SWAP1 POP JUMP JUMPDEST PUSH0 PUSH1 0x20 PUSH1 0x1F DUP4 ADD DIV SWAP1 POP SWAP2 SWAP1 POP JUMP JUMPDEST PUSH0 DUP3 DUP3 SHL SWAP1 POP SWAP3 SWAP2 POP POP JUMP JUMPDEST PUSH0 PUSH1 0x8 DUP4 MUL PUSH2 0x27E PUSH32 0xFFFFFFFFFFFFFFFFFFFFFFFFFFFFFFFFFFFFFFFFFFFFFFFFFFFFFFFFFFFFFFFF DUP3 PUSH2 0x243 JUMP JUMPDEST PUSH2 0x288 DUP7 DUP4 PUSH2 0x243 JUMP JUMPDEST SWAP6 POP DUP1 NOT DUP5 AND SWAP4 POP DUP1 DUP7 AND DUP5 OR SWAP3 POP POP POP SWAP4 SWAP3 POP POP POP JUMP JUMPDEST PUSH0 DUP2 SWAP1 POP SWAP2 SWAP1 POP JUMP JUMPDEST PUSH0 DUP2 SWAP1 POP SWAP2 SWAP1 POP JUMP JUMPDEST PUSH0 PUSH2 0x2CC PUSH2 0x2C7 PUSH2 0x2C2 DUP5 PUSH2 0x2A0 JUMP JUMPDEST PUSH2 0x2A9 JUMP JUMPDEST PUSH2 0x2A0 JUMP JUMPDEST SWAP1 POP SWAP2 SWAP1 POP JUMP JUMPDEST PUSH0 DUP2 SWAP1 POP SWAP2 SWAP1 POP JUMP JUMPDEST PUSH2 0x2E5 DUP4 PUSH2 0x2B2 JUMP JUMPDEST PUSH2 0x2F9 PUSH2 0x2F1 DUP3 PUSH2 0x2D3 JUMP JUMPDEST DUP5 DUP5 SLOAD PUSH2 0x24F JUMP JUMPDEST DUP3 SSTORE POP POP POP POP JUMP JUMPDEST PUSH0 SWAP1 JUMP JUMPDEST PUSH2 0x30D PUSH2 0x301 JUMP JUMPDEST PUSH2 0x318 DUP2 DUP5 DUP5 PUSH2 0x2DC JUMP JUMPDEST POP POP POP JUMP JUMPDEST JUMPDEST DUP2 DUP2 LT ISZERO PUSH2 0x33B JUMPI PUSH2 0x330 PUSH0 DUP3 PUSH2 0x305 JUMP JUMPDEST PUSH1 0x1 DUP2 ADD SWAP1 POP PUSH2 0x31E JUMP JUMPDEST POP POP JUMP JUMPDEST PUSH1 0x1F DUP3 GT ISZERO PUSH2 0x380 JUMPI PUSH2 0x351 DUP2 PUSH2 0x222 JUMP JUMPDEST PUSH2 0x35A DUP5 PUSH2 0x234 JUMP JUMPDEST DUP2 ADD PUSH1 0x20 DUP6 LT ISZERO PUSH2 0x369 JUMPI DUP2 SWAP1 POP JUMPDEST PUSH2 0x37D PUSH2 0x375 DUP6 PUSH2 0x234 JUMP JUMPDEST DUP4 ADD DUP3 PUSH2 0x31D JUMP JUMPDEST POP POP JUMPDEST POP POP POP JUMP JUMPDEST PUSH0 DUP3 DUP3 SHR SWAP1 POP SWAP3 SWAP2 POP POP JUMP JUMPDEST PUSH0 PUSH2 0x3A0 PUSH0 NOT DUP5 PUSH1 0x8 MUL PUSH2 0x385 JUMP JUMPDEST NOT DUP1 DUP4 AND SWAP2 POP POP SWAP3 SWAP2 POP POP JUMP JUMPDEST PUSH0 PUSH2 0x3B8 DUP4 DUP4 PUSH2 0x391 JUMP JUMPDEST SWAP2 POP DUP3 PUSH1 0x2 MUL DUP3 OR SWAP1 POP SWAP3 SWAP2 POP POP JUMP JUMPDEST PUSH2 0x3D1 DUP3 PUSH2 0x18E JUMP JUMPDEST PUSH8 0xFFFFFFFFFFFFFFFF DUP2 GT ISZERO PUSH2 0x3EA JUMPI PUSH2 0x3E9 PUSH2 0x198 JUMP JUMPDEST JUMPDEST PUSH2 0x3F4 DUP3 SLOAD PUSH2 0x1F2 JUMP JUMPDEST PUSH2 0x3FF DUP3 DUP3 DUP6 PUSH2 0x33F JUMP JUMPDEST PUSH0 PUSH1 0x20 SWAP1 POP PUSH1 0x1F DUP4 GT PUSH1 0x1 DUP2 EQ PUSH2 0x430 JUMPI PUSH0 DUP5 ISZERO PUSH2 0x41E JUMPI DUP3 DUP8 ADD MLOAD SWAP1 POP JUMPDEST PUSH2 0x428 DUP6 DUP3 PUSH2 0x3AD JUMP JUMPDEST DUP7 SSTORE POP PUSH2 0x48F JUMP JUMPDEST PUSH1 0x1F NOT DUP5 AND PUSH2 0x43E DUP7 PUSH2 0x222 JUMP JUMPDEST PUSH0 JUMPDEST DUP3 DUP2 LT ISZERO PUSH2 0x465 JUMPI DUP5 DUP10 ADD MLOAD DUP3 SSTORE PUSH1 0x1 DUP3 ADD SWAP2 POP PUSH1 0x20 DUP6 ADD SWAP5 POP PUSH1 0x20 DUP2 ADD SWAP1 POP PUSH2 0x440 JUMP JUMPDEST DUP7 DUP4 LT ISZERO PUSH2 0x482 JUMPI DUP5 DUP10 ADD MLOAD PUSH2 0x47E PUSH1 0x1F DUP10 AND DUP3 PUSH2 0x391 JUMP JUMPDEST DUP4 SSTORE POP JUMPDEST PUSH1 0x1 PUSH1 0x2 DUP9 MUL ADD DUP9 SSTORE POP POP POP JUMPDEST POP POP POP POP POP POP JUMP JUMPDEST PUSH2 0x15AB DUP1 PUSH2 0x4A4 PUSH0 CODECOPY PUSH0 RETURN INVALID PUSH1 0x80 PUSH1 0x40 MSTORE CALLVALUE DUP1 ISZERO PUSH2 0xF JUMPI PUSH0 DUP1 REVERT JUMPDEST POP PUSH1 0x4 CALLDATASIZE LT PUSH2 0xA7 JUMPI PUSH0 CALLDATALOAD PUSH1 0xE0 SHR DUP1 PUSH4 0x379607F5 GT PUSH2 0x6F JUMPI DUP1 PUSH4 0x379607F5 EQ PUSH2 0x165 JUMPI DUP1 PUSH4 0x70A08231 EQ PUSH2 0x181 JUMPI DUP1 PUSH4 0x95D89B41 EQ PUSH2 0x1B1 JUMPI DUP1 PUSH4 0xA0712D68 EQ PUSH2 0x1CF JUMPI DUP1 PUSH4 0xA9059CBB EQ PUSH2 0x1EB JUMPI DUP1 PUSH4 0xDD62ED3E EQ PUSH2 0x21B JUMPI PUSH2 0xA7 JUMP JUMPDEST DUP1 PUSH4 0x6FDDE03 EQ PUSH2 0xAB JUMPI DUP1 PUSH4 0x95EA7B3 EQ PUSH2 0xC9 JUMPI DUP1 PUSH4 0x18160DDD EQ PUSH2 0xF9 JUMPI DUP1 PUSH4 0x23B872DD EQ PUSH2 0x117 JUMPI DUP1 PUSH4 0x313CE567 EQ PUSH2 0x147 JUMPI JUMPDEST PUSH0 DUP1 REVERT JUMPDEST PUSH2 0xB3 PUSH2 0x24B JUMP JUMPDEST PUSH1 0x40 MLOAD PUSH2 0xC0 SWAP2 SWAP1 PUSH2 0xFAD JUMP JUMPDEST PUSH1 0x40 MLOAD DUP1 SWAP2 SUB SWAP1 RETURN JUMPDEST PUSH2 0xE3 PUSH1 0x4 DUP1 CALLDATASIZE SUB DUP2 ADD SWAP1 PUSH2 0xDE SWAP2 SWAP1 PUSH2 0x105E JUMP JUMPDEST PUSH2 0x2DB JUMP JUMPDEST PUSH1 0x40 MLOAD PUSH2 0xF0 SWAP2 SWAP1 PUSH2 0x10B6 JUMP JUMPDEST PUSH1 0x40 MLOAD DUP1 SWAP2 SUB SWAP1 RETURN JUMPDEST PUSH2 0x101 PUSH2 0x2FD JUMP JUMPDEST PUSH1 0x40 MLOAD PUSH2 0x10E SWAP2 SWAP1 PUSH2 0x10DE JUMP JUMPDEST PUSH1 0x40 MLOAD DUP1 SWAP2 SUB SWAP1 RETURN JUMPDEST PUSH2 0x131 PUSH1 0x4 DUP1 CALLDATASIZE SUB DUP2 ADD SWAP1 PUSH2 0x12C SWAP2 SWAP1 PUSH2 0x10F7 JUMP JUMPDEST PUSH2 0x306 JUMP JUMPDEST PUSH1 0x40 MLOAD PUSH2 0x13E SWAP2 SWAP1 PUSH2 0x10B6 JUMP JUMPDEST PUSH1 0x40 MLOAD DUP1 SWAP2 SUB SWAP1 RETURN JUMPDEST PUSH2 0x14F PUSH2 0x334 JUMP JUMPDEST PUSH1 0x40 MLOAD PUSH2 0x15C SWAP2 SWAP1 PUSH2 0x1162 JUMP JUMPDEST PUSH1 0x40 MLOAD DUP1 SWAP2 SUB SWAP1 RETURN JUMPDEST PUSH2 0x17F PUSH1 0x4 DUP1 CALLDATASIZE SUB DUP2 ADD SWAP1 PUSH2 0x17A SWAP2 SWAP1 PUSH2 0x117B JUMP JUMPDEST PUSH2 0x33C JUMP JUMPDEST STOP JUMPDEST PUSH2 0x19B PUSH1 0x4 DUP1 CALLDATASIZE SUB DUP2 ADD SWAP1 PUSH2 0x196 SWAP2 SWAP1 PUSH2 0x11A6 JUMP JUMPDEST PUSH2 0x461 JUMP JUMPDEST PUSH1 0x40 MLOAD PUSH2 0x1A8 SWAP2 SWAP1 PUSH2 0x10DE JUMP JUMPDEST PUSH1 0x40 MLOAD DUP1 SWAP2 SUB SWAP1 RETURN JUMPDEST PUSH2 0x1B9 PUSH2 0x4A6 JUMP JUMPDEST PUSH1 0x40 MLOAD PUSH2 0x1C6 SWAP2 SWAP1 PUSH2 0xFAD JUMP JUMPDEST PUSH1 0x40 MLOAD DUP1 SWAP2 SUB SWAP1 RETURN JUMPDEST PUSH2 0x1E9 PUSH1 0x4 DUP1 CALLDATASIZE SUB DUP2 ADD SWAP1 PUSH2 0x1E4 SWAP2 SWAP1 PUSH2 0x117B JUMP JUMPDEST PUSH2 0x536 JUMP JUMPDEST STOP JUMPDEST PUSH2 0x205 PUSH1 0x4 DUP1 CALLDATASIZE SUB DUP2 ADD SWAP1 PUSH2 0x200 SWAP2 SWAP1 PUSH2 0x105E JUMP JUMPDEST PUSH2 0x817 JUMP JUMPDEST PUSH1 0x40 MLOAD PUSH2 0x212 SWAP2 SWAP1 PUSH2 0x10B6 JUMP JUMPDEST PUSH1 0x40 MLOAD DUP1 SWAP2 SUB SWAP1 RETURN JUMPDEST PUSH2 0x235 PUSH1 0x4 DUP1 CALLDATASIZE SUB DUP2 ADD SWAP1 PUSH2 0x230 SWAP2 SWAP1 PUSH2 0x11D1 JUMP JUMPDEST PUSH2 0x839 JUMP JUMPDEST PUSH1 0x40 MLOAD PUSH2 0x242 SWAP2 SWAP1 PUSH2 0x10DE JUMP JUMPDEST PUSH1 0x40 MLOAD DUP1 SWAP2 SUB SWAP1 RETURN JUMPDEST PUSH1 0x60 PUSH1 0x3 DUP1 SLOAD PUSH2 0x25A SWAP1 PUSH2 0x123C JUMP JUMPDEST DUP1 PUSH1 0x1F ADD PUSH1 0x20 DUP1 SWAP2 DIV MUL PUSH1 0x20 ADD PUSH1 0x40 MLOAD SWAP1 DUP2 ADD PUSH1 0x40 MSTORE DUP1 SWAP3 SWAP2 SWAP1 DUP2 DUP2 MSTORE PUSH1 0x20 ADD DUP3 DUP1 SLOAD PUSH2 0x286 SWAP1 PUSH2 0x123C JUMP JUMPDEST DUP1 ISZERO PUSH2 0x2D1 JUMPI DUP1 PUSH1 0x1F LT PUSH2 0x2A8 JUMPI PUSH2 0x100 DUP1 DUP4 SLOAD DIV MUL DUP4 MSTORE SWAP2 PUSH1 0x20 ADD SWAP2 PUSH2 0x2D1 JUMP JUMPDEST DUP3 ADD SWAP2 SWAP1 PUSH0 MSTORE PUSH1 0x20 PUSH0 KECCAK256 SWAP1 JUMPDEST DUP2 SLOAD DUP2 MSTORE SWAP1 PUSH1 0x1 ADD SWAP1 PUSH1 0x20 ADD DUP1 DUP4 GT PUSH2 0x2B4 JUMPI DUP3 SWAP1 SUB PUSH1 0x1F AND DUP3 ADD SWAP2 JUMPDEST POP POP POP POP POP SWAP1 POP SWAP1 JUMP JUMPDEST PUSH0 DUP1 PUSH2 0x2E5 PUSH2 0x8BB JUMP JUMPDEST SWAP1 POP PUSH2 0x2F2 DUP2 DUP6 DUP6 PUSH2 0x8C2 JUMP JUMPDEST PUSH1 0x1 SWAP2 POP POP SWAP3 SWAP2 POP POP JUMP JUMPDEST PUSH0 PUSH1 0x2 SLOAD SWAP1 POP SWAP1 JUMP JUMPDEST PUSH0 DUP1 PUSH2 0x310 PUSH2 0x8BB JUMP JUMPDEST SWAP1 POP PUSH2 0x31D DUP6 DUP3 DUP6 PUSH2 0x8D4 JUMP JUMPDEST PUSH2 0x328 DUP6 DUP6 DUP6 PUSH2 0x967 JUMP JUMPDEST PUSH1 0x1 SWAP2 POP POP SWAP4 SWAP3 POP POP POP JUMP JUMPDEST PUSH0 PUSH1 0x12 SWAP1 POP SWAP1 JUMP JUMPDEST PUSH1 0x5 PUSH0 SWAP1 SLOAD SWAP1 PUSH2 0x100 EXP SWAP1 DIV PUSH20 0xFFFFFFFFFFFFFFFFFFFFFFFFFFFFFFFFFFFFFFFF AND PUSH20 0xFFFFFFFFFFFFFFFFFFFFFFFFFFFFFFFFFFFFFFFF AND PUSH4 0xDA4658E0 PUSH1 0x40 MLOAD DUP2 PUSH4 0xFFFFFFFF AND PUSH1 0xE0 SHL DUP2 MSTORE PUSH1 0x4 ADD PUSH1 0x20 PUSH1 0x40 MLOAD DUP1 DUP4 SUB DUP2 DUP7 GAS STATICCALL ISZERO DUP1 ISZERO PUSH2 0x3A6 JUMPI RETURNDATASIZE PUSH0 DUP1 RETURNDATACOPY RETURNDATASIZE PUSH0 REVERT JUMPDEST POP POP POP POP PUSH1 0x40 MLOAD RETURNDATASIZE PUSH1 0x1F NOT PUSH1 0x1F DUP3 ADD AND DUP3 ADD DUP1 PUSH1 0x40 MSTORE POP DUP2 ADD SWAP1 PUSH2 0x3CA SWAP2 SWAP1 PUSH2 0x1296 JUMP JUMPDEST PUSH2 0x409 JUMPI PUSH1 0x40 MLOAD PUSH32 0x8C379A000000000000000000000000000000000000000000000000000000000 DUP2 MSTORE PUSH1 0x4 ADD PUSH2 0x400 SWAP1 PUSH2 0x130B JUMP JUMPDEST PUSH1 0x40 MLOAD DUP1 SWAP2 SUB SWAP1 REVERT JUMPDEST DUP1 PUSH2 0x413 CALLER PUSH2 0x461 JUMP JUMPDEST LT ISZERO PUSH2 0x454 JUMPI PUSH1 0x40 MLOAD PUSH32 0x8C379A000000000000000000000000000000000000000000000000000000000 DUP2 MSTORE PUSH1 0x4 ADD PUSH2 0x44B SWAP1 PUSH2 0x1399 JUMP JUMPDEST PUSH1 0x40 MLOAD DUP1 SWAP2 SUB SWAP1 REVERT JUMPDEST PUSH2 0x45E CALLER DUP3 PUSH2 0xA57 JUMP JUMPDEST POP JUMP JUMPDEST PUSH0 DUP1 PUSH0 DUP4 PUSH20 0xFFFFFFFFFFFFFFFFFFFFFFFFFFFFFFFFFFFFFFFF AND PUSH20 0xFFFFFFFFFFFFFFFFFFFFFFFFFFFFFFFFFFFFFFFF AND DUP2 MSTORE PUSH1 0x20 ADD SWAP1 DUP2 MSTORE PUSH1 0x20 ADD PUSH0 KECCAK256 SLOAD SWAP1 POP SWAP2 SWAP1 POP JUMP JUMPDEST PUSH1 0x60 PUSH1 0x4 DUP1 SLOAD PUSH2 0x4B5 SWAP1 PUSH2 0x123C JUMP JUMPDEST DUP1 PUSH1 0x1F ADD PUSH1 0x20 DUP1 SWAP2 DIV MUL PUSH1 0x20 ADD PUSH1 0x40 MLOAD SWAP1 DUP2 ADD PUSH1 0x40 MSTORE DUP1 SWAP3 SWAP2 SWAP1 DUP2 DUP2 MSTORE PUSH1 0x20 ADD DUP3 DUP1 SLOAD PUSH2 0x4E1 SWAP1 PUSH2 0x123C JUMP JUMPDEST DUP1 ISZERO PUSH2 0x52C JUMPI DUP1 PUSH1 0x1F LT PUSH2 0x503 JUMPI PUSH2 0x100 DUP1 DUP4 SLOAD DIV MUL DUP4 MSTORE SWAP2 PUSH1 0x20 ADD SWAP2 PUSH2 0x52C JUMP JUMPDEST DUP3 ADD SWAP2 SWAP1 PUSH0 MSTORE PUSH1 0x20 PUSH0 KECCAK256 SWAP1 JUMPDEST DUP2 SLOAD DUP2 MSTORE SWAP1 PUSH1 0x1 ADD SWAP1 PUSH1 0x20 ADD DUP1 DUP4 GT PUSH2 0x50F JUMPI DUP3 SWAP1 SUB PUSH1 0x1F AND DUP3 ADD SWAP2 JUMPDEST POP POP POP POP POP SWAP1 POP SWAP1 JUMP JUMPDEST PUSH1 0x5 PUSH0 SWAP1 SLOAD SWAP1 PUSH2 0x100 EXP SWAP1 DIV PUSH20 0xFFFFFFFFFFFFFFFFFFFFFFFFFFFFFFFFFFFFFFFF AND PUSH20 0xFFFFFFFFFFFFFFFFFFFFFFFFFFFFFFFFFFFFFFFF AND PUSH4 0xDA4658E0 PUSH1 0x40 MLOAD DUP2 PUSH4 0xFFFFFFFF AND PUSH1 0xE0 SHL DUP2 MSTORE PUSH1 0x4 ADD PUSH1 0x20 PUSH1 0x40 MLOAD DUP1 DUP4 SUB DUP2 DUP7 GAS STATICCALL ISZERO DUP1 ISZERO PUSH2 0x5A0 JUMPI RETURNDATASIZE PUSH0 DUP1 RETURNDATACOPY RETURNDATASIZE PUSH0 REVERT JUMPDEST POP POP POP POP PUSH1 0x40 MLOAD RETURNDATASIZE PUSH1 0x1F NOT PUSH1 0x1F DUP3 ADD AND DUP3 ADD DUP1 PUSH1 0x40 MSTORE POP DUP2 ADD SWAP1 PUSH2 0x5C4 SWAP2 SWAP1 PUSH2 0x1296 JUMP JUMPDEST PUSH2 0x603 JUMPI PUSH1 0x40 MLOAD PUSH32 0x8C379A000000000000000000000000000000000000000000000000000000000 DUP2 MSTORE PUSH1 0x4 ADD PUSH2 0x5FA SWAP1 PUSH2 0x130B JUMP JUMPDEST PUSH1 0x40 MLOAD DUP1 SWAP2 SUB SWAP1 REVERT JUMPDEST DUP1 PUSH1 0x5 PUSH0 SWAP1 SLOAD SWAP1 PUSH2 0x100 EXP SWAP1 DIV PUSH20 0xFFFFFFFFFFFFFFFFFFFFFFFFFFFFFFFFFFFFFFFF AND PUSH20 0xFFFFFFFFFFFFFFFFFFFFFFFFFFFFFFFFFFFFFFFF AND PUSH4 0x4407E1E8 CALLER PUSH1 0x40 MLOAD DUP3 PUSH4 0xFFFFFFFF AND PUSH1 0xE0 SHL DUP2 MSTORE PUSH1 0x4 ADD PUSH2 0x65E SWAP2 SWAP1 PUSH2 0x13C6 JUMP JUMPDEST PUSH1 0x20 PUSH1 0x40 MLOAD DUP1 DUP4 SUB DUP2 DUP7 GAS STATICCALL ISZERO DUP1 ISZERO PUSH2 0x679 JUMPI RETURNDATASIZE PUSH0 DUP1 RETURNDATACOPY RETURNDATASIZE PUSH0 REVERT JUMPDEST POP POP POP POP PUSH1 0x40 MLOAD RETURNDATASIZE PUSH1 0x1F NOT PUSH1 0x1F DUP3 ADD AND DUP3 ADD DUP1 PUSH1 0x40 MSTORE POP DUP2 ADD SWAP1 PUSH2 0x69D SWAP2 SWAP1 PUSH2 0x13F3 JUMP JUMPDEST LT ISZERO PUSH2 0x6DE JUMPI PUSH1 0x40 MLOAD PUSH32 0x8C379A000000000000000000000000000000000000000000000000000000000 DUP2 MSTORE PUSH1 0x4 ADD PUSH2 0x6D5 SWAP1 PUSH2 0x1468 JUMP JUMPDEST PUSH1 0x40 MLOAD DUP1 SWAP2 SUB SWAP1 REVERT JUMPDEST PUSH2 0x6E8 CALLER DUP3 PUSH2 0xAD6 JUMP JUMPDEST PUSH1 0x5 PUSH0 SWAP1 SLOAD SWAP1 PUSH2 0x100 EXP SWAP1 DIV PUSH20 0xFFFFFFFFFFFFFFFFFFFFFFFFFFFFFFFFFFFFFFFF AND PUSH20 0xFFFFFFFFFFFFFFFFFFFFFFFFFFFFFFFFFFFFFFFF AND PUSH4 0xD39CF006 CALLER DUP4 PUSH1 0x5 PUSH0 SWAP1 SLOAD SWAP1 PUSH2 0x100 EXP SWAP1 DIV PUSH20 0xFFFFFFFFFFFFFFFFFFFFFFFFFFFFFFFFFFFFFFFF AND PUSH20 0xFFFFFFFFFFFFFFFFFFFFFFFFFFFFFFFFFFFFFFFF AND PUSH4 0x4407E1E8 CALLER PUSH1 0x40 MLOAD DUP3 PUSH4 0xFFFFFFFF AND PUSH1 0xE0 SHL DUP2 MSTORE PUSH1 0x4 ADD PUSH2 0x781 SWAP2 SWAP1 PUSH2 0x13C6 JUMP JUMPDEST PUSH1 0x20 PUSH1 0x40 MLOAD DUP1 DUP4 SUB DUP2 DUP7 GAS STATICCALL ISZERO DUP1 ISZERO PUSH2 0x79C JUMPI RETURNDATASIZE PUSH0 DUP1 RETURNDATACOPY RETURNDATASIZE PUSH0 REVERT JUMPDEST POP POP POP POP PUSH1 0x40 MLOAD RETURNDATASIZE PUSH1 0x1F NOT PUSH1 0x1F DUP3 ADD AND DUP3 ADD DUP1 PUSH1 0x40 MSTORE POP DUP2 ADD SWAP1 PUSH2 0x7C0 SWAP2 SWAP1 PUSH2 0x13F3 JUMP JUMPDEST PUSH2 0x7CA SWAP2 SWAP1 PUSH2 0x14B3 JUMP JUMPDEST PUSH1 0x40 MLOAD DUP4 PUSH4 0xFFFFFFFF AND PUSH1 0xE0 SHL DUP2 MSTORE PUSH1 0x4 ADD PUSH2 0x7E7 SWAP3 SWAP2 SWAP1 PUSH2 0x14E6 JUMP JUMPDEST PUSH0 PUSH1 0x40 MLOAD DUP1 DUP4 SUB DUP2 PUSH0 DUP8 DUP1 EXTCODESIZE ISZERO DUP1 ISZERO PUSH2 0x7FE JUMPI PUSH0 DUP1 REVERT JUMPDEST POP GAS CALL ISZERO DUP1 ISZERO PUSH2 0x810 JUMPI RETURNDATASIZE PUSH0 DUP1 RETURNDATACOPY RETURNDATASIZE PUSH0 REVERT JUMPDEST POP POP POP POP POP JUMP JUMPDEST PUSH0 DUP1 PUSH2 0x821 PUSH2 0x8BB JUMP JUMPDEST SWAP1 POP PUSH2 0x82E DUP2 DUP6 DUP6 PUSH2 0x967 JUMP JUMPDEST PUSH1 0x1 SWAP2 POP POP SWAP3 SWAP2 POP POP JUMP JUMPDEST PUSH0 PUSH1 0x1 PUSH0 DUP5 PUSH20 0xFFFFFFFFFFFFFFFFFFFFFFFFFFFFFFFFFFFFFFFF AND PUSH20 0xFFFFFFFFFFFFFFFFFFFFFFFFFFFFFFFFFFFFFFFF AND DUP2 MSTORE PUSH1 0x20 ADD SWAP1 DUP2 MSTORE PUSH1 0x20 ADD PUSH0 KECCAK256 PUSH0 DUP4 PUSH20 0xFFFFFFFFFFFFFFFFFFFFFFFFFFFFFFFFFFFFFFFF AND PUSH20 0xFFFFFFFFFFFFFFFFFFFFFFFFFFFFFFFFFFFFFFFF AND DUP2 MSTORE PUSH1 0x20 ADD SWAP1 DUP2 MSTORE PUSH1 0x20 ADD PUSH0 KECCAK256 SLOAD SWAP1 POP SWAP3 SWAP2 POP POP JUMP JUMPDEST PUSH0 CALLER SWAP1 POP SWAP1 JUMP JUMPDEST PUSH2 0x8CF DUP4 DUP4 DUP4 PUSH1 0x1 PUSH2 0xB55 JUMP JUMPDEST POP POP POP JUMP JUMPDEST PUSH0 PUSH2 0x8DF DUP5 DUP5 PUSH2 0x839 JUMP JUMPDEST SWAP1 POP PUSH32 0xFFFFFFFFFFFFFFFFFFFFFFFFFFFFFFFFFFFFFFFFFFFFFFFFFFFFFFFFFFFFFFFF DUP2 LT ISZERO PUSH2 0x961 JUMPI DUP2 DUP2 LT ISZERO PUSH2 0x952 JUMPI DUP3 DUP2 DUP4 PUSH1 0x40 MLOAD PUSH32 0xFB8F41B200000000000000000000000000000000000000000000000000000000 DUP2 MSTORE PUSH1 0x4 ADD PUSH2 0x949 SWAP4 SWAP3 SWAP2 SWAP1 PUSH2 0x150D JUMP JUMPDEST PUSH1 0x40 MLOAD DUP1 SWAP2 SUB SWAP1 REVERT JUMPDEST PUSH2 0x960 DUP5 DUP5 DUP5 DUP5 SUB PUSH0 PUSH2 0xB55 JUMP JUMPDEST JUMPDEST POP POP POP POP JUMP JUMPDEST PUSH0 PUSH20 0xFFFFFFFFFFFFFFFFFFFFFFFFFFFFFFFFFFFFFFFF AND DUP4 PUSH20 0xFFFFFFFFFFFFFFFFFFFFFFFFFFFFFFFFFFFFFFFF AND SUB PUSH2 0x9D7 JUMPI PUSH0 PUSH1 0x40 MLOAD PUSH32 0x96C6FD1E00000000000000000000000000000000000000000000000000000000 DUP2 MSTORE PUSH1 0x4 ADD PUSH2 0x9CE SWAP2 SWAP1 PUSH2 0x13C6 JUMP JUMPDEST PUSH1 0x40 MLOAD DUP1 SWAP2 SUB SWAP1 REVERT JUMPDEST PUSH0 PUSH20 0xFFFFFFFFFFFFFFFFFFFFFFFFFFFFFFFFFFFFFFFF AND DUP3 PUSH20 0xFFFFFFFFFFFFFFFFFFFFFFFFFFFFFFFFFFFFFFFF AND SUB PUSH2 0xA47 JUMPI PUSH0 PUSH1 0x40 MLOAD PUSH32 0xEC442F0500000000000000000000000000000000000000000000000000000000 DUP2 MSTORE PUSH1 0x4 ADD PUSH2 0xA3E SWAP2 SWAP1 PUSH2 0x13C6 JUMP JUMPDEST PUSH1 0x40 MLOAD DUP1 SWAP2 SUB SWAP1 REVERT JUMPDEST PUSH2 0xA52 DUP4 DUP4 DUP4 PUSH2 0xD24 JUMP JUMPDEST POP POP POP JUMP JUMPDEST PUSH0 PUSH20 0xFFFFFFFFFFFFFFFFFFFFFFFFFFFFFFFFFFFFFFFF AND DUP3 PUSH20 0xFFFFFFFFFFFFFFFFFFFFFFFFFFFFFFFFFFFFFFFF AND SUB PUSH2 0xAC7 JUMPI PUSH0 PUSH1 0x40 MLOAD PUSH32 0x96C6FD1E00000000000000000000000000000000000000000000000000000000 DUP2 MSTORE PUSH1 0x4 ADD PUSH2 0xABE SWAP2 SWAP1 PUSH2 0x13C6 JUMP JUMPDEST PUSH1 0x40 MLOAD DUP1 SWAP2 SUB SWAP1 REVERT JUMPDEST PUSH2 0xAD2 DUP3 PUSH0 DUP4 PUSH2 0xD24 JUMP JUMPDEST POP POP JUMP JUMPDEST PUSH0 PUSH20 0xFFFFFFFFFFFFFFFFFFFFFFFFFFFFFFFFFFFFFFFF AND DUP3 PUSH20 0xFFFFFFFFFFFFFFFFFFFFFFFFFFFFFFFFFFFFFFFF AND SUB PUSH2 0xB46 JUMPI PUSH0 PUSH1 0x40 MLOAD PUSH32 0xEC442F0500000000000000000000000000000000000000000000000000000000 DUP2 MSTORE PUSH1 0x4 ADD PUSH2 0xB3D SWAP2 SWAP1 PUSH2 0x13C6 JUMP JUMPDEST PUSH1 0x40 MLOAD DUP1 SWAP2 SUB SWAP1 REVERT JUMPDEST PUSH2 0xB51 PUSH0 DUP4 DUP4 PUSH2 0xD24 JUMP JUMPDEST POP POP JUMP JUMPDEST PUSH0 PUSH20 0xFFFFFFFFFFFFFFFFFFFFFFFFFFFFFFFFFFFFFFFF AND DUP5 PUSH20 0xFFFFFFFFFFFFFFFFFFFFFFFFFFFFFFFFFFFFFFFF AND SUB PUSH2 0xBC5 JUMPI PUSH0 PUSH1 0x40 MLOAD PUSH32 0xE602DF0500000000000000000000000000000000000000000000000000000000 DUP2 MSTORE PUSH1 0x4 ADD PUSH2 0xBBC SWAP2 SWAP1 PUSH2 0x13C6 JUMP JUMPDEST PUSH1 0x40 MLOAD DUP1 SWAP2 SUB SWAP1 REVERT JUMPDEST PUSH0 PUSH20 0xFFFFFFFFFFFFFFFFFFFFFFFFFFFFFFFFFFFFFFFF AND DUP4 PUSH20 0xFFFFFFFFFFFFFFFFFFFFFFFFFFFFFFFFFFFFFFFF AND SUB PUSH2 0xC35 JUMPI PUSH0 PUSH1 0x40 MLOAD PUSH32 0x94280D6200000000000000000000000000000000000000000000000000000000 DUP2 MSTORE PUSH1 0x4 ADD PUSH2 0xC2C SWAP2 SWAP1 PUSH2 0x13C6 JUMP JUMPDEST PUSH1 0x40 MLOAD DUP1 SWAP2 SUB SWAP1 REVERT JUMPDEST DUP2 PUSH1 0x1 PUSH0 DUP7 PUSH20 0xFFFFFFFFFFFFFFFFFFFFFFFFFFFFFFFFFFFFFFFF AND PUSH20 0xFFFFFFFFFFFFFFFFFFFFFFFFFFFFFFFFFFFFFFFF AND DUP2 MSTORE PUSH1 0x20 ADD SWAP1 DUP2 MSTORE PUSH1 0x20 ADD PUSH0 KECCAK256 PUSH0 DUP6 PUSH20 0xFFFFFFFFFFFFFFFFFFFFFFFFFFFFFFFFFFFFFFFF AND PUSH20 0xFFFFFFFFFFFFFFFFFFFFFFFFFFFFFFFFFFFFFFFF AND DUP2 MSTORE PUSH1 0x20 ADD SWAP1 DUP2 MSTORE PUSH1 0x20 ADD PUSH0 KECCAK256 DUP2 SWAP1 SSTORE POP DUP1 ISZERO PUSH2 0xD1E JUMPI DUP3 PUSH20 0xFFFFFFFFFFFFFFFFFFFFFFFFFFFFFFFFFFFFFFFF AND DUP5 PUSH20 0xFFFFFFFFFFFFFFFFFFFFFFFFFFFFFFFFFFFFFFFF AND PUSH32 0x8C5BE1E5EBEC7D5BD14F71427D1E84F3DD0314C0F7B2291E5B200AC8C7C3B925 DUP5 PUSH1 0x40 MLOAD PUSH2 0xD15 SWAP2 SWAP1 PUSH2 0x10DE JUMP JUMPDEST PUSH1 0x40 MLOAD DUP1 SWAP2 SUB SWAP1 LOG3 JUMPDEST POP POP POP POP JUMP JUMPDEST PUSH0 PUSH20 0xFFFFFFFFFFFFFFFFFFFFFFFFFFFFFFFFFFFFFFFF AND DUP4 PUSH20 0xFFFFFFFFFFFFFFFFFFFFFFFFFFFFFFFFFFFFFFFF AND SUB PUSH2 0xD74 JUMPI DUP1 PUSH1 0x2 PUSH0 DUP3 DUP3 SLOAD PUSH2 0xD68 SWAP2 SWAP1 PUSH2 0x1542 JUMP JUMPDEST SWAP3 POP POP DUP2 SWAP1 SSTORE POP PUSH2 0xE42 JUMP JUMPDEST PUSH0 DUP1 PUSH0 DUP6 PUSH20 0xFFFFFFFFFFFFFFFFFFFFFFFFFFFFFFFFFFFFFFFF AND PUSH20 0xFFFFFFFFFFFFFFFFFFFFFFFFFFFFFFFFFFFFFFFF AND DUP2 MSTORE PUSH1 0x20 ADD SWAP1 DUP2 MSTORE PUSH1 0x20 ADD PUSH0 KECCAK256 SLOAD SWAP1 POP DUP2 DUP2 LT ISZERO PUSH2 0xDFD JUMPI DUP4 DUP2 DUP4 PUSH1 0x40 MLOAD PUSH32 0xE450D38C00000000000000000000000000000000000000000000000000000000 DUP2 MSTORE PUSH1 0x4 ADD PUSH2 0xDF4 SWAP4 SWAP3 SWAP2 SWAP1 PUSH2 0x150D JUMP JUMPDEST PUSH1 0x40 MLOAD DUP1 SWAP2 SUB SWAP1 REVERT JUMPDEST DUP2 DUP2 SUB PUSH0 DUP1 DUP7 PUSH20 0xFFFFFFFFFFFFFFFFFFFFFFFFFFFFFFFFFFFFFFFF AND PUSH20 0xFFFFFFFFFFFFFFFFFFFFFFFFFFFFFFFFFFFFFFFF AND DUP2 MSTORE PUSH1 0x20 ADD SWAP1 DUP2 MSTORE PUSH1 0x20 ADD PUSH0 KECCAK256 DUP2 SWAP1 SSTORE POP POP JUMPDEST PUSH0 PUSH20 0xFFFFFFFFFFFFFFFFFFFFFFFFFFFFFFFFFFFFFFFF AND DUP3 PUSH20 0xFFFFFFFFFFFFFFFFFFFFFFFFFFFFFFFFFFFFFFFF AND SUB PUSH2 0xE89 JUMPI DUP1 PUSH1 0x2 PUSH0 DUP3 DUP3 SLOAD SUB SWAP3 POP POP DUP2 SWAP1 SSTORE POP PUSH2 0xED3 JUMP JUMPDEST DUP1 PUSH0 DUP1 DUP5 PUSH20 0xFFFFFFFFFFFFFFFFFFFFFFFFFFFFFFFFFFFFFFFF AND PUSH20 0xFFFFFFFFFFFFFFFFFFFFFFFFFFFFFFFFFFFFFFFF AND DUP2 MSTORE PUSH1 0x20 ADD SWAP1 DUP2 MSTORE PUSH1 0x20 ADD PUSH0 KECCAK256 PUSH0 DUP3 DUP3 SLOAD ADD SWAP3 POP POP DUP2 SWAP1 SSTORE POP JUMPDEST DUP2 PUSH20 0xFFFFFFFFFFFFFFFFFFFFFFFFFFFFFFFFFFFFFFFF AND DUP4 PUSH20 0xFFFFFFFFFFFFFFFFFFFFFFFFFFFFFFFFFFFFFFFF AND PUSH32 0xDDF252AD1BE2C89B69C2B068FC378DAA952BA7F163C4A11628F55A4DF523B3EF DUP4 PUSH1 0x40 MLOAD PUSH2 0xF30 SWAP2 SWAP1 PUSH2 0x10DE JUMP JUMPDEST PUSH1 0x40 MLOAD DUP1 SWAP2 SUB SWAP1 LOG3 POP POP POP JUMP JUMPDEST PUSH0 DUP2 MLOAD SWAP1 POP SWAP2 SWAP1 POP JUMP JUMPDEST PUSH0 DUP3 DUP3 MSTORE PUSH1 0x20 DUP3 ADD SWAP1 POP SWAP3 SWAP2 POP POP JUMP JUMPDEST DUP3 DUP2 DUP4 MCOPY PUSH0 DUP4 DUP4 ADD MSTORE POP POP POP JUMP JUMPDEST PUSH0 PUSH1 0x1F NOT PUSH1 0x1F DUP4 ADD AND SWAP1 POP SWAP2 SWAP1 POP JUMP JUMPDEST PUSH0 PUSH2 0xF7F DUP3 PUSH2 0xF3D JUMP JUMPDEST PUSH2 0xF89 DUP2 DUP6 PUSH2 0xF47 JUMP JUMPDEST SWAP4 POP PUSH2 0xF99 DUP2 DUP6 PUSH1 0x20 DUP7 ADD PUSH2 0xF57 JUMP JUMPDEST PUSH2 0xFA2 DUP2 PUSH2 0xF65 JUMP JUMPDEST DUP5 ADD SWAP2 POP POP SWAP3 SWAP2 POP POP JUMP JUMPDEST PUSH0 PUSH1 0x20 DUP3 ADD SWAP1 POP DUP2 DUP2 SUB PUSH0 DUP4 ADD MSTORE PUSH2 0xFC5 DUP2 DUP5 PUSH2 0xF75 JUMP JUMPDEST SWAP1 POP SWAP3 SWAP2 POP POP JUMP JUMPDEST PUSH0 DUP1 REVERT JUMPDEST PUSH0 PUSH20 0xFFFFFFFFFFFFFFFFFFFFFFFFFFFFFFFFFFFFFFFF DUP3 AND SWAP1 POP SWAP2 SWAP1 POP JUMP JUMPDEST PUSH0 PUSH2 0xFFA DUP3 PUSH2 0xFD1 JUMP JUMPDEST SWAP1 POP SWAP2 SWAP1 POP JUMP JUMPDEST PUSH2 0x100A DUP2 PUSH2 0xFF0 JUMP JUMPDEST DUP2 EQ PUSH2 0x1014 JUMPI PUSH0 DUP1 REVERT JUMPDEST POP JUMP JUMPDEST PUSH0 DUP2 CALLDATALOAD SWAP1 POP PUSH2 0x1025 DUP2 PUSH2 0x1001 JUMP JUMPDEST SWAP3 SWAP2 POP POP JUMP JUMPDEST PUSH0 DUP2 SWAP1 POP SWAP2 SWAP1 POP JUMP JUMPDEST PUSH2 0x103D DUP2 PUSH2 0x102B JUMP JUMPDEST DUP2 EQ PUSH2 0x1047 JUMPI PUSH0 DUP1 REVERT JUMPDEST POP JUMP JUMPDEST PUSH0 DUP2 CALLDATALOAD SWAP1 POP PUSH2 0x1058 DUP2 PUSH2 0x1034 JUMP JUMPDEST SWAP3 SWAP2 POP POP JUMP JUMPDEST PUSH0 DUP1 PUSH1 0x40 DUP4 DUP6 SUB SLT ISZERO PUSH2 0x1074 JUMPI PUSH2 0x1073 PUSH2 0xFCD JUMP JUMPDEST JUMPDEST PUSH0 PUSH2 0x1081 DUP6 DUP3 DUP7 ADD PUSH2 0x1017 JUMP JUMPDEST SWAP3 POP POP PUSH1 0x20 PUSH2 0x1092 DUP6 DUP3 DUP7 ADD PUSH2 0x104A JUMP JUMPDEST SWAP2 POP POP SWAP3 POP SWAP3 SWAP1 POP JUMP JUMPDEST PUSH0 DUP2 ISZERO ISZERO SWAP1 POP SWAP2 SWAP1 POP JUMP JUMPDEST PUSH2 0x10B0 DUP2 PUSH2 0x109C JUMP JUMPDEST DUP3 MSTORE POP POP JUMP JUMPDEST PUSH0 PUSH1 0x20 DUP3 ADD SWAP1 POP PUSH2 0x10C9 PUSH0 DUP4 ADD DUP5 PUSH2 0x10A7 JUMP JUMPDEST SWAP3 SWAP2 POP POP JUMP JUMPDEST PUSH2 0x10D8 DUP2 PUSH2 0x102B JUMP JUMPDEST DUP3 MSTORE POP POP JUMP JUMPDEST PUSH0 PUSH1 0x20 DUP3 ADD SWAP1 POP PUSH2 0x10F1 PUSH0 DUP4 ADD DUP5 PUSH2 0x10CF JUMP JUMPDEST SWAP3 SWAP2 POP POP JUMP JUMPDEST PUSH0 DUP1 PUSH0 PUSH1 0x60 DUP5 DUP7 SUB SLT ISZERO PUSH2 0x110E JUMPI PUSH2 0x110D PUSH2 0xFCD JUMP JUMPDEST JUMPDEST PUSH0 PUSH2 0x111B DUP7 DUP3 DUP8 ADD PUSH2 0x1017 JUMP JUMPDEST SWAP4 POP POP PUSH1 0x20 PUSH2 0x112C DUP7 DUP3 DUP8 ADD PUSH2 0x1017 JUMP JUMPDEST SWAP3 POP POP PUSH1 0x40 PUSH2 0x113D DUP7 DUP3 DUP8 ADD PUSH2 0x104A JUMP JUMPDEST SWAP2 POP POP SWAP3 POP SWAP3 POP SWAP3 JUMP JUMPDEST PUSH0 PUSH1 0xFF DUP3 AND SWAP1 POP SWAP2 SWAP1 POP JUMP JUMPDEST PUSH2 0x115C DUP2 PUSH2 0x1147 JUMP JUMPDEST DUP3 MSTORE POP POP JUMP JUMPDEST PUSH0 PUSH1 0x20 DUP3 ADD SWAP1 POP PUSH2 0x1175 PUSH0 DUP4 ADD DUP5 PUSH2 0x1153 JUMP JUMPDEST SWAP3 SWAP2 POP POP JUMP JUMPDEST PUSH0 PUSH1 0x20 DUP3 DUP5 SUB SLT ISZERO PUSH2 0x1190 JUMPI PUSH2 0x118F PUSH2 0xFCD JUMP JUMPDEST JUMPDEST PUSH0 PUSH2 0x119D DUP5 DUP3 DUP6 ADD PUSH2 0x104A JUMP JUMPDEST SWAP2 POP POP SWAP3 SWAP2 POP POP JUMP JUMPDEST PUSH0 PUSH1 0x20 DUP3 DUP5 SUB SLT ISZERO PUSH2 0x11BB JUMPI PUSH2 0x11BA PUSH2 0xFCD JUMP JUMPDEST JUMPDEST PUSH0 PUSH2 0x11C8 DUP5 DUP3 DUP6 ADD PUSH2 0x1017 JUMP JUMPDEST SWAP2 POP POP SWAP3 SWAP2 POP POP JUMP JUMPDEST PUSH0 DUP1 PUSH1 0x40 DUP4 DUP6 SUB SLT ISZERO PUSH2 0x11E7 JUMPI PUSH2 0x11E6 PUSH2 0xFCD JUMP JUMPDEST JUMPDEST PUSH0 PUSH2 0x11F4 DUP6 DUP3 DUP7 ADD PUSH2 0x1017 JUMP JUMPDEST SWAP3 POP POP PUSH1 0x20 PUSH2 0x1205 DUP6 DUP3 DUP7 ADD PUSH2 0x1017 JUMP JUMPDEST SWAP2 POP POP SWAP3 POP SWAP3 SWAP1 POP JUMP JUMPDEST PUSH32 0x4E487B7100000000000000000000000000000000000000000000000000000000 PUSH0 MSTORE PUSH1 0x22 PUSH1 0x4 MSTORE PUSH1 0x24 PUSH0 REVERT JUMPDEST PUSH0 PUSH1 0x2 DUP3 DIV SWAP1 POP PUSH1 0x1 DUP3 AND DUP1 PUSH2 0x1253 JUMPI PUSH1 0x7F DUP3 AND SWAP2 POP JUMPDEST PUSH1 0x20 DUP3 LT DUP2 SUB PUSH2 0x1266 JUMPI PUSH2 0x1265 PUSH2 0x120F JUMP JUMPDEST JUMPDEST POP SWAP2 SWAP1 POP JUMP JUMPDEST PUSH2 0x1275 DUP2 PUSH2 0x109C JUMP JUMPDEST DUP2 EQ PUSH2 0x127F JUMPI PUSH0 DUP1 REVERT JUMPDEST POP JUMP JUMPDEST PUSH0 DUP2 MLOAD SWAP1 POP PUSH2 0x1290 DUP2 PUSH2 0x126C JUMP JUMPDEST SWAP3 SWAP2 POP POP JUMP JUMPDEST PUSH0 PUSH1 0x20 DUP3 DUP5 SUB SLT ISZERO PUSH2 0x12AB JUMPI PUSH2 0x12AA PUSH2 0xFCD JUMP JUMPDEST JUMPDEST PUSH0 PUSH2 0x12B8 DUP5 DUP3 DUP6 ADD PUSH2 0x1282 JUMP JUMPDEST SWAP2 POP POP SWAP3 SWAP2 POP POP JUMP JUMPDEST PUSH32 0x5468652066756E646D65206973206E6F7420636F6D706C657465642079657400 PUSH0 DUP3 ADD MSTORE POP JUMP JUMPDEST PUSH0 PUSH2 0x12F5 PUSH1 0x1F DUP4 PUSH2 0xF47 JUMP JUMPDEST SWAP2 POP PUSH2 0x1300 DUP3 PUSH2 0x12C1 JUMP JUMPDEST PUSH1 0x20 DUP3 ADD SWAP1 POP SWAP2 SWAP1 POP JUMP JUMPDEST PUSH0 PUSH1 0x20 DUP3 ADD SWAP1 POP DUP2 DUP2 SUB PUSH0 DUP4 ADD MSTORE PUSH2 0x1322 DUP2 PUSH2 0x12E9 JUMP JUMPDEST SWAP1 POP SWAP2 SWAP1 POP JUMP JUMPDEST PUSH32 0x796F7520646F6E74206861766520656E6F75676820455243323020746F6B656E PUSH0 DUP3 ADD MSTORE PUSH32 0x7300000000000000000000000000000000000000000000000000000000000000 PUSH1 0x20 DUP3 ADD MSTORE POP JUMP JUMPDEST PUSH0 PUSH2 0x1383 PUSH1 0x21 DUP4 PUSH2 0xF47 JUMP JUMPDEST SWAP2 POP PUSH2 0x138E DUP3 PUSH2 0x1329 JUMP JUMPDEST PUSH1 0x40 DUP3 ADD SWAP1 POP SWAP2 SWAP1 POP JUMP JUMPDEST PUSH0 PUSH1 0x20 DUP3 ADD SWAP1 POP DUP2 DUP2 SUB PUSH0 DUP4 ADD MSTORE PUSH2 0x13B0 DUP2 PUSH2 0x1377 JUMP JUMPDEST SWAP1 POP SWAP2 SWAP1 POP JUMP JUMPDEST PUSH2 0x13C0 DUP2 PUSH2 0xFF0 JUMP JUMPDEST DUP3 MSTORE POP POP JUMP JUMPDEST PUSH0 PUSH1 0x20 DUP3 ADD SWAP1 POP PUSH2 0x13D9 PUSH0 DUP4 ADD DUP5 PUSH2 0x13B7 JUMP JUMPDEST SWAP3 SWAP2 POP POP JUMP JUMPDEST PUSH0 DUP2 MLOAD SWAP1 POP PUSH2 0x13ED DUP2 PUSH2 0x1034 JUMP JUMPDEST SWAP3 SWAP2 POP POP JUMP JUMPDEST PUSH0 PUSH1 0x20 DUP3 DUP5 SUB SLT ISZERO PUSH2 0x1408 JUMPI PUSH2 0x1407 PUSH2 0xFCD JUMP JUMPDEST JUMPDEST PUSH0 PUSH2 0x1415 DUP5 DUP3 DUP6 ADD PUSH2 0x13DF JUMP JUMPDEST SWAP2 POP POP SWAP3 SWAP2 POP POP JUMP JUMPDEST PUSH32 0x596F752063616E6E6F74206D696E742074686973206D616E7920746F6B656E73 PUSH0 DUP3 ADD MSTORE POP JUMP JUMPDEST PUSH0 PUSH2 0x1452 PUSH1 0x20 DUP4 PUSH2 0xF47 JUMP JUMPDEST SWAP2 POP PUSH2 0x145D DUP3 PUSH2 0x141E JUMP JUMPDEST PUSH1 0x20 DUP3 ADD SWAP1 POP SWAP2 SWAP1 POP JUMP JUMPDEST PUSH0 PUSH1 0x20 DUP3 ADD SWAP1 POP DUP2 DUP2 SUB PUSH0 DUP4 ADD MSTORE PUSH2 0x147F DUP2 PUSH2 0x1446 JUMP JUMPDEST SWAP1 POP SWAP2 SWAP1 POP JUMP JUMPDEST PUSH32 0x4E487B7100000000000000000000000000000000000000000000000000000000 PUSH0 MSTORE PUSH1 0x11 PUSH1 0x4 MSTORE PUSH1 0x24 PUSH0 REVERT JUMPDEST PUSH0 PUSH2 0x14BD DUP3 PUSH2 0x102B JUMP JUMPDEST SWAP2 POP PUSH2 0x14C8 DUP4 PUSH2 0x102B JUMP JUMPDEST SWAP3 POP DUP3 DUP3 SUB SWAP1 POP DUP2 DUP2 GT ISZERO PUSH2 0x14E0 JUMPI PUSH2 0x14DF PUSH2 0x1486 JUMP JUMPDEST JUMPDEST SWAP3 SWAP2 POP POP JUMP JUMPDEST PUSH0 PUSH1 0x40 DUP3 ADD SWAP1 POP PUSH2 0x14F9 PUSH0 DUP4 ADD DUP6 PUSH2 0x13B7 JUMP JUMPDEST PUSH2 0x1506 PUSH1 0x20 DUP4 ADD DUP5 PUSH2 0x10CF JUMP JUMPDEST SWAP4 SWAP3 POP POP POP JUMP JUMPDEST PUSH0 PUSH1 0x60 DUP3 ADD SWAP1 POP PUSH2 0x1520 PUSH0 DUP4 ADD DUP7 PUSH2 0x13B7 JUMP JUMPDEST PUSH2 0x152D PUSH1 0x20 DUP4 ADD DUP6 PUSH2 0x10CF JUMP JUMPDEST PUSH2 0x153A PUSH1 0x40 DUP4 ADD DUP5 PUSH2 0x10CF JUMP JUMPDEST SWAP5 SWAP4 POP POP POP POP JUMP JUMPDEST PUSH0 PUSH2 0x154C DUP3 PUSH2 0x102B JUMP JUMPDEST SWAP2 POP PUSH2 0x1557 DUP4 PUSH2 0x102B JUMP JUMPDEST SWAP3 POP DUP3 DUP3 ADD SWAP1 POP DUP1 DUP3 GT ISZERO PUSH2 0x156F JUMPI PUSH2 0x156E PUSH2 0x1486 JUMP JUMPDEST JUMPDEST SWAP3 SWAP2 POP POP JUMP INVALID LOG2 PUSH5 0x6970667358 0x22 SLT KECCAK256 0xF 0xA9 0x4F 0xCE 0xB7 0xE2 SHR SWAP2 CODESIZE PUSH27 0x7BB6E51B09262F66553F915EABCE5407102FBE7EE19064736F6C63 NUMBER STOP ADDMOD BYTE STOP CALLER "
				},
				"gasEstimates": {
					"creation": {
						"codeDepositCost": "1109400",
						"executionCost": "infinite",
						"totalCost": "infinite"
					},
					"external": {
						"allowance(address,address)": "infinite",
						"approve(address,uint256)": "infinite",
						"balanceOf(address)": "2851",
						"claim(uint256)": "infinite",
						"decimals()": "427",
						"mint(uint256)": "infinite",
						"name()": "infinite",
						"symbol()": "infinite",
						"totalSupply()": "2477",
						"transfer(address,uint256)": "infinite",
						"transferFrom(address,address,uint256)": "infinite"
					}
				},
				"methodIdentifiers": {
					"allowance(address,address)": "dd62ed3e",
					"approve(address,uint256)": "095ea7b3",
					"balanceOf(address)": "70a08231",
					"claim(uint256)": "379607f5",
					"decimals()": "313ce567",
					"mint(uint256)": "a0712d68",
					"name()": "06fdde03",
					"symbol()": "95d89b41",
					"totalSupply()": "18160ddd",
					"transfer(address,uint256)": "a9059cbb",
					"transferFrom(address,address,uint256)": "23b872dd"
				}
			},
			"storageLayout": {
				"storage": [
					{
						"astId": 279,
						"contract": "FundTokenERC20_flattened.sol:FundTokenERC20",
						"label": "_balances",
						"offset": 0,
						"slot": "0",
						"type": "t_mapping(t_address,t_uint256)"
					},
					{
						"astId": 285,
						"contract": "FundTokenERC20_flattened.sol:FundTokenERC20",
						"label": "_allowances",
						"offset": 0,
						"slot": "1",
						"type": "t_mapping(t_address,t_mapping(t_address,t_uint256))"
					},
					{
						"astId": 287,
						"contract": "FundTokenERC20_flattened.sol:FundTokenERC20",
						"label": "_totalSupply",
						"offset": 0,
						"slot": "2",
						"type": "t_uint256"
					},
					{
						"astId": 289,
						"contract": "FundTokenERC20_flattened.sol:FundTokenERC20",
						"label": "_name",
						"offset": 0,
						"slot": "3",
						"type": "t_string_storage"
					},
					{
						"astId": 291,
						"contract": "FundTokenERC20_flattened.sol:FundTokenERC20",
						"label": "_symbol",
						"offset": 0,
						"slot": "4",
						"type": "t_string_storage"
					},
					{
						"astId": 1136,
						"contract": "FundTokenERC20_flattened.sol:FundTokenERC20",
						"label": "fundMe",
						"offset": 0,
						"slot": "5",
						"type": "t_contract(FundMe)1130"
					}
				],
				"types": {
					"t_address": {
						"encoding": "inplace",
						"label": "address",
						"numberOfBytes": "20"
					},
					"t_contract(FundMe)1130": {
						"encoding": "inplace",
						"label": "contract FundMe",
						"numberOfBytes": "20"
					},
					"t_mapping(t_address,t_mapping(t_address,t_uint256))": {
						"encoding": "mapping",
						"key": "t_address",
						"label": "mapping(address => mapping(address => uint256))",
						"numberOfBytes": "32",
						"value": "t_mapping(t_address,t_uint256)"
					},
					"t_mapping(t_address,t_uint256)": {
						"encoding": "mapping",
						"key": "t_address",
						"label": "mapping(address => uint256)",
						"numberOfBytes": "32",
						"value": "t_uint256"
					},
					"t_string_storage": {
						"encoding": "bytes",
						"label": "string",
						"numberOfBytes": "32"
					},
					"t_uint256": {
						"encoding": "inplace",
						"label": "uint256",
						"numberOfBytes": "32"
					}
				}
			},
			"userdoc": {
				"kind": "user",
				"methods": {},
				"version": 1
			}
		}
	}
}